:020000040800F2
:10000000D0A2002045010008A12100087D1F0008A2
:1000100005210008BB0B000879460008000000001D
:100020000000000000000000000000006126000841
:10003000E91500080000000015240008EF2E000854
:100040007D490008F9230008592F00085F010008C6
:10005000C91A0008B52500080D1A00085F0100083C
:100060003D1A00085D1A00087D1A00085F010008AB
:10007000810F0008A90F00085F0100085F01000858
:100080005F010008D10F00085F0100085F01000850
:1000900071460008CD0B0008ED0B00089D1A000802
:1000A000792F0008DD2F0008B92F0008992F0008CC
:1000B0005F0100085F010008FD2F0008A51F000870
:1000C000851F0008E51F0008C51F00080D26000851
:1000D00029260008E53D0008393E0008993E000841
:1000E000191A0008DD2500085545000851300008A0
:1000F000B53000089130000871300008AD090008E3
:10010000E91A00085F0100081930000845260008B8
:100110005F0100085F0100085F010008353000083A
:10012000F90F000821100008491000085F010008BD
:10013000DFF80CD000F0D2FB0048004789520008DD
:10014000D0A200200648804706480047FEE7FEE7A9
:10015000FEE7FEE7FEE7FEE7FEE7FEE7FEE7FEE777
:10016000F92E000831010008F0B480EA0102D40F32
:100170004200B2EB410F02D20246084611464A0045
:1001800042D0C30DDDB2C1F3C752AD1A202D35DA0E
:10019000C1F3160141F4000204B15242C5F1200638
:1001A00002FA06F12A411044B3EBD05F23D0C4B168
:1001B000012DA0EBC35009DCF0BC4FF0004202EA75
:1001C000C35200F50000DBB200F0D0BA400000F1ED
:1001D000807000EBC350A0F1807040EAD1704900FC
:1001E00009E0490841EAC071A0EBC35000F50000E6
:1001F000400800EBC350F0BC00F0AFBA61420122EE
:1002000002EB4101001BF6E7F0BC704781F00041B2
:10021000AAE780F00040A7E780EA010210B502F0EB
:100220000043400026D04A0023D04FEA106101EB82
:100230001261C0F35600C2F3560240F4000042F4CB
:100240000002A0FB0220A1F17F014FEA004014044C
:1002500001D000F1010050EA124001D44000491ED3
:10026000C2B20C0604EBD010401C4008802A02D019
:1002700003E0002010BD20F00100002900DA00207A
:10028000184310BD2DE9FE4F804681EA0300C00FE0
:100290000C46009021F0004123F00045B8EB02002D
:1002A000A94105D24046214690461C460B460246CF
:1002B00023F00040104304D14046214603B0BDE87E
:1002C000F08F270DC7F30A00C3F30A510290401ABA
:1002D0000190402866DAC3F3130040F4801B0098B5
:1002E000924620B10023D2EB030A63EB0B0B01987B
:1002F0005946C0F14002504600F0FEF906460D4650
:1003000050465946019A00F016FA10EB0800614178
:10031000002487EA115284EAE7731A433BD0009A1B
:100320003AB3019A012A4FEA075210DC001B61EB35
:1003300002014FF0004202EA0752CDE90042001CE0
:1003400041F5801132462B4600F04AFAB6E7001B11
:1003500061EB0201001C41F5801300185B4120187D
:10036000A2F5001747EB030140EAD570B6196D41BD
:1003700011E06D084FEA360645EAC0754FEA0752AC
:10038000001B61EB0201001C41F5801149084FEA96
:1003900030000019514132462B4603B0BDE8F04F02
:1003A00000F011BA0098012240000023D0EB0202B5
:1003B00063EBE073009821464FEAE074B8EB00006D
:1003C00061EB0401E9E783F000435BE781F0004162
:1003D00058E72DE9FE4F81EA030404F0004421F0C0
:1003E000004100944FF0000B23F0004350EA010459
:1003F00002D052EA030404D10020014603B0BDE854
:10040000F08FC3F30A54C1F30A552C44A4F2F33419
:100410000194A0FB0254C1F3130141F48011C3F312
:10042000130343F4801301FB024400FB034E840AD0
:10043000970A44EA815447EA8357A4FB0768029568
:100440008D0A05FB07854FEA932C04FB0C54270506
:10045000029D4FEA065847EA1637B5EB08056EEBE2
:10046000070C870E920E47EA811742EA8312A7FB18
:100470000201B6EB0B0164EB00042B0D43EA0C33D5
:100480005E1844EB1C50DA465146E7FB0201C5F307
:1004900013044FEA0B3343EA14534FEA0432019C2E
:1004A00043EA0603A4F10C040294009CCDE900B4D5
:1004B00000F096F9A2E72DE9F04D81EA030404F07B
:1004C000004B21F0004514464FF0000A23F0004194
:1004D00050EA050220D054EA01021DD0C5F30A57A4
:1004E0000246C5F31303C1F31300C1F30A5640F4E7
:1004F000801543F48013A7EB0608101BD64608F2BC
:10050000FD3873EB050002D308F1010801E09218F1
:100510005B41B8F1000F03DA00200146BDE8F08D21
:1005200000204FF48011064684460EE0171B73EB43
:10053000050705D3121B63EB050306434CEA010CC8
:1005400049084FEA300092185B4150EA0107EDD1AB
:1005500052EA030012D082EA040083EA050108434C
:1005600003D100224FF0004308E0101BAB4102D240
:100570000122002302E06FF0010253101AEB060083
:100580004CEB085110EB0A0041EB0B01BDE8F04DBC
:1005900000F019B9C10F80EAE0700844CA07962339
:1005A000002100F0E3B820F00040C10DC0F31600B8
:1005B00040F400007F2901DA00207047962903DC0F
:1005C000C1F19601C840704796398840704770B5B0
:1005D000C1F30A5201F000450024C1F3130140F2B7
:1005E000FF3341F480119A4201DA002070BD40F2DD
:1005F00033439A42A2F2334203DC524200F08BF8BA
:1006000000E090402C43F1D0404270BD00F0004229
:1006100030F000400AD0C10D01F56071C0F3160042
:1006200042EA0151C20840071143704700200146C9
:10063000704701F0004330B421F0004150EA01025C
:1006400006D00A0DA2F56072C1F31301002A02DC84
:1006500030BC00207047440F44EAC104C100E018D8
:1006600030BC00EBC25000F078B830B50B46014604
:1006700000202022012409E021FA02F59D4205D341
:1006800003FA02F5491B04FA02F52844151EA2F1EB
:100690000102F1DC30BD2DE9F05F054600209246F5
:1006A0009B4688460646814640241BE02846414634
:1006B0004746224600F02FF853465A46C01A914149
:1006C00010D311461846224600F016F82D1A67EB93
:1006D00001084F4622460120002100F00DF817EBDB
:1006E00000094E41201EA4F10104DFDC48463146DA
:1006F0002A464346BDE8F09F202A04DB203A00FA50
:1007000002F1002070479140C2F1200320FA03F368
:10071000194390407047202A04DB203A21FA02F066
:100720000021704721FA02F3D040C2F1200291402B
:10073000084319467047202A06DBCB17203A41FAB6
:1007400002F043EAE07306E041FA02F3D040C2F15E
:10075000200291400843194670470029A8BF7047FE
:10076000401C490008BF20F00100704710B4B0FAE7
:1007700080FC00FA0CF050EA010404BF10BC704782
:1007800049B1CCF1200421FA04F411FA0CF118BF9C
:10079000012121430843A3EB0C01CB1D0106000AF4
:1007A000002BBEBF002010BC704700EBC3501044AC
:1007B0000029A4BF10BC7047401C490008BF20F0AE
:1007C000010010BC704710B5002B08DA401C41F145
:1007D000000192185B411A4301D120F0010010BDC5
:1007E0002DE9F04D92469B4611B1B1FA81F202E03B
:1007F000B0FA80F220329046FFF77EFF04460F46A3
:1008000040EA0A0041EA0B0153465A46084303D125
:1008100020463946BDE8F08D114653EA010015D057
:10082000C8F140025046FFF776FF05460E46504697
:1008300059464246FFF760FF084301D0012000E01F
:100840000020054346EAE0762C4337430A984FEAF6
:100850004453A0EB08004FEAD4240A304FF00002C2
:1008600044EA47544FEAD72502D500200146D1E794
:10087000010510196941DDE9084500196941BDE824
:10088000F04DA0E7C1F30A52C1F3130140F2FF3368
:1008900041F480119A4202DA00200146704740F28A
:1008A00033439A42A2F2334202DC5242FFF733BF93
:1008B000FFF722BF30B5002904DB4FF0004440426F
:1008C00064EB0101002B04DB4FF00044524264EB67
:1008D0000303994208BF904230BD0000064C074D0B
:1008E00006E0E06840F0010394E807009847103400
:1008F000AC42F6D3FFF720FC005400082054000857
:1009000070B501EB020410F8015B15F0070301D18B
:1009100010F8013B2A1106D110F8012B03E010F862
:10092000016B01F8016B5B1EF9D12B0705D4002385
:10093000521E0FD401F8013BFAE710F8013B02F117
:100940000202A1EB030303E013F8015B01F8015B72
:10095000521EF9D5A142D6D3002070BD82B02DE938
:10096000FF1FEFF3038001B4684600F1400000E987
:1009700001400C480168C1F800D00B48D0F800D005
:1009800001BC80F30388BDE8FF1F01B000BD06482D
:10099000D0F800D001BC80F30388BDE8FF1F01B090
:1009A00000BD00004C0000204800002010B50321CD
:1009B00001A000F061FD10BD414443335F49525135
:1009C00048616E646C65720070B505462E460BA1D9
:1009D000304602F074FA04461CB1204600F012F8CA
:1009E00070BD07A1304602F06AFA04461CB12046E9
:1009F00000F020F8F4E700BFF2E700006D7300009C
:100A0000730000002DE9F0410446254608A1284660
:100A100002F055FA0646701C01F01AFA8046FFF7FC
:100A2000C2FD0746384602F09BFEBDE8F08100009B
:100A30002E0000007047000070B505462E460BA141
:100A4000304602F03CFA04461CB1204600F02AF879
:100A500070BD07A1304602F032FA04461CB12046B0
:100A600000F008F8F4E700BFF2E7000073657400D7
:100A70006366670070B50446264608A1304602F05A
:100A80001EFA054605B170BD05A1304602F017FA01
:100A9000054605B1F7E700BFF5E70000706100000B
:100AA000636667002DE9F0410646B0461AA140464C
:100AB00002F005FA05466DB368786138062810D251
:100AC000DFE800F0030507090B0D144C09E0144C96
:100AD00007E0144C05E0144C03E0144C01E0144C06
:100AE00000BF00BFA8783038012181408FB211A12A
:100AF000284602F0E4F905466878302803D13946E3
:100B0000204601F02FF96878312803D13946204674
:100B100001F02AF9BDE8F0817000000000080140F2
:100B2000000C014000100140001401400018014079
:100B3000001C01402C00000006E04FF47A7100BF59
:100B40000A00A1F10101FBD10200A0F10100F4D1E2
:100B50007047000070B505462E460BA1304602F0E6
:100B6000AEF904461CB12046FFF766FF70BD08A130
:100B7000304602F0A4F904461CB12046FFF724FFDA
:100B8000F4E700BFF2E70000706F7274000000002D
:100B900064656C6179000000F0B5034600201C46D6
:100BA0000D46104603E014F8016B05F8016B1600C2
:100BB000A2F10107BAB2F6D1F0BD00BFFEE70146CF
:100BC000CAB20B1243EA02207047000010B503219D
:100BD00001A000F051FC10BD43414E315F5258312D
:100BE0005F49525148616E646C65720010B5032113
:100BF00001A000F041FC10BD43414E315F5343451D
:100C00005F49525148616E646C65720010B50024F2
:100C100069E147F6FF70B9490860B948008800F0FB
:100C20000F00B84908700846007800287DD1B34805
:100C30004438006800F44050B3490880AF48443855
:100C4000006800F03000B1490880AC4944390968B7
:100C50004BF68F7201EA020080F40050A749443934
:100C60000860096848F6BF7201EA020080F02000BF
:100C7000A24944390860A248008810F0100F38D10A
:100C80000846006848F60F7108409C4944390860DE
:100C900001F0ECF99949443909684BF68F7201EA81
:100CA00002009949098811F4805F01D080F48050D6
:100CB0009549098811F4005F01D080F400508F49F4
:100CC00044390860096848F6BF7201EA02008F499A
:100CD000097811F0100F01D080F010008B490978CD
:100CE00011F0200F01D080F02000844944390860C1
:100CF00010BD82484438006884B214F0800F3BD0A5
:100D00007E484438006848F60F7108407B494439F2
:100D1000086001F0ABF97949443909684BF68F72E4
:100D200001EA02007849098800E0A3E011F4805F3D
:100D300001D080F480507449098811F4005F01D01B
:100D400080F400506D4944390860096848F6BF7264
:100D500001EA02006D49097811F0100F01D080F00E
:100D600010006A49097811F0200F01D080F02000AE
:100D7000624944390860BBE714F4006F3BD05F4818
:100D800044380068C0F30E0048F68F7108405B4994
:100D90004439086001F0F8FD5849443909684BF6B8
:100DA0008F7201EA02005849098811F4805F01D06E
:100DB00080F480505449098811F4005F01D080F418
:100DC00000504E4944390860096848F6BF7201EA8C
:100DD00002004E49097811F0100F01D080F0100088
:100DE0004A49097811F0200F01D080F020004349D2
:100DF000443908607CE714F4004F74D03F4844380D
:100E00000068C0F30E0048F68F7108403B49443932
:100E1000086001F0B5FA3949443909684BF68F7218
:100E200001EA02003849098811F4805F01D080F49A
:100E300080503549098811F4005F01D080F40050DA
:100E40002E4944390860096848F6BF7201EA020079
:100E50002E49097811F0100F01D080F010002B49B5
:100E6000097811F0200F01D080F020002349443987
:100E700008603DE7234800782049443951F82000B4
:100E800084B214F4004F15D01E48007851F82000A9
:100E9000C0F30E0048F68F7108401A490978174AC6
:100EA000443A42F8210017490978491E184A52F875
:100EB0002100804714F0800F15D0124800780F49A8
:100EC000443951F8200048F60F7108400D4909785F
:100ED0000A4A443A42F821000A490978491E0D4A53
:100EE00052F8210080470548006880B20449088014
:100EF00010F4004F7FF48DAE00BFF9E6445C004073
:100F00008C01002074010020880100208A0100204B
:100F1000BC000020A0000020084951F8201011F466
:100F2000804F0AD0054951F8201048F68F721140C1
:100F300041F48041014A42F820107047005C0040B3
:100F4000084951F8201011F0400F0AD0054951F816
:100F5000201048F68F72114041F04001014A42F8DA
:100F600020107047005C0040044951F8201048F6FA
:100F70008F621140014A42F820107047005C004027
:100F800010B5032101A000F077FA10BD444D4131A6
:100F90005F4368616E6E656C325F49525148616EA5
:100FA000646C65720000000010B5032101A000F020
:100FB00063FA10BD444D41315F4368616E6E656CEC
:100FC000335F49525148616E646C657200000000E5
:100FD00010B5032101A000F04FFA10BD444D41317E
:100FE0005F4368616E6E656C375F49525148616E50
:100FF000646C65720000000010B5032101A000F0D0
:101000003BFA10BD444D41325F4368616E6E656CC2
:10101000315F49525148616E646C65720000000096
:1010200010B5032101A000F027FA10BD444D413254
:101030005F4368616E6E656C325F49525148616E04
:10104000646C65720000000010B5032101A000F07F
:1010500013FA10BD444D41325F4368616E6E656C9A
:10106000335F49525148616E646C65720000000044
:101070002DE9F0472848006800F110052E88264821
:101080000068077AD6B9042F18D1244800780128BF
:101090000FD100212248006880B2801C214A42F80A
:1010A000101030202049088000BF00201B49087024
:1010B00003E0072710201C49088027E0AC88A642DF
:1010C00001D8042000E002200746B44200D934468B
:1010D000A0B2A96888478046002000F0A9FE81469A
:1010E000A2B24946404603F0C9FAA1B2002001F07D
:1010F00053FB2888001B28806888204468803020A3
:101100000949088000020949088000BF02490968AE
:101110000F72BDE8F0870000780100207900002000
:10112000505C0040006000408A01002088010020DF
:101130002DE9F0412848006800F110042688A068D5
:10114000C0B1BEB1A588B54200D93546A8B2A168E4
:10115000884707462088401B20806088284460809C
:10116000002000F043FE8046AAB24146384601F016
:101170002FF900BF208850B14FF440501749088024
:101180000021084601F008FB30201549088020881E
:10119000A188884204DB03200F490968087218E01F
:1011A0002088002804DD05200B490968087210E03A
:1011B000208870B90620084909680872002109488A
:1011C000006880B2801C084A42F8101030200449A0
:1011D0000880BDE8F081000078010020880100202F
:1011E0008A010020505C0040006000402DE9F84F6B
:1011F0009848006845780027BA46062D1AD19548C8
:101200000068007810F07F0F13D192490968887840
:10121000012803D190490968CF690AE0022803D167
:101220008D4909680F6A04E0032802D18A490968D8
:101230004F6A90E0002D60D1864800684088002801
:101240005BD184480068C088022856D18148006874
:101250000079002851D17F480068007810F07F0F96
:1012600005D17C480068808808B97C4F73E07948D4
:101270000068007800F07F00012810D175490968E6
:101280004879754909688A6900219047002862D128
:1012900070480068807A00285DD0704F5BE06D4830
:1012A0000068007800F07F00022854D16948006887
:1012B000407900F00F0667480068407900F0700937
:1012C00064480068407910F0800F05D0644850F8F9
:1012D000260000F0300804E0614850F8260000F4D1
:1012E000405860480078B04235D9B9F1000F32D18A
:1012F000B8F1000F2FD0594F2DE0082D07D15548D8
:101300000068007810F07F0F25D1574F23E00A2D99
:1013100021D150480068007800F07F0001281AD1E0
:101320004C480068807AB0B14A480068408890B95B
:1013300048480068007970B946480068C0880128AC
:1013400009D1444909684879434909688A690021F3
:10135000904700B9454F57B13E480068A0F812A029
:101360003C48006887610020B84700240FE0394AF4
:1013700012685078384A1268116988470446032C6D
:1013800005D10920334909680872BDE8F88F314852
:101390000068008AA0F57F41FF3904D109202D495A
:1013A00009680872F1E7022C03D02A480068008A15
:1013B00020B90820274909680872E6E7254800682F
:1013C000007810F0800F3CD022480068C088009060
:1013D00020480068008A0099884204D91D49009875
:1013E0000968088223E01B480068008A19490968D7
:1013F000C98888421BDA17480068008A16490968BC
:1014000091F82C10884203DA0020194908700EE088
:1014100010480068008A1049096891F82C1090FB68
:10142000F1F201FB120010B90120114908700A48BD
:10143000006890F82C10074800688182FFF718FEBA
:1014400006E003200349096808720003094908807F
:1014500000BF9AE7780100207C010020ED2B0008F6
:10146000005C0040E4000020712B0008C12B000844
:1014700079000020880100200FB42DE9F04186B0EA
:1014800000240125002650480078FF2801D10120C2
:1014900000E000204C4909784C4A1278914201D171
:1014A000012100E0002108437ED04FF4806000F06D
:1014B00051FE07460DA805903846059A0C9903F091
:1014C0006BFA002005900DA8059069460C9800F075
:1014D0004DFC05462AE02046611CCCB21DF80000F8
:1014E000012804D0022806D003281AD115E0059857
:1014F00040C8059019E00598C01D20F00700059030
:10150000D0E90021DDF814C00CF1080C1046CDF82C
:1015100014C0FFF75CF8064607E0059840C8059040
:1015200003E0059840C8059000BF00BF2800A5F162
:101530000105D0D1059840C80590002005902448A9
:101540000078FF2801D1012000E00020204909781F
:10155000B14201DB012100E0002108432BD03946D4
:101560001CA001F08BFC1C48007810F0020F0DD07D
:101570001A49087800F01CFA40B1384600F0CAFC5D
:10158000804642463946164802F0D4FF1248007899
:1015900010F0040F0FD01149487800F009FA50B14B
:1015A000384600F0B7FC00E008E080464246394685
:1015B0000C4802F0BFFF384600F0A6FD06B0BDE8BB
:1015C000F0015DF814FB00007400002058000020BA
:1015D000760000200D0A0000750000202800002081
:1015E00000380140004400407047000010B5002062
:1015F0001A4908704FF4A07000F0ACFD184908605B
:10160000002406E0FF201749085517490855601CBB
:10161000C4B2052CF6DB00241DE000201049096847
:1016200001EB4411486103200D49096801EB4411A5
:10163000087200200A49096801EB44110861084951
:10164000096801EB4411C8600549096801EB4411C0
:101650008861601CC4B20A2CDFDB10BD680000206A
:101660006C000020280000202D0000202C49097863
:101670002C4A11702A490978491C294A11702949B4
:101680000978294A1268274B1B7802EB4312117123
:1016900026A1254A1268234B1B7802EB43121160E6
:1016A0000021214A12681F4B1B7802EB4312517133
:1016B00002221D4909681B4B1B7801EB4311CA71BB
:1016C000012219490968174B1B7801EB43110A7273
:1016D0001749154A1268134B1B7802EB43125161EC
:1016E000114909680F4A127801EB4211C8610022C2
:1016F0000D4909680B4B1B7801EB4311CA600021AF
:10170000094A1268074B1B7802EB43121161002251
:1017100005490968034B1B7801EB43118A61704747
:1017200068000020780000206C000020494F000075
:10173000511C000870B50546284602F0A7FD044676
:101740005F48005DFF2808D15E4800785C49085575
:101750005C480078401C5B4908705BA05849095DF3
:101760005B4A126802EB4111086000205449095D90
:10177000574A126802EB4111487101205049095D36
:10178000534A126802EB4111C87103204C49095DAC
:101790004F4A126802EB411108724E484849095DF0
:1017A0004B4A126802EB411148614548005D4849C7
:1017B000096801EB4010C46147494148005D444A53
:1017C000126802EB4010C16044483D49095D404A3F
:1017D000126802EB4111086100213948005D3C4A62
:1017E000126802EB4010816100203D4921F814008D
:1017F0004FF4967000F0AEFC3A4941F824002846B8
:1018000002F044FD04463848005DFF2808D12D4809
:101810000078354908552B480078401C2949087044
:1018200032A03149095D2A4A126802EB4111086071
:1018300000202D49095D264A126802EB41114871CA
:1018400001212948005D224A126802EB4010C17153
:1018500003202549095D1E4A126802EB41110872F6
:101860001C492148005D1A4A126802EB4010416190
:101870001D48005D1649096801EB4010C461164817
:101880001949095D124A126802EB4111C8601348F8
:101890001549095D0E4A126802EB411108610020EA
:1018A0001149095D0A4A126802EB411188614FF43F
:1018B000967000F04FFC0F4941F8240070BD000005
:1018C0002D0000206800002055534152527800003E
:1018D0006C00002051400008154500083544000800
:1018E000BC010020940100202800002055534152E3
:1018F00054780000A801002010B5032124A0FFF7B0
:10190000BBFD002441E02948006800EB4410406919
:10191000C8B32648006800EB4410C079012806D0FF
:10192000022817D003280ED004282BD11EE01F4A0E
:10193000126802EB4412107F1C4A126802EB441238
:10194000516988471EE01949096801EB441148694B
:10195000804717E0154A126802EB4412D069134A17
:10196000126802EB4412516988470BE00F4A126873
:1019700002EB4412D0690D4A126802EB441251691D
:10198000884700BF00BF601CC4B20A2CBBDB10BD7F
:10199000546F732044657669636520496E69742EBF
:1019A0002E2E2E2E2E2E2E2E2E0000006C0000200D
:1019B0000146FF2901D1002070470548006800EB6F
:1019C0004110406908B90020F6E70120F4E7000063
:1019D0006C0000200020014908607047980000203A
:1019E00000B5032000F012FA0649086008460068B6
:1019F00082B24FF48871044800F0EAFC032000F042
:101A0000A9FE00BD94000020909E0020012000F05F
:101A100055F800F063FB000010B5032101A0FFF7AB
:101A20002BFD10BD4558544931355F31305F495267
:101A30005148616E646C65720000000010B50321AE
:101A400001A0FFF719FD10BD45585449325F4952B6
:101A50005148616E646C65720000000010B503218E
:101A600001A0FFF709FD10BD45585449335F4952A5
:101A70005148616E646C65720000000010B503216E
:101A800001A0FFF7F9FC10BD45585449345F495295
:101A90005148616E646C65720000000010B503214E
:101AA00001A0FFF7E9FC10BD45585449395F355F87
:101AB00049525148616E646C6572000001490860CA
:101AC000704700001404014010B5032101A0FFF786
:101AD000D3FC10BD464C4153485F49525148616E9A
:101AE000646C65720000000010B5032101A0FFF7CF
:101AF000C3FC10BD46534D435F49525148616E646B
:101B00006C65720070B504460025107820B1167817
:101B10002068B0FBF6F085B2206808442060107899
:101B2000984203DA1078401C107002E02068401BD5
:101B3000206016782068B0FBF6F080B270BD2DE909
:101B4000F041024600250026002000230024002743
:101B500091F803C00CF00F0591F803C01CF0100FB2
:101B600003D091F802C04CEA050591F800C0BCF121
:101B7000000F31D0146800202BE04FF0010C0CFA5C
:101B800000F3B1F800C00CEA03069E4220D18300A6
:101B90004FF00F0C0CFA03F7BC4305FA03FC4CEAB8
:101BA000040491F803C0BCF1280F06D14FF0010CDA
:101BB0000CFA00FCC2F814C00AE091F803C0BCF1B2
:101BC000480F05D14FF0010C0CFA00FCC2F810C010
:101BD000401C0828D1D31460B1F800C0BCF1FF0F3D
:101BE00034DD546800202EE000F1080C4FF00108AD
:101BF00008FA0CF3B1F800C00CEA03069E4221D1AA
:101C000083004FF00F0C0CFA03F7BC4305FA03FCFA
:101C10004CEA040491F803C0BCF1280F05D100F18F
:101C2000080C08FA0CF8C2F8148091F803C0BCF153
:101C3000480F07D100F1080C4FF0010808FA0CF822
:101C4000C2F81080401C0828CED35460BDE8F08153
:101C500038B5044636E01D4A6068811A904217D0B4
:101C600009DC1B4940180DD0B0F5806F0CD0B0F5E1
:101C7000006F13D10AE0B1F5806F0BD0B1F5006FA2
:101C80000CD109E0042509E0082507E0102505E04E
:101C9000202503E0402501E0802500BF00BF45F07E
:101CA0000100012100F00CFC20788DF80200208951
:101CB000ADF8000060788DF8030069466068FFF7B2
:101CC0003EFF0C3420780028C5D138BD00140140F7
:101CD00000F8FEBFF0B50A460023002400210025CD
:101CE00000F00046B6F1004F02D11D4EF16901E04F
:101CF0001B4E7168C0F3034583B200F44016B6F57D
:101D0000401F08D121F07061154E766826F070668C
:101D1000134F7E6012E000F48016B6F5801F06D1E6
:101D2000032606FA05F4A14341F0706106E0460D72
:101D3000360103FA06F6B14341F0706122B1460D57
:101D4000360103FA06F6314300F00046B6F1004FC3
:101D500002D1034EF16101E0014E7160F0BD00005F
:101D6000000001404161704701617047F0B50446D1
:101D70000A46002300200025214633E00E78252E58
:101D800002D10125461CB0B2012D2AD10E78642E55
:101D900006D1AC461E465F1CBBB202F806C0002549
:101DA0000E78662E07D14FF0020C1E465F1CBBB2A8
:101DB00002F806C000250E78732E07D14FF0030CF1
:101DC0001E465F1CBBB202F806C000250E78632ECB
:101DD00007D14FF0040C1E465F1CBBB202F806C0D0
:101DE0000025491C0E78002EC8D1F0BD01460548DB
:101DF000006880B200EBC100001D034A32F81000F9
:101E000080B27047505C00400060004001460648C8
:101E1000006880B200EBC100801D044A32F8100057
:101E2000C0F3090070470000505C004000600040B3
:101E300001460548006880B200EBC100034A32F851
:101E4000100080B270470000505C0040006000400D
:101E50002DE9FC5F05460026B346B1464FF07E5A99
:101E600044E015F8014B2D2C01D101263EE02E2C2B
:101E700002D14FF0010B39E0302C2EDB392C2CDC59
:101E8000BBF1000F0ED11F494846FEF7C5F9814648
:101E9000A4F13000FEF77EFB07464946FEF764F9E1
:101EA000814623E05046FEF7B1FB0746164A174B22
:101EB000FEF78FFACDE90001FEF7BBFB8246A4F1E5
:101EC0003000FEF767FB80465146FEF7A5F907464E
:101ED0004946FEF749F9814608E026B10C494846D3
:101EE000FEF79AF981464846BDE8FC9F287800280D
:101EF000B7DC26B106494846FEF78EF981464846CA
:101F0000F2E70000000020419A9999999999B93F08
:101F1000000080BF10B5014600200A4601E0431CC6
:101F200098B212F8014B002CF9D110BD10B5114B2D
:101F300018681B1D19681B1D1A684FF0FF300146F9
:101F40000246A8B10C4CA070030A2371030CA371C4
:101F5000030E2372A1720B0A23730B0CA3730B0ED7
:101F60002374A274130A2375130CA375130E23761E
:101F700010BD0000E8F7FF1F7A00002001E000F02C
:101F8000ADF8FCE710B5032101A0FFF775FA10BD0D
:101F9000493243315F45525F49525148616E646C2A
:101FA0006572000010B5032101A0FFF765FA10BDAE
:101FB000493243315F45565F49525148616E646C06
:101FC0006572000010B5032101A0FFF755FA10BD9E
:101FD000493243325F45525F49525148616E646CE9
:101FE0006572000010B5032101A0FFF745FA10BD8E
:101FF000493243325F45565F49525148616E646CC5
:102000006572000010B545F2555000F029F8062021
:1020100000F01AF84FF47F6000F01CF800F00CF8A4
:1020200000F002F810BD00004CF6CC4001490860F9
:1020300070470000003000404AF6AA2001490860BD
:1020400070470000003000400149486070470000C0
:1020500000300040014988607047000000300040B7
:1020600001490860704700000030004010B5184872
:102070000068047A022C01D0042C05D1FEF7F8FF89
:1020800013480068047A1CE0062C19D11048006837
:10209000407805280ED10E480068007810F07F0FB8
:1020A00008D10B490968C87800F0E4FA09490968C1
:1020B000086A80470849096888688047082400E062
:1020C0000824034909680C7200F0A6F910BD00004D
:1020D00078010020840100207C01002071B600BF3F
:1020E0000648006800F4E06005490843001D034904
:1020F0000860BFF3408F00BF00BFFEE70CED00E0BB
:102100000000FA0500BFFEE702460A4B18680021EE
:1021100006E0A2F10803834200D107E0014600680F
:102120000368002BF5D101B10B60704703680B60A9
:1021300000BFFAE770000020054908600021044A4A
:10214000126811600821024A12685160704700004D
:102150007000002010B503461048016803F1080024
:1021600083B20FE00868401A4C68001B984208D3FD
:10217000486842185360086810600A6002F108005D
:1021800010BD096808680028ECD148684218002092
:10219000106053600A6002F10800F1E7700000204F
:1021A0007047704770B5002100230F22C4780CB32C
:1021B000164C246804F4E064C4F5E064210AC1F11B
:1021C0000403CA40447804FA03F18478144021439C
:1021D00009010F4C0678A155047804F01F0501246D
:1021E000AC4005786D114FF0E02606EB8505C5F88B
:1021F000004109E0047804F01F050124AC40054DBE
:102200000678761145F8264070BD00000CED00E020
:1022100000E400E080E100E002490143024A11606D
:10222000704700000000FA050CED00E0024A0A4089
:102230000243024B1A60704780FFFF1F08ED00E069
:1022400070B502264948006844784848006800781C
:1022500010F07F0F4AD1092C03D100F03BFD064658
:1022600065E0052C14D141480068C0787F280BDC5C
:102270003E480068807838B93C480068808818B9C2
:102280003A480068807A08B108256BE000264EE0E5
:10229000032C14D135480068C07801280DD133488B
:1022A0000068808848B931480068407A10F0200FF3
:1022B00003D000F033FD064639E0022637E0012C5A
:1022C00035D12A480068C07801280DD12748006818
:1022D000808848B925480068407A10F0200F03D064
:1022E00000F0AAFB064622E0022620E01F48006814
:1022F000007800F07F00012805D10B2C17D100F0E9
:1023000075FD064613E019480068007800F07F006C
:1023100002280BD1012C03D100F08EFB064606E00B
:10232000032C04D100F00EFD064600E002264EB15B
:10233000E0B20F4A1268516988470646032E01D160
:1023400009250FE00EB108250CE0062500210948FB
:10235000006880B2801C084A42F8101030200749FB
:10236000088000BF014909680D7270BD7801002026
:102370007C010020505C0040006000408A01002089
:1023800010B511480068047A032C01D0052C05D142
:10239000FEF7CEFE0C480068047A0EE0072C05D14B
:1023A0000A490968C8688047082406E0022C01D061
:1023B000042C01D1082400E00824034909680C72A8
:1023C00000F02AF810BD0000780100207C010020F8
:1023D000F0B5561C7510074E06EB41042B4605E080
:1023E00034F8047B20F8017B401C5B1E002BF7D1E6
:1023F000F0BD00000060004010B5032101A0FFF710
:102400003BF810BD5056445F49525148616E646CB0
:10241000657200007047000000B50D4890F82C1060
:10242000002000F059F90B480068007A082805D10F
:1024300040020949088010200849088005480068C2
:10244000007A092801D1012000BD0020FCE700002E
:10245000E800002078010020880100208A01002087
:1024600010B5012002F07CF801240B480460002024
:102470000A49088008460088074908600020091DAD
:1024800008604FF4E050054908800846008802497A
:102490000860002010BD0000405C00408201002068
:1024A00029B1064AD2690243044BDA6104E0034AC7
:1024B000D2698243014BDA6170470000001002408C
:1024C00029B1064A92690243044B9A6104E0034A27
:1024D00092698243014B9A617047000000100240EC
:1024E00030B500210022002400232D4D6D6805F039
:1024F0000C0121B1042905D0082923D105E0294D7B
:10250000056022E0274D05601FE0254D6D6805F44C
:102510007012234D6D6805F48034022505EB92425C
:102520001CB9214D554305600BE01D4D6D6815F438
:10253000003F03D01C4D5543056002E0194D554343
:10254000056002E0174D056000BF00BF144D6D68C7
:1025500005F0F0010909154D6B5C0568DD4045602B
:102560000F4D6D6805F4E061090A104D6B5C45681C
:10257000DD4085600A4D6D6805F46051C90A0B4D58
:102580006B5C4568DD40C560054D6D6805F44041F4
:10259000890B074D6B5CC568B5FBF3F5056130BD74
:1025A0000010024000127A0000093D0000000020E7
:1025B0001000002010B5032101A0FEF75DFF10BD43
:1025C0005243435F49525148616E646C657200002A
:1025D0000149086070470000D800424210B503214D
:1025E00001A0FEF749FF10BD525443416C61726D6A
:1025F0005F49525148616E646C65720010B50121EB
:102600000148FFF767FB10BD0002300010B5032141
:1026100001A0FEF731FF10BD535049315F495251BF
:1026200048616E646C65720010B5032101A0FEF76D
:1026300023FF10BD535049325F49525148616E64C7
:102640006C65720010B5032101A0FEF715FF10BDE7
:10265000535049335F49525148616E646C65720052
:10266000704700004FF6F8710140014A1160704751
:10267000505C004030B501460C4B1A7800200DE04C
:10268000C3B20B4C54F8233048F68F742340C4B2C5
:102690002343C4B2064D45F82430401C9042EFD38A
:1026A00041F08003024C4C34236030BDE400002034
:1026B000005C004010B54A105300054A126892B2FF
:1026C00002EBC002121D034C44F8123010BD000092
:1026D000505C00400060004010B502460F480068A2
:1026E00080B200EBC200801D0D4C04EB40033E297C
:1026F0000BDD481111F01F0F01D1441EA0B24FF4A1
:10270000004444EA80241C6007E0481011F0010FE7
:1027100001D0441CA0B284021C6010BD505C00407B
:102720000060004010B50A4B53F820304BF68F7410
:1027300003EA040211F4805F01D082F4805211F4A4
:10274000005F01D082F40052014B43F8202010BDFD
:10275000005C0040074A52F820204BF68F7302EAD3
:10276000030181F4805181F40051024A42F82010A3
:1027700070470000005C004010B54A105300044A46
:10278000126892B202EBC002024C44F8123010BD43
:10279000505C004000600040044A126892B202EBB4
:1027A000C002921C024B43F812107047505C00406C
:1027B0000060004010B50A4B53F8203048F6BF7453
:1027C00003EA040211F0100F01D082F0100211F0A0
:1027D000200F01D082F02002014B43F8202010BDD1
:1027E000005C0040074A52F8202048F6BF7302EA16
:1027F000030181F0100181F02001024A42F820100B
:1028000070470000005C0040054A52F8202048F65E
:102810008F131A400A43024B43F8202070470000F0
:10282000005C004010B500F001F810BD0CB50020B0
:10283000019000903248006840F4803030490860D0
:1028400000BF2F48006800F4003000900198401C41
:102850000190009818B90198B0F5A06FF1D12848FF
:10286000006810F4003F02D00120009001E0002039
:1028700000900098012842D12248006840F01000E2
:10288000204908600846006820F0030008600846F8
:10289000006840F002000860194840681849486024
:1028A0000846406848600846406840F480604860D8
:1028B0000846406820F47C1048600846406840F4B0
:1028C000E81048600846006840F08070086000BF6B
:1028D0000B48006810F0007FFAD00948406820F0EB
:1028E0000300074948600846406840F0020048601D
:1028F00000BF0348406800F00C000828F9D10CBD67
:10290000001002400020024008B500F0F5FA012155
:1029100044F22400FFF7D4FD01210420FFF7D0FD8D
:102920004FF48070ADF8000003208DF802001420F1
:102930008DF8030069460E48FFF701F94FF48060F7
:10294000ADF8000004208DF8030069460848FFF741
:10295000F6F84FF40070ADF8000003208DF8020087
:1029600018208DF8030069460148FFF7E8F808BD14
:102970000008014010B50020FFF72AFE0121C8051C
:10298000FFF78EFD10BD000008B52848006880B232
:10299000001D274931F8100080B201EB4000009083
:1029A00024480068007A09282FD00098007821492F
:1029B000096808700098401C0090009800781D4934
:1029C000096848700098401C00900098801C009096
:1029D000009931F8020B0091FEF7F1F815490968EA
:1029E00048800098801C0090009931F8020B0091FB
:1029F000FEF7E5F80F49096888800098801C009070
:102A0000009800880B490968C880012009490968B5
:102A1000087208480068C08810B9FFF711FC01E08F
:102A2000FEF7E4FBFFF7F8FC08BD0000505C004037
:102A300000600040780100202DE9F0474748006819
:102A4000007800F07F08B8F1000F0AD14348006811
:102A5000407A00F0DF004149096848720020BDE873
:102A6000F087B8F1020F76D13C480068408818B969
:102A70003A480068007908B10220F0E7DFF8E090FA
:102A800036480068477927F080052C4633480068AF
:102A9000407910F0800F05D0324850F8240000F043
:102AA000300604E02F4850F8240000F4405699F80E
:102AB0000000A84204D91EB128480068807A08B9ED
:102AC0000220CCE717F0800F0ED0264850F82400E3
:102AD00000F03000102837D1E0B2FEF731FAE0B252
:102AE0003021FFF767FE2FE01E4850F8240000F465
:102AF0004050B0F5805F27D1A4B91B4A92F82C1042
:102B0000E0B2FFF7E9FD174951F824104BF68F7238
:102B100001EA020080F4805080F40050114941F82D
:102B2000240011E0E0B2FEF7F7F90E4951F8241045
:102B30004BF68F7201EA020080F4805080F400505E
:102B4000084941F8240000BF0849096848698047DE
:102B5000002084E7FFE700BF022080E77801002023
:102B6000E4000020005C0040E80000208401002018
:102B700010B504462CB901200649096808820020D6
:102B800010BD0549096808688047024800680A3096
:102B9000F6E70000780100208401002010B502460D
:102BA00006480068438A32B98888C01A034C2468F2
:102BB0002082002010BD08681844FBE7780100203F
:102BC00010B504462CB90120064909680882002086
:102BD00010BD0549096888688047024800680C30C4
:102BE000F6E70000780100208401002010B50446BB
:102BF0002CB90220334909680882002010BD00204A
:102C0000314908802F480068007810F07F0F1CD1F0
:102C10002C490968487A10F0200F05D02A49097814
:102C200041F00201284A117010F0400F06D02649E9
:102C3000097801F0FE01244A117005E02249097863
:102C400041F00101204A117036E01E48006800780A
:102C500000F07F00012801D11B48CFE71948006828
:102C6000007800F07F00022824D1164A12685179BA
:102C700001F00F0011F0800F0DD0144A52F82020FF
:102C800002F03002102A14D10F4A127842F00102E9
:102C90000D4B1A700DE00D4A52F8202002F44052FC
:102CA000B2F5805F05D1084A127842F00102064B66
:102CB0001A7001E00020A1E705490968086980470A
:102CC00001489BE77801002072010020005C004071
:102CD0008401002010B50E480068C0780D4949787D
:102CE000884213DC0A480068807878B90848006890
:102CF000808858B906480068C07805490968887214
:102D00000549096848688047002010BD0220FCE79B
:102D100078010020E40000208401002010B507485D
:102D20000068407A40F0200004490968487204496C
:102D30000968C8698047002010BD000078010020A4
:102D4000840100202DE9F04124480068467926F0EE
:102D500080073C4621480068407910F0800F05D07C
:102D60001F4850F8240000F0300504E01C4850F8DB
:102D7000240000F440551B480078A04208D91748A9
:102D80000068408820B91DB114480068807A10B9E5
:102D90000220BDE8F08116F0800F0CD0104951F8E8
:102DA000241048F6BF7201EA020080F010000C49BE
:102DB00041F824000CE00A4951F824104BF68F72B8
:102DC00001EA020080F48050054941F8240000BF68
:102DD00005490968886980470020DAE77801002002
:102DE000005C0040E40000208401002010B5174B77
:102DF0001B68D978154B1B685879154B1B689A6965
:102E00009047044611480068807AE8B13CB90F4801
:102E10000068007918B90D480068807808B1022070
:102E200010BD8CB90B490968C8688047074800681D
:102E3000407906490968C87204480068C0780349A7
:102E4000096808730020EBE70220E9E77801002019
:102E50007C0100208401002030B503460C46002090
:102E60001946224605E011F8015B02F8015B451C9A
:102E7000A8B20D78002DF6D1157030BD2DE9F041C6
:102E800006460D462C4637462846FFF743F80444CD
:102E90003046FFF73FF8804618F1010001D1BDE848
:102EA000F08103E017F8010B04F8010B5FEA08005A
:102EB000A8F10108F6D104F8010B00BFEFE710B547
:102EC0000246087888B10CE0002305E0C818407875
:102ED00008B9104610BD5B1CD05CCC5CA042F5D09C
:102EE000521C10780028EFD1F4E71046F2E710B535
:102EF00000F03AFB10BD000010B51348006840F028
:102F000001001149086008464068104908400E4910
:102F10004860084600680E4908400B4908600846AA
:102F2000006820F4802008600846406820F4FE0015
:102F300048604FF41F008860FFF774FC4FF000609A
:102F40000449086010BD0000001002400000FFF8B6
:102F5000FFFFF6FE08ED00E010B5032101A0FEF72B
:102F60008BFA10BD54414D5045525F495251486152
:102F70006E646C657200000010B5032101A0FEF7BD
:102F80007BFA10BD54494D315F42524B5F4952515B
:102F900048616E646C65720010B5032101A0FEF7F4
:102FA0006BFA10BD54494D315F43435F495251485C
:102FB000616E646C6572000010B5032101A0FEF71C
:102FC0005BFA10BD54494D315F5452475F434F4D3A
:102FD0005F49525148616E646C65720010B50321FF
:102FE00001A0FEF749FA10BD54494D315F55505FBD
:102FF00049525148616E646C6572000010B503213E
:1030000001A0FEF739FA10BD54494D345F495251C1
:1030100048616E646C65720010B5032101A0FEF773
:103020002BFA10BD54494D355F49525148616E64C9
:103030006C65720010B5032101A0FEF71DFA10BDEA
:1030400054494D375F49525148616E646C65720056
:1030500010B5032101A0FEF70FFA10BD54494D38F9
:103060005F42524B5F49525148616E646C65720019
:1030700010B5032101A0FEF7FFF910BD54494D38EA
:103080005F43435F49525148616E646C6572000052
:1030900010B5032101A0FEF7EFF910BD54494D38DA
:1030A0005F5452475F434F4D5F49525148616E64D0
:1030B0006C65720010B5032101A0FEF7DDF910BDAB
:1030C00054494D385F55505F49525148616E646CA8
:1030D00065720000FFF792FA01211A48FEF742FEDE
:1030E00002211848FEF73EFE04211648FEF73AFE7C
:1030F00008211448FEF736FE642000F031FB012160
:103100001048FEF731FE02210E48FEF72DFE042185
:103110000C48FEF729FE08210A48FEF725FE10E0BC
:103120004FF47A7000F01CFB4FF400410648FEF7A4
:1031300019FE012000F014FB4FF400410248FEF795
:1031400013FEEDE70010014000080140FFF7DCFB33
:10315000FFF710FC01F034FA01F014FA14E04FF418
:103160007A7000F0FDFA094804680BE0201DFEF7B4
:10317000D1FE05462946201D01F0ECFB201DFDF780
:10318000E9FC2468002CF1D1E9E70000900100205F
:10319000FFF7BAFBFFF7EEFB01F012FA01F0F2F9CC
:1031A00028A12A48006800F0CBF829A12748006828
:1031B00000F0C6F82BA12548006800F0C1F82EA148
:1031C0002248006800F0BCF82DA12048006800F0FB
:1031D000B7F82CA11D48006800F0B2F82DA11B48DB
:1031E000006800F0ADF827A11848006800F0A8F8C2
:1031F0002DA11648006800F0A3F830A1134800681C
:1032000000F09EF81CE02E480068B0B12D48006820
:10321000052812D12A48006882B2C0212A4801F04C
:103220002DFA2748006881B20120FFF7B5FA012086
:10323000FFF7D8FA002022490860642000F090FAD5
:10324000E1E700007461736B310A00009001002017
:10325000706F72742E636667287061302C6F75749E
:10326000290A0000706F72742E63666728706131DE
:103270002C6F7574290A00006C6F6F700A000000D3
:103280007B0A00002064656C61792E6D732E3130ED
:1032900030300A0020706F72742E7365742870636A
:1032A000302C30290A00000020706F72742E736574
:1032B00074287063302C31290A0000007D0A000058
:1032C000940000206C010020909E0020B2B00025E8
:1032D0000AE005EB4500694601EB80001EA901EB01
:1032E000C5014860681CC5B20A2DF2DB0A211EA880
:1032F00000F006FA10480078104908701BE00A2018
:1033000000F02EFA00F0C2FA0646A6B174682079E1
:10331000012804D0022805D003280BD106E020683C
:10332000804707E0207A2168884703E02168A06889
:10333000884700BF00BFE2E7580000207700002068
:103340002DE9F04105460E462C463046FEF7E2FDDB
:10335000C7B21348006878B9781DFEF7FBFE104924
:1033600008600020096808600D480168091D3046A2
:10337000FFF772FDBDE8F08100E0246820680028B6
:10338000FBD1781DFEF7E6FE20602068011D304667
:10339000FFF762FD00202168086000BFEAE7000037
:1033A0009001002010B510480078132804D00F4871
:1033B0000078401C0D4908700D480078401C0C49ED
:1033C00008700846007864280DDD0020087014237A
:1033D000084A064801780848FEF794FB0749087038
:1033E00000200249087010BD580000204400002051
:1033F0003C0000203D000020400000205000002044
:1034000010B54FF47070FEF7A5FE22490860022047
:103410002149487000204860002428E0012004EB86
:1034200044011C4A126802EB01110881002004EBE0
:103430004401184A126802EB01118861002104EB73
:103440004400144A126802EB00100160002004EBF3
:103450004401104A126802EB0111C86104EB4401F7
:103460000C4A126802EB01110884601CC4B2142CCF
:10347000D4DB132009490870002009490860094974
:103480008873094BFF224FF47A71064800F0F0FB75
:1034900010BD0000600000205000002058000020F7
:1034A00064000020D0010020593D000870B504469A
:1034B000FFF7A6FF04E094E80F0000F0EFF81034E7
:1034C00020680028F7D100F00FF870BDFEF714FA5D
:1034D000FEF798FD06E0FEF7AFFD642000F040F92E
:1034E00000F010FCF7E7000038B51849B1F1807F13
:1034F00000D31DE021F07F40401E4FF0E0225061DC
:1035000050170F22002807DA13071D0E104B00F08A
:103510000F04241F1D5503E013071C0E0D4B1C54F4
:1035200000BF00204FF0E02290610720106100BF33
:103530004FF4FA6008A300220A490090132000F01B
:1035400045F8132000F09AFA38BD00004019010038
:1035500018ED00E000E400E05461736B526F6F748B
:1035600000000000CD34000810B5FFF71BFF00F08D
:10357000C3F90D484078402805D103210BA0FDF781
:103580007BFFFEF7ABFD10488089401C0E49888107
:10359000084680890989884205DD0B49086980470A
:1035A00000200949888110BD500000205461736BD0
:1035B0002054696D654F75742057696C6C20544FA9
:1035C0005320526573657400D00100202DE9F04747
:1035D00004460D4691461F46DDF820800DB9BDE832
:1035E000F08704EB44002C49096801EB00100089C6
:1035F000012800D0F3E704EB44002749096801EBF8
:103600000010008C98B91FFA88F0FEF7A3FD06465B
:1036100004EB4401204A126802EB0111A1F820805A
:1036200004EB44011C4A126802EB0111CE6104EB69
:103630004402194B1B6803EB0212118C04EB440289
:10364000154B1B6803EB0212D06900F0DDFA8246CD
:10365000022104EB4400104A126802EB00100181C1
:1036600004EB44000C49096801EB0010456004EBD1
:1036700044000949096801EB0010C7624A4629461F
:10368000504600F0C3F904EB4401034A126802EB10
:103690000111086000BFA2E7600000202DE9F84397
:1036A00005460E461746984600241AE004EB4400EF
:1036B0001249096801EB0010008900B912E004EB1F
:1036C00044000E49096801EB00100089012800D16F
:1036D00008E0601C80B20446142802DB0020BDE82C
:1036E000F883E3E700BFE0B23B4632462946CDF817
:1036F0000080FFF76BFF0120F1E700006000002071
:1037000010B5154A127802EB4202144B1B6803EB0A
:1037100002129062104A127802EB42020F4B1B68B1
:1037200003EB021282F8231000220B4B1B7803EBF1
:1037300043030A4C246804EB031383F8242000237A
:10374000054A127802EB4202044C246804EB021290
:1037500082F8253010BD00005800002060000020D5
:1037600010B504461348407801281FD000201249A4
:10377000097801EB4101114A126802EB01118861DD
:103780000D48007800EB40000C49096801EB00107F
:10379000446110210848007800EB4000074A126895
:1037A00002EB0010018100F0DFF902E02046FDF796
:1037B000C3F910BD50000020580000206000002018
:1037C00001460D48006800EB4110007A08B900205E
:1037D00070470948006800EB41104079074A1278A9
:1037E000904201D00020F3E70120034A126802EB67
:1037F0004112107200BFEBE76C000020580000205F
:1038000070B504460D4600BF1E48006800EB44102A
:10381000007A30B1012815D0022804D003282FD116
:103820001FE0002070BD1748006800EB441040798D
:1038300015490978884201D10120F3E7204600F0BC
:10384000B3FAE1E702200F49096801EB441108725D
:103850000D4800780B49096801EB441148710120BB
:10386000E0E702200749096801EB441108720648A5
:1038700000780449096801EB441148710120D1E73F
:103880000020CFE76C0000205800002070B51848D9
:10389000007800EB40001749096801EB0014A06AAA
:1038A00008B9002070BD94F8250018B910480078B8
:1038B00000F0F6F894F8250008B90020F2E704F1CA
:1038C0002304D4F80500617800EBC105607800F1AD
:1038D0000100217890FBF1F201FB12006070A078EA
:1038E000A0F10100A070A4F123042846DAE700004B
:1038F0005800002060000020002056E000EB40014E
:103900002B4A126802EB01110989022902D0102901
:1039100047D11DE000EB4001254A126802EB01117E
:103920008969491C00EB4002214B1B6803EB021222
:10393000916100EB40011E4A126802EB0111896996
:1039400044F62062914202D940211A4A517029E07E
:10395000002100EB4002164B1B6803EB0212916141
:1039600000EB4001124A126802EB0111496941B9AA
:10397000022100EB40020E4B1B6803EB0212118187
:103980000EE000EB40010A4A126802EB011149699E
:10399000491E00EB4002064B1B6803EB021251610B
:1039A00000E000BF00BF411CC8B21428A6DB70476E
:1039B000600000205000002010B504460F48007839
:1039C000A04200D110BD0D48007800EB40000C492A
:1039D000096801EB00100B49086008480470007882
:1039E00000EB40000649096801EB00100068064939
:1039F0000860FCF7B3FF00BFE4E7000058000020B8
:103A0000600000204C0000204800002030B5034634
:103A10001846041F20462160041F2046236000250D
:103A2000041F20462560041F20462560041F2046F1
:103A30002560041F20462560041F20462560041FC2
:103A400020462560041F20462560041F204625606F
:103A5000041F20462560041F20462560041F2046C1
:103A60002560041F20462560041F204622604FF079
:103A70008075041F2046256030BD000010B5044647
:103A800004EB44000449096801EB00100068034995
:103A90000860FCF77CFF10BD60000020480000209B
:103AA00010B50446142C00DB10BD04EB44000E4995
:103AB000096801EB00100089012800D1F4E7042017
:103AC00004EB4401084A126802EB0111088100214D
:103AD00004EB4400044A126802EB0010416100F05C
:103AE00043F800BFE0E700006000002010B5044686
:103AF000142C01DB002010BD04EB440019490968B7
:103B000001EB00100089012801D10020F3E704EB4C
:103B100044001449096801EB00100089042801D110
:103B20000020E8E704EB44000E49096801EB0010AF
:103B30000089082801D10020DDE7082004EB4401BA
:103B4000084A126802EB01110881002004EB4401CD
:103B5000044A126802EB0111486100F005F80120E7
:103B6000C9E700006000002010B50221234800686A
:103B7000A0F8981300243DE004EB44001F490968B5
:103B800001EB00100089022802D020282ED107E086
:103B90001B480078A04202D02046FFF70DFF10BD61
:103BA00004EB44001549096801EB001090F822006D
:103BB0001449096801EB4010007A012815D1102042
:103BC00004EB44010D4A126802EB01110881032045
:103BD00004EB4401094A126802EB011191F822102A
:103BE000084A126802EB4111087200E000BF00BFF2
:103BF000601CC4B2142CBFDB00BFD0E76000002003
:103C0000580000206C0000200246501820F00303EA
:103C1000A3F1300020F007007047000010B5142811
:103C200000DB10BD00EB4002104B1B6803EB0212DF
:103C30001289042A00D1F4E7002200EB40030B4C68
:103C4000246804EB03139A61102300EB4002074C35
:103C5000246804EB0212138100EB4002034B1B6843
:103C600003EB0212516100BFDBE70000600000209F
:103C700070B504460D46164601221449887B00287B
:103C800016DD0AE04968002A07DD0878904202D074
:103C90002270002201E0501CC2B248680028F1D115
:103CA000002A00DD22700A480078A0734C6005E00D
:103CB0000C460020207006480078A073258166819C
:103CC0000020A08123616060207870BDD0010020B9
:103CD0005800002002460A490CE0486800789042EB
:103CE00007D100204B6858814868406848601046FA
:103CF0007047496848680028EFD100BFF8E7000026
:103D0000D001002010B5134C1FE06068807B10F0DC
:103D1000400F19D06068807B10F0800F12D061686E
:103D2000086980476068807B20F080006168887344
:103D30006068408920B961680878FFF7CBFF04E02C
:103D4000646802E0646800E0646860680028DCD1B0
:103D500010BD0000D001002012481EE04068817BA9
:103D600011F0400F19D04189002916DD818902899F
:103D7000914203DA8189491C81810EE04189FF2942
:103D800002DA4189491E41814189002901DD002172
:103D90008181817B41F08001817341680029DDD1FF
:103DA00070470000D001002010B504460B48007891
:103DB00000EB40000A49096801EB001080F822403E
:103DC00020200649097801EB4101054A126802EBFF
:103DD00001110881FFF7C8FE10BD00005800002047
:103DE0006000002010B540F225510E4800F023FA83
:103DF000B8B10C48001D0088C4B20B4800880B49BC
:103E0000098888420DDA084801880088401C064A63
:103E10001080074800684454064908780A21FFF7D3
:103E2000FDFE10BD00380140C6010020BC0100208D
:103E3000940100203700002010B540F225511148B0
:103E400000F0F9F9C0B10F48001D0088C4B20E4857
:103E500040880E494988884213DA0B4841884088D7
:103E6000401C094A50800A4840684454094948782F
:103E70000A21FFF7D3FE04E040F22551014800F08B
:103E800044F810BD00440040C6010020BC010020E1
:103E9000940100203700002010B540F22551114850
:103EA00000F0C9F9C0B10F48001D0088C4B20E4827
:103EB00080880E498988884213DA0B488188808877
:103EC000401C094A90800A4880684454094988780F
:103ED0000A21FFF7A3FE04E040F22551014800F05B
:103EE00014F810BD00480040C6010020BC010020AD
:103EF000940100203700002001F40072B2F5007F29
:103F000000D100BFCA430280704710B500220023D1
:103F1000A1F510646A3C00D100BF0A12012494404C
:103F2000A3B2DC43048010BD21B1828942F4005267
:103F3000828104E082894DF6FF731A4082817047C6
:103F400010B53148007920B1012806D002280ED1E1
:103F500008E000202D49C8800DE04FF440502B4967
:103F6000C88008E04FF400502849C88003E000F002
:103F700051F8002010BD00BF2348407920B101282E
:103F800006D002280ED108E00020204908810DE06B
:103F90004FF480601D49088108E04FF4C0601B4960
:103FA000088103E000F036F80020E3E700BF164880
:103FB0008079072802D0082810D103E00020134997
:103FC00088800FE01148008918B900200F498880C7
:103FD00003E04FF480500D49888003E000F01AF8A8
:103FE0000020C7E700BF08480068084908600020B3
:103FF00088810C204881064800F0B0F9012104486E
:10400000FFF792FF0120B5E7DC000020409E002072
:104010000038014010B54FF416500B4908600020DD
:104020008880C8804FF4C0600881002088810C20FF
:104030004881064800F092F9012240F225510348D8
:1040400000F066F910BD0000409E002000380140DD
:1040500070B50446204600F03DF9054600F05CF8D6
:1040600024B1012C09D0022C15D10DE025224FF4EA
:10407000E1310A4800F018F80DE026224FF4E13152
:10408000074800F011F806E027224FF4E131054817
:1040900000F00AF800BF00BF70BD0000003801400A
:1040A000004400400048004070B586B006460C460B
:1040B000154601940020ADF80800ADF80A00ADF8EF
:1040C0000C00ADF810000C20ADF80E0001A9304630
:1040D00000F044F9012240F22551304600F018F971
:1040E00001213046FFF720FF40213046FFF704FF53
:1040F0004FF48060FEF790F88DF8145002208DF890
:10410000150001208DF816008DF8170005A8FEF7A0
:1041100049F806B070BD000038B50446274884420F
:104120000BD10D202315264A51150090104600F0A2
:1041300057F801218803FEF7C3F9224884420BD1C6
:10414000042008231E4A01460090104600F048F85B
:1041500001214804FEF7A4F91B4884420FD109202D
:10416000E3141A4A11150090104600F039F80121A5
:104170008804FEF795F901218804FEF7A1F9144897
:1041800084420BD11120E314124A111500901046FD
:1041900000F026F80121C804FEF782F90E48844297
:1041A0000BD1312004230D4A91140090094800F0EE
:1041B00017F801210805FEF773F938BD00380140F2
:1041C000000801400044004000480040000C01404D
:1041D000004C00400010014000500040001401401D
:1041E0002DE9F84307460D4616461C46DDF82080AB
:1041F00001214046FEF764F9ADF8005003208DF828
:10420000020018208DF8030069463846FDF797FC38
:10421000ADF8004004208DF8030069463046FDF7F4
:104220008EFC29463846FDF79FFD21463046FDF7B6
:104230009BFDBDE8F88370B50246002400230025ED
:104240000020A1F510666A3E00D100BFC1F34215FF
:1042500001F01F03012606FA03F3012D02D196890E
:10426000334006E0022D02D1168A334001E0968ADF
:1042700033400C12012606FA04F41688344013B1B8
:104280000CB1012000E0002070BD000001460F4A83
:10429000881A914213D006DC0D4808180BD0B0F5EF
:1042A000806F10D109E0B0F5806F0AD0B0F56C4F87
:1042B00009D1002070470120FCE70220FAE7032023
:1042C000F8E70420F6E70020F4E70000004C004087
:1042D00000BCFFBF014605290ED2DFE801F003054F
:1042E00007090B00054870470548FCE70548FAE751
:1042F0000548F8E70548F6E70020F4E700380140F4
:104300000044004000480040004C00400050004085
:10431000F0B503460024002600250020A1F5106713
:104320006A3F00D100BF1846C1F3421401F01F06D6
:10433000012707FA06F5012C01D10C3004E0022C0C
:1043400001D1103000E014301AB107682F43076024
:1043500002E00768AF430760F0BD00002DE9F047B9
:1043600085B005460E460024A24600BFA1460027A0
:10437000B08900B100BF2F462C8A4CF6FF70044074
:10438000F08804432C82AC8928480440B0883189E5
:104390000843718908430443AC81AC8A4FF6FF405F
:1043A0000440B0890443AC826846FEF799F820487F
:1043B000874202D1DDF80CA001E0DDF808A0A88951
:1043C00010F4004F08D00AEBCA0000EB0A10316865
:1043D0004900B0FBF1F807E00AEBCA0000EB0A1055
:1043E00031688900B0FBF1F86420B8FBF0F00401FB
:1043F0002009642101FB1089A88910F4004F08D01E
:10440000322000EBC900B0FBF1F000F007000443DC
:1044100008E0322000EB09106421B0FBF1F000F05D
:104420000F0004432C8105B0BDE8F087FFFEF0FFCC
:10443000003801402DE9F04705460E4614462F4648
:10444000B046A1463846FFF721FF824600234FF4CD
:1044500096724146384600F005F8A9F80000BDE81C
:10446000F08700002DE9F04780460F4615461E46AE
:104470004046FFF70BFF04462049085D0021FFF787
:10448000BFF98146B9F1000F28D0012240F2255131
:104490004046FFF73DFF1A4800781A490855B5F520
:1044A000967F01DB4FF49675174820F814500020D2
:1044B000164921F814001EB13046FFF751F903E008
:1044C0001049085DFFF712FB0C49085DFFF778F90A
:1044D000002240F225514046FFF71AFF47B10B4931
:1044E00031F814200A4951F824003946FCF754FBEE
:1044F000064830F81400BDE8F08700002D000020C9
:104500005800002037000020BC010020C601002018
:10451000940100202DE9F04304460D461646274637
:10452000A846B6F800904A464146384600F002F8E0
:10453000BDE8F08310B50B46002108E000BF0488F9
:1045400014F0800FFBD05C5C84804C1CA1B29142C3
:10455000F4DB10BD00B54FF48020FDF7AFFA00BDCD
:1045600010B504462CB14FF480710548FDF7FAFBF5
:1045700004E04FF480710248FDF7F6FB10BD000027
:104580000008014010B50848084908600220096881
:104590000872074807490860074808490860054944
:1045A00009680868804710BD249E0020780100201B
:1045B000E80000207C010020180100208401002078
:1045C00008B54FF4C060FDF727FE14208DF80000F9
:1045D00000208DF801008DF8020001208DF8030005
:1045E0006846FDF7DFFD25208DF8000001208DF8DD
:1045F00001006846FDF7D6FD08BD000010B517485C
:104600000068174908800846008800F48060154952
:104610000988084206D04FF6FF3010490860124959
:10462000486880470E48008800F400700D490988EA
:10463000084208D04FF6FF50084908600B48007840
:10464000401C0A4908700648008800F400400549EB
:104650000988084201D0FCF7D9FA10BD445C00403B
:104660008C01002082010020E80000209C00002036
:1046700010B5FFF7C3FF10BD00BFFEE7F0B514464D
:1046800004F1010C4FEA6C07DFF824C00CEB410386
:104690003D460AE00678401C90F800C046EA0C222D
:1046A00023F8022B9B1C401C6D1E002DF2D1F0BD87
:1046B0000060004070B504460025212C08D1124846
:1046C0000068007800F07F0021280ED10F4D0CE02B
:1046D000202C0AD10C480068007800F07F002128C7
:1046E00000D10B4D20200B4908700DB9022070BD80
:1046F0000548006885610021034800684182002068
:10470000A8470020F3E70000780100204147000897
:10471000D1480008D800002010B5044602492046C0
:10472000FEF73CFA10BD00004401002010B504461D
:1047300002492046FEF732FA10BD00003C0100207D
:10474000014629B90820034A1268108200207047E8
:104750000148FCE778010020DC00002030B5054668
:1047600006480068C478042C01DD002030BD0448F0
:1047700000EBC4012846FEF711FAF7E778010020A4
:104780004C0100200246002901DD02207047012A69
:1047900001DD0220FAE70020F8E7000001460848A2
:1047A0000068007800F07F00212807D1022901D19C
:1047B00000207047222901D10020FAE70220F8E703
:1047C0007801002000B50020344909688872344817
:1047D000C079324909684872002030490968C872B6
:1047E000FDF740FF4FF400710020FEF70DF8102197
:1047F0000020FDF7DFFF40210020FDF75BFF802157
:104800000020FDF7B9FF0020FCF7AEFB254890F82B
:104810002C100020FDF760FF0020FDF79BFF00211A
:104820000120FDF7F1FFC0210120FDF7A5FF2021A8
:104830000120FDF7BFFF00210120FDF773FF4FF4BA
:10484000C0610220FDF7E0FF4FF480710220FDF708
:1048500093FF00210220FDF765FF20210220FDF7D4
:10486000A9FF00210320FDF7CFFF4FF4887103203B
:10487000FDF720FF40210320FDF72EFF4FF44051AC
:104880000320FDF74FFF00210320FDF793FF0020D9
:10489000FDF7F0FE01200449086000BD780100200A
:1048A000D6520008E80000206C0100200348817AFD
:1048B00011B10521024A116070470000249E0020BA
:1048C0006C01002004200149086070476C01002041
:1048D000014629B90820034A126810820020704757
:1048E0000148FCE778010020DC00002010B50548F5
:1048F0000078202804D1FFF723FB0020014908702D
:1049000010BD0000D80000207047000010B5FDF772
:104910000DFB00200B4909688872FDF7A1FD0020FE
:10492000094908604FF40640084908800846008895
:104930000549091F0860FFF76DFB00200449086066
:1049400010BD000078010020445C0040820100207E
:104950006C01002070B505460C462246C021284651
:10496000FFF78CFE21460120FDF716FF0120FDF721
:1049700039FF0A20FEF7F4FE70BD000010B50321D8
:1049800001A0FCF779FD10BD575744475F495251CC
:1049900048616E646C65720037B514460846064B74
:1049A0006A46214600F0C8F804466946002000F037
:1049B00066FC20463EBD00007F52000802E008C8A9
:1049C000121F08C1002AFAD170477047002001E089
:1049D00001C1121F002AFBD1704700002DE9FF5FC3
:1049E000DDE90220010DDDF838B0024310D10F9847
:1049F00001244CA2012808D0002100980F9BC0E997
:104A00000021C0E90243BDE8FF9F6FEA0B01F4E714
:104A1000A1F2FF3144F6105041430D140F980128C4
:104A20000ED0A5EB0B00401C4FF000043E4EDFF80B
:104A3000FC90B0F1000AA04605DACAF1000717E0C1
:104A4000CBF10000F0E7074612E0F80707D0224656
:104A5000334640464946FBF7BCFC80468946224621
:104A6000334610461946FBF7B4FC04460E467F1049
:104A7000002FEAD1DDE90201BAF1000F42464B46B0
:104A800002DAFBF7A6FC01E0FBF715FD04460E4633
:104A90000022274BFBF70EFF03D84FF0FF300146F3
:104AA00007E00022234B20463146FBF7EBFBFBF7E8
:104AB000E9FE102409E0002C0ADB0A220023FBF7A0
:104AC000EAFD019B30321A55641E50EA0102F2D110
:104AD000641C019AC4F1110314440F9A012A09D0ED
:104AE0000122084301D15B450FDD4FF0000205F1C3
:104AF00001050DE0084303D1A3EB0B056D1E09E092
:104B000000204FF0110B0F9088E701DA00226D1E94
:104B1000002A83D000980F99C0E90231C0E900450E
:104B200071E7000030000000000024400000F03F6A
:104B30000000F0430000E03F2DE9FF4F95B09B4699
:104B400089460646002512E2252878D10024761CE5
:104B5000F94A2746012105943378203B01FA03F0F6
:104B6000104202D00443761CF6E730782A2811D090
:104B70006FF02F033078A0F13002092A16D8059A79
:104B800044F0020402EB820203EB42021044761C62
:104B90000590EFE759F8042B0592002A03DA5042FA
:104BA00044F40054059044F00204761C30782E281A
:104BB00016D116F8010F44F004042A280DD06FF026
:104BC0002F023078A0F13003092B09D807EB8703B7
:104BD00002EB4303C718761CF3E759F8047B761CF5
:104BE00030786C280FD006DC4C2817D068280DD000
:104BF0006A2814D104E0742810D07A280FD10DE06F
:104C000044F400140AE044F4801401E044F4401435
:104C10007278824202D1761C04F58014761C3078BA
:104C200066280BD013DC582877D009DC002875D013
:104C30004528F6D04628F4D047281AD19FE118E03D
:104C4000632835D0642879D0652812D197E170287F
:104C500073D008DC6728F1D069286FD06E280DD09A
:104C60006F2806D1B5E073282CD0752875D0782828
:104C700074D05A46179990476D1C76E1C4F30250E0
:104C8000022809D003280DD0D9F8001004280DD02F
:104C90000D6009F1040968E1D9F80010EA17C1E9CB
:104CA0000052F6E7D9F800100D80F2E70D70F0E73A
:104CB00019F8041B8DF8001000208DF80100EA4659
:104CC000012003E059F804AB4FF0FF3061074FF0CB
:104CD000000102D40DE008F101018846B9420FDA63
:104CE0008045F8DB1AF808100029F4D108E008F133
:104CF000010188468142FADB1AF808100029F6D132
:104D000005985B46A0EB080721463846179A00F045
:104D10009EFA284400EB080507E04DE02BE10DE08A
:104D20001AF8010B5A4617999047B8F10108F7D2C3
:104D30005B4621463846179A14E142E00A22009267
:104D4000C4F302524FF0000A022A08D059F804CBEB
:104D5000032A4FEAEC710AD00DE029E02AE009F1BC
:104D6000070121F00702F2E802C1914609E00FFABB
:104D70008CFC4FEAEC71042A03D14FFA8CFC4FEA09
:104D8000EC71002907DA0A460021DCF1000C61EB26
:104D900002012D2202E0220504D52B228DF80420E9
:104DA000012203E0E20701D02022F7E7904653E01A
:104DB0000A2102E010220DE010214FF0000A0091BC
:104DC0000BE010224FF0000A44F004040827009280
:104DD00003E008224FF0000A0092C4F30252022AB4
:104DE00005D059F804CB0021032A08D009E009F1C5
:104DF000070121F00702F2E802C1914605E01FFA1F
:104E00008CFC042A01D10CF0FF0C4FF000082207A3
:104E100022D5702827D0009B83F0100353EA0A03A1
:104E200009D15CEA010206D030228DF804208DF809
:104E3000050002229046009B83F0080353EA0A0310
:104E40000AD15CEA010201D1620705D530228DF852
:104E500004204FF001087F1E582809D037A0039086
:104E60000EA8029013E040228DF804200122E1E711
:104E700037A0F4E753466046009AFBF70CFC8446E3
:104E80000398825C0298A0F10100029002705CEA33
:104E90000100EFD1029806A9A1EB000000F1200A61
:104EA000600702D524F4803400E00127574502DD75
:104EB000A7EB0A0000E0002000EB0A010090059833
:104EC0004144A0EB01000590E00306D45B46214677
:104ED000179A059800F0BBF90544002706E001A8E1
:104EE0005A46C05D179990476D1C7F1C4745F6DBFD
:104EF000E0030CD55B462146179A059800F0A7F908
:104F0000054404E030205A46179990476D1C0099DB
:104F1000481E00900029F5DC08E0029802995A46E4
:104F20000078491C0291179990476D1CBAF1000155
:104F3000AAF1010AF1DC6BE10928010030313233BA
:104F400034353637383961626364656600000000C5
:104F500030313233343536373839414243444546AF
:104F60000000000000F060F9054406F10106307809
:104F700000287FF4E9AD19B02846BDE8F08F62073C
:104F800000D4062709F1070222F0070CFCE80223EF
:104F9000E14603F000485FEA080C02D00FF27C2CD7
:104FA0000DE05FEA045C02D50FF2742C07E05FEAC3
:104FB000C47C02D00FF26C2C01E0AFF2700C4FF009
:104FC000FF3823F00043CDF850C065280CD006DC34
:104FD000452809D046281DD047283ED13EE0662806
:104FE00018D0672839D139E00021112F01DB1120B9
:104FF00000E0781CCDE9000106A90EA8FFF7EEFC41
:10500000DDE90F010E9A03910021009207F1010AD8
:1050100004914EE04FF000400097CDE9011006A941
:105020000EA8FFF7DBFCDDE90F0203920E9B11993E
:105030000022DDF80CA00093049219B907F10101D8
:1050400000EB010AB7EB0A0004D4C0F1FF3007F10E
:10505000010A0490AAEB0700019046E0012F00DA54
:1050600001270021112F01DD112000E03846CDE994
:10507000000106A90EA8FFF7B1FCDDE90F010E9AA9
:105080000391002104910092BA4621070CD40399A0
:10509000514500DA8A46BAF1010F05DD009AAAF1FE
:1050A0000101515C302908D0B84202DA10F1040F36
:1050B00006DA0121CDE9011017E0AAF10101E9E7C3
:1050C000002805DC049901440491AAEB000102E0E8
:1050D000411C514500DD8A460499A0EB010000F116
:1050E000010001904FF000400290200704D4019885
:1050F000504501DBCDF8048000208DF84F00029868
:105100000DF14F07B0F1004F25D02B200E900298E3
:105110004FF0020800280CDA404202902D200E9039
:1051200007E00A210298FBF7A0FA3031029007F855
:10513000011DB8F10001A8F10108F2DC0298002875
:10514000EFD1791E0E980870307800F0200040F002
:10515000450007F8020D12A8A0EB070000F10708B0
:105160001498007800B1012000EB0A01019801EBCE
:10517000E07105984144A0EB0100A0F10100059009
:10518000E00306D45B462146179A059800F05FF8C5
:1051900005441498007820B15A461799904705F1B4
:1051A0000105E00323D55B462146179A059800F0D8
:1051B0004EF805441BE00498002807DBDDE90301F5
:1051C000884203DD0098405C179901E01799302070
:1051D0005A46904704986D1C401C04900198401E4C
:1051E000019004D12E205A46179990476D1CBAF1B0
:1051F0000001AAF1010ADEDC05E017F8010B5A46AE
:10520000179990476D1CB8F10001A8F10108F4DC72
:105210005B462146179A0598A4E600002D00000081
:105220002B000000200000002DE9F041044600257D
:105230001E461746880405D406E039462020B047AC
:1052400005F10105641EF8D52846BDE8F0812DE979
:10525000F041044600251E469046C80301D530277C
:1052600000E02027880405D506E041463846B047CF
:1052700005F10105641EF8D52846BDE8F0810A68ED
:10528000531C0B60107070474FF4A0414FF000604A
:10529000FCF7CCFF0748FCF74FFFFCF7A7F90648DF
:1052A000FCF748FA0548FCF7E1F90548FEF7FEF877
:1052B00000BFFEE7E401002000380140C8530008A9
:1052C0007853000812010002020000408304405796
:1052D00000020102030109024300020100C0320979
:1052E0000400000102020100052400100105240150
:1052F00000010424020205240600010705820308B8
:1053000000FF09040100020A000000070503024033
:10531000000007058102400000040309042603532E
:105320000054004D006900630072006F0065006C5E
:105330000065006300740072006F006E0069006316
:105340000073003203530054004D0033003200203C
:10535000005600690072007400750061006C002046
:105360000043004F004D00200050006F0072007499
:105370000020002000000000D530000800000000E0
:10538000EC530008D00700004D3100080000000079
:10539000EC530008D0070000913100080000000025
:1053A000EC530008D0070000CD32000800000000D8
:1053B000F2530008D00700000000000000000000C9
:1053C000000000000000000002100000001001407A
:1053D0000F000000021000000008014000800000E3
:1053E0000000000000000000000000005461736B2A
:1053F00030005461736B5F4172726172790000001A
:10540000205400080000002094010000000900085A
:10541000BC540008940100203CA10000CC490008C5
:10542000412D0102030404100906070809020406BD
:105430000884A24A046918014C12FF14FFFFFF14EC
:105440001A03531254124D12331232123102173012
:1054500013D5190C1C08A321040A11E1245133C2ED
:105460000112081A0407130D491408C5471408ED62
:10547000481B08090C13B5461B089D101A85041A11
:105480002D041A19041A5D0441324029441AAD2C26
:105490000916741AC51C13C4523308121AD60832DE
:1054A000431319533308041A1D0832261A430832CD
:0C54B00032227A73201A29920120000099
:0400000508000131BD
:00000001FF
