:020000040800F2
:10000000E8AB002065010008854F00084133000877
:100010006D4E0008770B00080DA5000800000000D9
:1000200000000000000000000000000091640008D3
:100030003913000800000000B15300083F680008B1
:1000400091A5000895530008A96800087F010008E1
:10005000451B0008AD5C0008D11900087F010008AD
:10006000011A0008211A0008411A00087F0100083F
:10007000AD100008D51000087F0100087F010008BE
:100080007F010008FD1000087F0100087F010008C3
:100090007F010008CD0B0008ED0B0008611A000875
:1000A0002575000889750008657500084575000804
:1000B0007F0100087F010008A97500089933000836
:1000C00079330008D9330008B9330008B55D00085A
:1000D000095E0008D99900082D9A00088D9A000839
:1000E000DD190008955D00087F0100080000000090
:1000F0000000000000000000000000000000000000
:100100000000000000000000C5750008255E000822
:1001100031990008859900087F010008E175000801
:10012000251100084D110008751100087F01000815
:100130007F0100087F0100087F0100087F0100089F
:100140007F0100087F0100087F0100087F0100088F
:10015000DFF80CD000F098FC004800477DC0000894
:10016000E8AB00200648804706480047FEE7FEE768
:10017000FEE7FEE7FEE7FEE7FEE7FEE7FEE7FEE757
:1001800049680008510100080649074A08685043B9
:1001900043F2390210440860400870470149086082
:1001A00070470000140100206D4EC64140EA010373
:1001B0009B0703D009E008C9121F08C0042AFAD21D
:1001C00003E011F8013B00F8013B521EF9D27047E1
:1001D00030B505460020034600E05B1C934205D283
:1001E000EC5CC85C201A01D1002CF6D130BDF0B413
:1001F00080EA0102D40F4200B2EB410F02D2024664
:10020000084611464A0042D0C30DDDB2C1F3C752C1
:10021000AD1A202D35DAC1F3160141F4000204B104
:100220005242C5F1200602FA06F12A411044B3EB0E
:10023000D05F23D0C4B1012DA0EBC35009DCF0BCCA
:100240004FF0004202EAC35200F50000DBB200F0BA
:100250004CBB400000F1807000EBC350A0F18070F7
:1002600040EAD170490009E0490841EAC071A0EBB9
:10027000C35000F50000400800EBC350F0BC00F094
:100280002BBB6142012202EB4101001BF6E7F0BCEF
:10029000704781F00041AAE780F00040A7E780EABC
:1002A000010210B502F00043400026D04A0023D0DE
:1002B0004FEA106101EB1261C0F35600C2F356021F
:1002C00040F4000042F40002A0FB0220A1F17F01F3
:1002D0004FEA0040140401D000F1010050EA12403E
:1002E00001D44000491EC2B20C0604EBD010401CE1
:1002F0004008802A02D003E0002010BD20F0010059
:10030000002900DA0020184310BD30B480EA010251
:1003100002F0004530F0004221F0004015D0A0B1BD
:10032000C0F3C753C2F3C754C2F31601C0F316009B
:10033000E41A41F4000140F400027D34914201D3FB
:10034000641C00E04900002C02DA30BC0020704739
:100350004FF400000023914201D3891A034340085F
:100360004FEA4101F7D151B1914202D14FF0004122
:1003700005E002D24FF0010101E06FF0010103EB53
:10038000C450284430BC00F0A7BA2DE9FE4F804687
:1003900081EA0300C00F0C46009021F0004123F0D9
:1003A0000045B8EB0200A94105D2404621469046DF
:1003B0001C460B46024623F00040104304D1404641
:1003C000214603B0BDE8F08F270DC7F30A00C3F341
:1003D0000A510290401A0190402866DAC3F31300D4
:1003E00040F4801B0098924620B10023D2EB030A10
:1003F00063EB0B0B01985946C0F14002504600F0E8
:100400003AFA06460D4650465946019A00F052FA0D
:1004100010EB08006141002487EA115284EAE77377
:100420001A433BD0009A3AB3019A012A4FEA075285
:1004300010DC001B61EB02014FF0004202EA0752A0
:10044000CDE90042001C41F5801132462B4600F0F8
:1004500086FAB6E7001B61EB0201001C41F5801330
:1004600000185B412018A2F5001747EB030140EA92
:10047000D570B6196D4111E06D084FEA360645EAB0
:10048000C0754FEA0752001B61EB0201001C41F5E9
:10049000801149084FEA30000019514132462B467D
:1004A00003B0BDE8F04F00F04DBA009801224000C3
:1004B0000023D0EB020263EBE073009821464FEA81
:1004C000E074B8EB000061EB0401E9E783F000435E
:1004D0005BE781F0004158E72DE9FE4F81EA030414
:1004E00004F0004421F0004100944FF0000B23F091
:1004F000004350EA010402D052EA030404D1002070
:10050000014603B0BDE8F08FC3F30A54C1F30A55A6
:100510002C44A4F2F3340194A0FB0254C1F3130160
:1005200041F48011C3F3130343F4801301FB02442D
:1005300000FB034E840A970A44EA815447EA835732
:10054000A4FB076802958D0A05FB07854FEA932CEB
:1005500004FB0C542705029D4FEA065847EA16375C
:10056000B5EB08056EEB070C870E920E47EA811774
:1005700042EA8312A7FB0201B6EB0B0164EB000415
:100580002B0D43EA0C335E1844EB1C50DA465146FF
:10059000E7FB0201C5F313044FEA0B3343EA14539C
:1005A0004FEA0432019C43EA0603A4F10C040294CE
:1005B000009CCDE900B400F0D2F9A2E72DE9F04D9E
:1005C00081EA030404F0004B21F0004514464FF08B
:1005D000000A23F0004150EA050220D054EA01024B
:1005E0001DD0C5F30A570246C5F31303C1F3130028
:1005F000C1F30A5640F4801543F48013A7EB0608B4
:10060000101BD64608F2FD3873EB050002D308F143
:10061000010801E092185B41B8F1000F03DA0020F5
:100620000146BDE8F08D00204FF480110646844657
:100630000EE0171B73EB050705D3121B63EB0503D5
:1006400006434CEA010C49084FEA300092185B411E
:1006500050EA0107EDD152EA030012D082EA040009
:1006600083EA0501084303D100224FF0004308E06C
:10067000101BAB4102D20122002302E06FF0010205
:1006800053101AEB06004CEB085110EB0A0041EB3B
:100690000B01BDE8F04D00F055B9C10F80EAE070E4
:1006A0000844CA079623002100F01FB996230022B0
:1006B000114600F01AB90EB5C10F80EAE070084487
:1006C000CA07002140F233438DE80E000A460B466C
:1006D00000F045F903B000BD0EB540F23341029180
:1006E0000021CDE900110A460B4600F038F903B0AD
:1006F00000BD00F0004220F00040C10DC0F3160024
:1007000040F400007F2901DA00207047962903DCBD
:10071000C1F19601C84001E096398840002AF4D022
:100720004042704720F00040C10DC0F3160040F475
:1007300000007F2901DA00207047962903DCC1F10F
:100740009601C840704796398840704770B5C1F32C
:100750000A5201F000450024C1F3130140F2FF33B7
:1007600041F480119A4201DA002070BD40F2334317
:100770009A42A2F2334203DC524200F08BF800E0CE
:1007800090402C43F1D0404270BD00F0004230F068
:1007900000400AD0C10D01F56071C0F3160042EAB5
:1007A0000151C208400711437047002001467047BD
:1007B00001F0004330B421F0004150EA010206D0BC
:1007C0000A0DA2F56072C1F31301002A02DC30BCED
:1007D00000207047440F44EAC104C100E01830BC57
:1007E00000EBC25000F078B830B50B46014600204F
:1007F0002022012409E021FA02F59D4205D303FAE3
:1008000002F5491B04FA02F52844151EA2F1010263
:10081000F1DC30BD2DE9F05F0546002092469B4695
:1008200088460646814640241BE028464146474606
:10083000224600F02FF853465A46C01A914110D371
:1008400011461846224600F016F82D1A67EB0108EB
:100850004F4622460120002100F00DF817EB000959
:100860004E41201EA4F10104DFDC484631462A46F1
:100870004346BDE8F09F202A04DB203A00FA02F14B
:10088000002070479140C2F1200320FA03F319437E
:1008900090407047202A04DB203A21FA02F0002120
:1008A000704721FA02F3D040C2F120029140084380
:1008B00019467047202A06DBCB17203A41FA02F08E
:1008C00043EAE07306E041FA02F3D040C2F12002AD
:1008D00091400843194670470029A8BF7047401C43
:1008E000490008BF20F00100704710B4B0FA80FC46
:1008F00000FA0CF050EA010404BF10BC704749B183
:10090000CCF1200421FA04F411FA0CF118BF0121F2
:1009100021430843A3EB0C01CB1D0106000A002B69
:10092000BEBF002010BC704700EBC350104400292C
:10093000A4BF10BC7047401C490008BF20F0010054
:1009400010BC704710B5002B08DA401C41F10001C3
:1009500092185B411A4301D120F0010010BD2DE92E
:10096000F04D92469B4611B1B1FA81F202E0B0FA25
:1009700080F220329046FFF77EFF04460F4640EAA1
:100980000A0041EA0B0153465A46084303D1204668
:100990003946BDE8F08D114653EA010015D0C8F183
:1009A00040025046FFF776FF05460E465046594630
:1009B0004246FFF760FF084301D0012000E000201D
:1009C000054346EAE0762C4337430A984FEA4453FE
:1009D000A0EB08004FEAD4240A304FF0000244EAAA
:1009E00047544FEAD72502D500200146D1E701053B
:1009F00010196941DDE9084500196941BDE8F04D6C
:100A0000A0E770B521F0004303430CD0C1F30A55B1
:100A10000024D5EB040564EB0403D617AD1AB341EB
:100A200002DB0020014670BD201841EB025170BD71
:100A3000C1F30A52C1F3130140F2FF3341F48011B4
:100A40009A4202DA00200146704740F233439A424C
:100A5000A2F2334202DC5242FFF71CBFFFF70BBF8A
:100A600030B5002904DB4FF00044404264EB010143
:100A7000002B04DB4FF00044524264EB0303994225
:100A800008BF904230BD0000064C074D06E0E0680C
:100A900040F0010394E8070098471034AC42F6D3C5
:100AA000FFF75AFB60E4010880E4010882B02DE9F9
:100AB000FF1FEFF3038001B4684600F1400000E936
:100AC00001400C480168C1F800D00B48D0F800D0B4
:100AD00001BC80F30388BDE8FF1F01B000BD0648DC
:100AE000D0F800D001BC80F30388BDE8FF1F01B03F
:100AF00000BD0000500000204C00002001461F22D5
:100B000002EA11404FF6FF7202EA80103F2202EA29
:100B1000112210434FF6FF7202EA401001F01F024B
:100B20001043704706E04FF47A7100BF0A00A1F14C
:100B30000101FBD10200A0F10100F4D17047F0B532
:100B4000034600201C460D46104603E014F8016BD6
:100B500005F8016B1600A2F10107BAB2F6D1F0BD9B
:100B600030B5034601E003F8011B1400A2F10105B2
:100B7000AAB2F8D130BD00BFFEE770B504460B46FF
:100B80001546002200210CE0A05C5E5CB04204D15E
:100B9000501C82B2481C81B203E0501A401C82B241
:100BA0000021281EA5F1010501DD012000E0002043
:100BB0005E5C002E01DD012600E000263042E3D11C
:100BC000585C08B9104670BD0020FCE710B5032141
:100BD00001A000F0E3FA10BD43414E315F5258319D
:100BE0005F49525148616E646C65720010B5032113
:100BF00001A000F0D3FA10BD43414E315F5343458D
:100C00005F49525148616E646C65720070B505466B
:100C10000E46144614B1012C0ED106E00023074AFB
:100C20003146284603F0B2F806E00123034A314674
:100C3000284603F0ABF800BF00BF70BDE6D2010844
:100C40002DE9F04104460F4617B1022F60D11AE09A
:100C5000002514E000260DE06288A37905FB03223D
:100C600091B2228806FB032290B20022FFF7CEFF4A
:100C7000701C86B26079B042EEDC681C85B22079C7
:100C8000A842E7DC44E000253EE0A06830F815000B
:100C9000E16831F81510884234D0002629E0A068B8
:100CA00030F815100120B0400840E16831F8151007
:100CB0000122B2401140884219D0A36833F81530A0
:100CC0004FF0010C0CFA06FC13EA0C0F01D00123C3
:100CD00000E000231A46638894F806C005FB0C3335
:100CE00099B2238806FB0C3398B2FFF78FFF701C74
:100CF00086B26079B042D2DCA06830F81500E168B5
:100D000021F81500681C85B22079A842BDDC00BF1F
:100D100000BFBDE8F081000070B58EB004463822F7
:100D20000F496846FFF742FA2046E11704EB1171BC
:100D3000C1F30715E11704EB11710911A4EB0111BF
:100D4000CEB2072D02DB00200EB070BD042E01DBF9
:100D50000020F9E7684600EBC50030F81600F3E71D
:100D600038DB01082DE9F05F04460F463846FFF7EF
:100D7000D3FF81466079A17948430A301FFA80FA8F
:100D80006088401C1FFA80FB002624E04FEA2938C7
:100D90004FF6FF7000EA0919002518E0C5F1020CB2
:100DA000012303FA0CF303EA0803002B01DD0123FE
:100DB00000E000231A46A37903FB06B399B2A37996
:100DC00003FB05A398B2FFF721FF681CC5B2032DF2
:100DD000E4DB701CC6B2042ED8DBBDE8F09F000037
:100DE0002DE9F04389B004460E461C22474902A86B
:100DF000FFF7DCF946480068408C6188401A0621FC
:100E000090FBF1F000F0FF0816F0010F54D04149BB
:100E1000887F05F0CBFF00254CE0607CA84204D120
:100E200007F052FF0121417003E007F04DFF002160
:100E300041700320DFF8D8C00090DCF800C0BCF897
:100E40001E9005F1010C0CFB089C1FFA8CF3DFF8D7
:100E5000C0C0DCF800C0BCF81EC005FB08CC1FFAFF
:100E60008CF1DFF8ACC0DCF800C0BCF82020DFF863
:100E7000A0C0DCF800C0BCF820C0ACF1640C1FFAC4
:100E80008CF006F05BF8A07C042801D1012000E082
:100E900000200DB9012100E00021084203D008988C
:100EA00004F088FA04E002A951F8250004F082FA5F
:100EB000681CC5B2062DB0DB16F0040F1ED007F07B
:100EC00003FF818907F000FFC089814203D107F049
:100ED000FBFE878901E00F48878B637994F806C091
:100EE00003FB0CF39B1C98B26388C3F1F1039AB225
:100EF00063889B1E99B23B4602F059FC07F0E4FE62
:100F00000021417009B0BDE8F083000070DB0108EA
:100F1000FC000020E09D002010B50446002007F0F2
:100F2000AFFA22790248A168FFF709FE10BD000060
:100F3000069E0020F0B502460B46272B12D1012059
:100F40001074907D401C9075107D401C1075D07DF4
:100F5000947D40EA0410C4B2557D681C507502F1BE
:100F600018004455252B12D102201074907D401E8C
:100F70009075107D401C1075D07D947D40EA041062
:100F8000C4B2557D681C507502F118004455282BD9
:100F900012D103201074D07D401CD075107D401CF0
:100FA0001075D07D947D40EA0410C4B2557D681C54
:100FB000507502F118004455262B12D104201074EC
:100FC000D07D401ED075107D401C1075D07D947D65
:100FD00040EA0410C4B2557D681C507502F1180037
:100FE0004455002105E00020946824F81100481CB5
:100FF000C1B210798842F6DC00212AE0557D6E1AD4
:1010000002F11805A85DC51700EB15752D11A0EBB1
:101010000515966836F81550567D771A02F11806B0
:10102000F45DE61704EB167637110126BE40354312
:10103000AEB2557D6F1A02F11805E85DC51700EBD9
:1010400015752D11A0EB0515976827F81560481C3C
:10105000C1B2107D8842D1DC0020F0BD02E0002248
:1010600000F8012B0A00A1F1010399B2F7D17047F2
:1010700070B505460C46284601F072FE064620462D
:1010800001F06EFE864201D0002070BD07E015F829
:10109000011B14F8012B914201D00020F5E72878BC
:1010A00010B120780028F2D10120EEE710B503211D
:1010B00001A000F073F810BD444D41315F436861F9
:1010C0006E6E656C325F49525148616E646C657238
:1010D0000000000010B5032101A000F05FF810BD72
:1010E000444D41315F4368616E6E656C335F4952B8
:1010F0005148616E646C65720000000010B50321F8
:1011000001A000F04BF810BD444D41315F436861D0
:101110006E6E656C375F49525148616E646C6572E2
:101120000000000010B5032101A000F037F810BD49
:10113000444D41325F4368616E6E656C315F495268
:101140005148616E646C65720000000010B50321A7
:1011500001A000F023F810BD444D41325F436861A7
:101160006E6E656C325F49525148616E646C657297
:101170000000000010B5032101A000F00FF810BD21
:10118000444D41325F4368616E6E656C335F495216
:101190005148616E646C6572000000000FB42DE967
:1011A000F04186B000240125002650480078FF2831
:1011B00001D1012000E000204C4909784C4A127806
:1011C000914201D1012100E0002108437ED04FF47B
:1011D000806003F099FE07460DA805903846059AF1
:1011E0000C9909F01DFC002005900DA8059069469A
:1011F0000C9801F0C3F905462AE02046611CCCB2E8
:101200001DF80000012804D0022806D003281AD1B6
:1012100015E0059840C8059019E00598C01D20F01C
:1012200007000590D0E90021DDF814C00CF1080C8E
:101230001046CDF814C0FFF789FA064607E0059876
:1012400040C8059003E0059840C8059000BF00BF66
:101250002800A5F10105D0D1059840C805900020CF
:10126000059024480078FF2801D1012000E00020EB
:1012700020490978B14201DB012100E00021084347
:101280002BD039461CA005F077FA1C48007810F0E6
:10129000020F0DD01A49087800F074FB40B13846AF
:1012A00001F05EFD804642463946164809F0EEF8E8
:1012B0001248007810F0040F0FD01149487800F060
:1012C00061FB50B1384601F04BFD00E008E080467C
:1012D000424639460C4809F0D9F8384603F0EEFD8D
:1012E00006B0BDE8F0015DF814FB000078000020B6
:1012F0005C0000207A0000200D0A00007900002028
:1013000029000020003801400044004002480078D5
:1013100002490870704700005C000020780000203F
:1013200001490870704700007900002001490870E9
:10133000704700007A000020704701B502E0009875
:10134000401E009000980028F9D108BD10B500207B
:101350001A4908704FF4A07003F0D6FD18490860D0
:10136000002406E0FF201749085517490855601C5E
:10137000C4B2052CF6DB00241DE0002010490968EA
:1013800001EB4411486103200D49096801EB441148
:10139000087200200A49096801EB441108610849F4
:1013A000096801EB4411C8600549096801EB441163
:1013B0008861601CC4B20A2CDFDB10BD6C00002009
:1013C00070000020290000202E00002038B50024E5
:1013D00054E02C48006800EB4410006800284BD013
:1013E0002848006800EB4410C079012806D0022884
:1013F00020D0032813D0042832D126E00320009007
:101400002048006800EB4410C3691E48006800EBE8
:101410004410214602681CA0FFF7C0FE2BE01948CB
:10142000006800EB44100323214602681CA0FFF76C
:10143000B5FE20E01348006800EB4410032321466A
:10144000026817A0FFF7AAFE15E00E48006800EB3F
:10145000441003232146026811A0FFF79FFE0AE013
:101460000848006800EB44100323214602680CA0E2
:10147000FFF794FE00BF00BF601CC4B20A2CA8DBBB
:1014800038BD0000700000204465766963655B2507
:10149000645D4E616D653A25735B25645D000000F7
:1014A0004465766963655B25645D4E616D653A25CB
:1014B000730000002D4800782D4908702B480078F3
:1014C000401C2A4908702A4800782A490968284A95
:1014D000127801EB4211087127A126480068244ABE
:1014E000127800EB42100160002022490968204A6E
:1014F000127801EB4211487102201E4909681C4A0A
:10150000127801EB4211C87101211A480068184A8B
:10151000127800EB421001721A4816490968144A01
:10152000127801EB42114861174912480068104ACD
:10153000127800EB4210C16114490E4800680C4A51
:10154000127800EB4210C16011480A490968084A44
:10155000127801EB42110861002106480068044A34
:10156000127800EB42108161704700006C0000208F
:101570008000002070000020494F5F44726976654A
:1015800072000000452300085C490108353400085A
:10159000F93300082448007824490870224800786C
:1015A000401C2149087022A0224909681F4A12786C
:1015B00001EB4211086000211E4800681B4A1278A6
:1015C00000EB4210417103201A490968174A12784A
:1015D00001EB4211C871012116480068134A1278C4
:1015E00000EB421001721448124909680F4A127840
:1015F00001EB4211486111480E4909680B4A127803
:1016000001EB4211C8600E490A480068074A127887
:1016100000EB42100161002106480068034A12787D
:1016200000EB4210816170476C0000202800002010
:101630004C43440070000020052F0008933C000834
:10164000913C000870B50546284608F0B7FC0446F2
:101650005F48005DFF2808D15E4800785C49085566
:101660005C480078401C5B4908705BA05849095DE4
:101670005B4A126802EB4111086000205449095D81
:10168000574A126802EB4111487101205049095D27
:10169000534A126802EB4111C87103204C49095D9D
:1016A0004F4A126802EB411108724E484849095DE1
:1016B0004B4A126802EB411148614548005D4849B8
:1016C000096801EB4010C46147494148005D444A44
:1016D000126802EB4010C16044483D49095D404A30
:1016E000126802EB4111086100213948005D3C4A53
:1016F000126802EB4010816100203D4921F814007E
:101700004FF4967003F000FC3A4941F82400284653
:1017100008F054FC04463848005DFF2808D12D48E5
:101720000078354908552B480078401C2949087035
:1017300032A03149095D2A4A126802EB4111086062
:1017400000202D49095D264A126802EB41114871BB
:1017500001212948005D224A126802EB4010C17144
:1017600003202549095D1E4A126802EB41110872E7
:101770001C492148005D1A4A126802EB4010416181
:101780001D48005D1649096801EB4010C461164808
:101790001949095D124A126802EB4111C8601348E9
:1017A0001549095D0E4A126802EB411108610020DB
:1017B0001149095D0A4A126802EB411188614FF430
:1017C000967003F0A1FB0F4941F8240070BD0000A2
:1017D0002E0000206C00002055534152527800002A
:1017E000700000209D9C00086DA4000831A3000833
:1017F000440100201C0100202900002055534152C3
:1018000054780000300100202848007828490870EA
:1018100026480078401C2549087026A027490968F9
:10182000234A127801EB421108600020234909681D
:101830001F4A127801EB4211487103201F490968C1
:101840001B4A127801EB4211C87101211B48006844
:10185000174A127800EB42100172194817490968BB
:10186000134A127801EB42114861002113480068C5
:101870000F4A127800EB4210C16112490F4800680C
:101880000B4A127800EB4210C1600F490B48006808
:10189000074A127800EB42100161002007490968ED
:1018A000034A127801EB4211886170476C000020F6
:1018B0008200002051323551313600007000002086
:1018C000B160000869A5000855A5000810B50321FE
:1018D00024A0FFF763FC002441E02948006800EBE6
:1018E00044104069C8B32648006800EB4410C07932
:1018F000012806D0022817D003280ED004282BD1A7
:101900001EE01F4A126802EB4412107F1C4A126844
:1019100002EB4412516988471EE01949096801EB3E
:1019200044114869804717E0154A126802EB4412D7
:10193000D069134A126802EB4412516988470BE0E0
:101940000F4A126802EB4412D0690D4A126802EB8A
:1019500044125169884700BF00BF601CC4B20A2C02
:10196000BBDB10BD546F7320446576696365204905
:101970006E69742E2E2E2E2E2E2E2E2E2E00000050
:10198000700000200146FF2901D100207047054862
:10199000006800EB4110406908B90020F6E701201B
:1019A000F4E70000700000202DE9FE4F04460D46CC
:1019B00016461F46DDE90D9ADDF830803B4632467B
:1019C000294620468DE8000700F028FBBDE8FE8F81
:1019D000012000F055F802F0C5F9000010B5032110
:1019E00001A0FFF7DBFB10BD4558544931355F318D
:1019F000305F49525148616E646C657200000000AE
:101A000010B5032101A0FFF7C9FB10BD455854498B
:101A1000325F49525148616E646C6572000000008B
:101A200010B5032101A0FFF7B9FB10BD455854497B
:101A3000335F49525148616E646C6572000000006A
:101A400010B5032101A0FFF7A9FB10BD455854496B
:101A5000345F49525148616E646C65720000000049
:101A600010B5032101A0FFF799FB10BD455854495B
:101A7000395F355F49525148616E646C6572000090
:101A800010B50446200D000501D104B103E0FC218E
:101A9000024809F0A7FF0248046010BD68C70008AB
:101AA0001404014070B504460425B4F1006F03D35B
:101AB0001448844200D204E040F2A711124809F011
:101AC00091FF4FF4302000F095F80546042D17D112
:101AD0000E48006940F002000C4908610846446164
:101AE000006940F0400008614FF4302000F082F8B7
:101AF00005460648006941F6FD7108400349086142
:101B0000284670BDFFFF0F083CC5000800200240BA
:101B100004200B49C96811F0010F01D001200EE02B
:101B20000749C96811F0040F01D0022007E00449F9
:101B3000C96811F0100F01D0032000E004207047A5
:101B40000020024010B5032101A0FFF727FB10BDC4
:101B5000464C4153485F49525148616E646C65720E
:101B6000000000000348006940F08000014908615E
:101B7000704700000020024070B504460D46042660
:101B8000B4F1006F03D31248844200D204E040F263
:101B90005E31104809F026FF4FF4005000F02AF89B
:101BA0000646042E11D10C48006940F001000A4994
:101BB00008612580F00200F01DF80646064800691D
:101BC00041F6FE71084004490861304670BD0000CE
:101BD000FFFF0F083CC500080020024002480349EF
:101BE0004860034848607047230167450020024071
:101BF000AB89EFCD00B502460423FFF789FF03460A
:101C000003E0FFF785FF0346521E012B01D1002A96
:101C1000F7D102B90523184600BD00B597B00020E2
:101C200001900290012003900020049005900690FE
:101C300007900890099008200A9010200B9000202F
:101C40000C900E900F9010904FF480501190002047
:101C500012901390149001A81590169008A800F007
:101C60003BF80121002000F003F817B000BD000090
:101C700070B504460D462CB1022C03D0042C01D0C3
:101C8000062C00D104E040F2DD11114809F0AAFE53
:101C90000DB1012D00D104E04FF4EF710C4809F0B3
:101CA000A1FE55B14FF0204050F8240040F0010053
:101CB0004FF0204141F8240009E04FF0204050F857
:101CC0002400044908404FF0204141F8240070BD31
:101CD000B0C70008FEFF0F0010B50446206840B1F1
:101CE0002068022805D02068042802D02068062831
:101CF00000D103E0B321C84809F074FE606810B158
:101D00006068022800D103E0B421C34809F06AFEEC
:101D1000A06828B1A068042802D0A068082800D1D3
:101D200003E0B521BC4809F05DFEE06810B1E06851
:101D3000102800D103E0B621B74809F053FE20690E
:101D400018B12069B0F5807F00D103E0B721B24817
:101D500009F048FE606918B16069B0F5004F00D124
:101D600003E0B821AC4809F03DFEA06918B1A069B4
:101D7000B0F5007F00D103E0B921A74809F032FE99
:101D8000E06918B1E069B0F5806F00D103E0BA21D5
:101D9000A14809F027FE206A18B1206AB0F5006F4B
:101DA00000D103E0BB219C4809F01CFE606A18B119
:101DB000606AB0F5805F00D103E0BC21964809F06D
:101DC00011FEA06A18B1A06AB0F5005F00D103E06F
:101DD000BD21914809F006FEE06A18B1E06AB0F54D
:101DE000804F00D103E0BE218B4809F0FBFD206B42
:101DF00018B1206BB0F5002F00D103E0BF21864859
:101E000009F0F0FD606B00680F2800D803E0C021E6
:101E1000814809F0E7FD606B40680F2800D803E0B7
:101E2000C1217D4809F0DEFD606B806820B1606BE8
:101E30008068FF2800D803E0C221774809F0D2FD6E
:101E4000606BC0680F2800D803E0C321724809F016
:101E5000C9FD606B00690F2800D803E0C4216E48FB
:101E600009F0C0FD606B40690F2800D803E0C52170
:101E7000694809F0B7FD606B806970B1606B80697B
:101E8000B0F1805F09D0606B8069B0F1005F04D071
:101E9000606B8069B0F1405F00D103E0C6215E480D
:101EA00009F0A0FDD4E901010843E1680843216974
:101EB000084361690843A1690843E1690843216A4D
:101EC0000843616A0843A16A0843E16A0843216B39
:101ED00008434FF02042216842F82100A0680828FA
:101EE00008D11146206851F8200040F040002168D8
:101EF00042F82100606B0068616B496840EA01109C
:101F0000616B896840EA0120616B898940EA014080
:101F1000616B098A40EA0150616B097D40EA01600A
:101F2000616B896908432168491C4FF0204242F8DF
:101F30002100E06AB0F5804F63D1A06B00680F28E4
:101F400000D803E0EA21344809F04CFDA06B40685A
:101F50000F2800D803E0EB212F4809F043FDA06BC8
:101F6000806820B1A06B8068FF2800D803E0EC21D6
:101F7000294809F037FDA06B00690F2800D803E05D
:101F8000ED21254809F02EFDA06B40690F2800D8EF
:101F900003E0EE21204809F025FDA06B806970B1B7
:101FA000A06B8069B0F1805F09D0A06B8069B0F14F
:101FB000005F04D0A06B8069B0F1405F00D103E006
:101FC000EF21154809F00EFDA06B0068A16B496870
:101FD00040EA0110A16B896840EA0120A16B098ADF
:101FE00040EA0150A16B097D40EA0160A16B89695B
:101FF00008434FF02042216802EB8101C1F804013F
:1020000008E06FF070404FF02042216802EB810140
:10201000C1F8040110BD0000B0C700082DE9F04F61
:1020200080460C4615461E46DDF824B0C2463019DF
:1020300083B2E81D82B23146284604F0F7FA4FF029
:10204000000918E000270EE00120B8409AF80010BF
:10205000084203D00A48A0F800B002E008490A98F4
:102060000880781CC7B2082FEEDB0AF1010A09F1DB
:10207000010000F0FF09A145E4DBBDE8F08F00009E
:10208000000002602DE9F04304460D4616461F4647
:10209000DDF81C803B4632462946204604F0C6FA4D
:1020A000301B791B00FB01F902E00548A0F8008015
:1020B0005FEA0900A9F10109F7D1BDE8F08300004A
:1020C0000000026070B50B46044603E014F8015BA3
:1020D00003F8015B1500A2F10106B2B2F6D170BDA2
:1020E0002DE9F0470646884614460027C146FFF70B
:1020F00075FD2046E11704EBD151C1F34F27E117DD
:1021000004EBD1514912B4EB412101D0781C87B2C4
:10211000002507E04FF4007101FB0760FFF7C2FCE8
:10212000681C85B2BD42F5DB002508E039F8021BCA
:102130002A466B1C9DB206EB4200FFF71DFD2000F6
:10214000A4F101018CB2F1D1FFF70CFDBDE8F087DD
:1021500070B504460025107820B116782068B0FBD1
:10216000F6F085B22068084420601078984203DABF
:102170001078401C107002E02068401B2060167828
:102180002068B0FBF6F080B270BD0FB438B50446DD
:1021900006A800902046009A059908F041FC00200E
:1021A000009038BC5DF814FB2DE9F05F05460C4645
:1021B0004FF00009CA4600260027B046B3465948EA
:1021C000854211D0584885420ED0584885420BD0E0
:1021D0005748854208D05748854205D05648854221
:1021E00002D05648854200D103E0B221544809F09C
:1021F000F9FBE078A0B1E078042811D0E078282835
:102200000ED0E07848280BD0E078142808D0E07889
:10221000102805D0E0781C2802D0E078182800D1DA
:1022200003E0B321464809F0DDFB002010B9208807
:1022300000B103E0B421424809F0D4FBE07800F09B
:102240000F09E07810F0100F10D0A078012805D009
:10225000A078022802D0A078032800D103E0BB2197
:10226000374809F0BFFBA07840EA0909207838B365
:10227000D5F8008000261FE0012000FA06F720882C
:1022800000EA070ABA4516D1B7000F2000FA07FB8B
:1022900028EA0B0809FA07F040EA0808E07828283D
:1022A00003D10120B040686105E0E078482802D100
:1022B0000120B0402861761C082EDDD3C5F80080CF
:1022C0002088FF282BDDD5F80480002623E006F1C6
:1022D0000800012101FA00F7208800EA070ABA4540
:1022E00018D1B7000F2000FA07FB28EA0B0809FAFB
:1022F00007F040EA0808E078282803D106F1080032
:1023000081406961E078482804D106F10800012184
:1023100081402961761C082ED9D3C5F80480BDE818
:10232000F09F000000080140000C01400010014037
:102330000014014000180140001C01400020014031
:1023400084C5000838B5044636E01D4A6068811A25
:10235000904217D009DC1B4940180DD0B0F5806FB2
:102360000CD0B0F5006F13D10AE0B1F5806F0BD03F
:10237000B1F5006F0CD109E0042509E0082507E05C
:10238000102505E0202503E0402501E0802500BF61
:1023900000BF45F00100012103F0F4FB20788DF827
:1023A00002002089ADF8000060788DF803006946CE
:1023B0006068FFF7F9FE0C3420780028C5D138BDDD
:1023C0000014014000F8FEBF70B505460C4600261B
:1023D0002848854211D0284885420ED0274885429A
:1023E0000BD02748854208D02648854205D026488C
:1023F000854202D02548854200D104E04FF48F7118
:10240000234809F0EFFA012C25D0022C23D0042C0C
:1024100021D0082C1FD0102C1DD0202C1BD0402CDC
:1024200019D0802C17D0B4F5807F14D0B4F5007F7C
:1024300011D0B4F5806F0ED0B4F5006F0BD0B4F5A9
:10244000805F08D0B4F5005F05D0B4F5804F02D0AE
:10245000B4F5004F00D104E040F21F110C4809F020
:10246000C1FAA868204201D0012600E000263046CB
:1024700070BD000000080140000C01400010014048
:102480000014014000180140001C014000200140E0
:1024900084C5000870B504460D461348844211D027
:1024A000124884420ED0124884420BD01148844214
:1024B00008D01148844205D01048844202D0104808
:1024C000844200D104E040F279110E4809F08AFA02
:1024D000002008B905B104E04FF4BD71094809F0C6
:1024E00081FA656170BD000000080140000C0140E8
:1024F000001001400014014000180140001C014080
:102500000020014084C5000870B504460D461348FC
:10251000844211D0124884420ED0124884420BD01B
:102520001148844208D01148844205D010488442A2
:1025300002D01048844200D104E040F269110E48F4
:1025400009F050FA002008B905B104E04FF4B57164
:10255000094809F047FA256170BD000000080140F4
:10256000000C01400010014000140140001801401F
:10257000001C01400020014084C50008F0B504465D
:102580000A46002300200025214633E00E78252E40
:1025900002D10125461CB0B2012D2AD10E78642E3D
:1025A00006D1AC461E465F1CBBB202F806C0002531
:1025B0000E78662E07D14FF0020C1E465F1CBBB290
:1025C00002F806C000250E78732E07D14FF0030CD9
:1025D0001E465F1CBBB202F806C000250E78632EB3
:1025E00007D14FF0040C1E465F1CBBB202F806C0B8
:1025F0000025491C0E78002EC8D1F0BD02460021EE
:1026000005E0505C08B908467047481C81B24FF697
:10261000FF708142F5DB00BFF6E7014600200A7833
:10262000302A01DB012200E000220B78392B01DC8B
:10263000012300E000231A4203D00A781207100E8B
:1026400024E00A78412A01DB012200E000220B7815
:10265000462B01DC012300E000231A4204D00A7853
:10266000D21F1207100E11E00A78612A01DB012245
:1026700000E000220B78662B01DC012300E0002340
:102680001A4203D00A78D21F1207100E4A78302A55
:1026900001DB012200E000224B78392B01DC012311
:1026A00000E000231A4204D04A78303A0244D0B203
:1026B00024E04A78412A01DB012200E000224B7825
:1026C000462B01DC012300E000231A4204D04A78A3
:1026D000373A0244D0B211E04A78612A01DB012284
:1026E00000E000224B78662B01DC012300E0002390
:1026F0001A4203D04A78573A0244D0B270470000D9
:1027000070B59AB005460E46002440A20021284626
:1027100009F05AFC04464DA22146284609F054FC13
:1027200004464CA22146284609F04EFC04464B4A7A
:102730002146284609F048FC044649A2214628467D
:1027400009F042FC04464CA22146284609F03CFC14
:102750000446424A48322146284609F035FC0446E0
:102760003E4AC0322146284609F02EFC0446314636
:1027700001A801F057FF01AA2146284609F024FCD0
:10278000044649A22146284609F01EFC04464CA2F4
:102790002146284609F018FC04464EA22146284648
:1027A00009F012FC04464EA22146284609F00CFC12
:1027B000044654A22146284609F006FC044657A2C6
:1027C0002146284609F000FC0446604A2146284676
:1027D00009F0FAFB04465EA22146284609F0F4FB04
:1027E00004465EA22146284609F0EEFB04465DA29F
:1027F0002146284609F0E8FB04465CA2214628460B
:1028000009F0E2FB044620461AB070BD485454500B
:102810002F312E3020323030204F4B0D0A436F6E57
:1028200074656E742D547970653A20746578742FD0
:1028300068746D6C0D0A507261676D613A206E6F3D
:102840002D63616368650D0A0D0A00003C68746DB4
:102850006C3E00003C686561643E0000DCDB010802
:102860003C7469746C653EC7EBCAE4C8EB3C2F74DA
:1028700069746C653E0000003C626F64792062619F
:10288000636B67726F756E643D687474703A2F2F56
:102890003139322E3136382E302E332F696D673173
:1028A000322E6A70673E00003C2F464F4E543E3C2D
:1028B0002F5354524F4E473E3C2F503E3C503E000B
:1028C0003C485220636F6C6F723D23666630303037
:1028D000303E00003C63656E7465723E000000008F
:1028E0003C666F726D20616374696F6E3D22696E24
:1028F00070757422206D6574686F643D22706F730B
:1029000074223E003C5020616C69676E3D63656EC9
:10291000746572203E3C62723E0000003C494E509D
:102920005554207374796C653D22464F4E542D5397
:10293000495A453A20373270743B2057494454482D
:102940003A203530307078220000000010DD010898
:102950003C2F63656E7465723E0000003C2F666F0D
:10296000726D3E003C2F626F64793E003C2F6874AC
:102970006D6C3E002DE9F0419AB007460C460025EB
:1029800064A000680090002663A20021384609F088
:102990001BFB054670A22946384609F015FB054683
:1029A0006FA22946384609F00FFB05466E4A2946B4
:1029B000384609F009FB05466CA22946384609F05D
:1029C00003FB05466FA22946384609F0FDFA054685
:1029D0006EA22946384609F0F7FA0546624AC03227
:1029E0002946384609F0F0FA054601F079FDD0F89D
:1029F000008042462946384609F0E6FA05466FA2AD
:102A00002946384609F0E0FA054672A229463846BA
:102A100009F0DAFA054674A22946384609F0D4FAD4
:102A200005464CE073A22946384609F0CDFA054622
:102A30007D4A2946384609F0B9FA05467B4A2946B7
:102A4000384609F0B3FA054679A22946384609F016
:102A5000ADFA0546642096FBF0F100FB11600A21F7
:102A600090FBF1F03030C0B28DF800003046711CA0
:102A7000CEB20A2190FBF1F201FB12003030C0B25D
:102A80008DF801006A462946384609F08FFA054656
:102A900068A22946384609F097FA0546214601A85A
:102AA00001F0C0FD01AA2946384609F08DFA054615
:102AB00061A22946384609F087FA05460C34207A87
:102AC0000028AFD160A22946384609F07DFA0546B4
:102AD00060A22946384609F077FA05465DA22946E4
:102AE000384609F071FA05465CA22946384609F0D5
:102AF0006BFA05465BA22946384609F065FA054699
:102B00005AA22946384609F05FFA054628461AB007
:102B1000BDE8F08130310000485454502F312E3040
:102B200020323030204F4B0D0A436F6E74656E7447
:102B30002D547970653A20746578742F68746D6CC3
:102B40000D0A507261676D613A206E6F2D6361638B
:102B500068650D0A0D0A00003C68746D6C3E00004B
:102B60003C686561643E0000DCDB01083C7469740C
:102B70006C653E57656220CAB5D1E93C2F74697413
:102B80006C653E003C2F686561643E003C626F648A
:102B900079206261636B67726F756E643D687474EF
:102BA000703A2F2F3139322E3136382E302E332FC6
:102BB000696D6731322E6A70673E00003C2F464FC8
:102BC0004E543E3C2F5354524F4E473E3C2F503EA6
:102BD0003C503E003C485220636F6C6F723D236650
:102BE00066303030303E00003C5354524F4E473E2A
:102BF000000000003C5020616C69676E3D6C6566AA
:102C0000743E3C464F4E5420636F6C6F723D23669A
:102C100066303030302073697A653D373E3C412064
:102C2000687265663D220000B3000020D0000020DD
:102C30002F000000223E00003C2F413E3C2F464F1B
:102C40004E543E3C2F503E003C2F5354524F4E4763
:102C50003E0000003C62723E000000003C48523ED4
:102C6000000000003C2F626F64793E003C2F6874C6
:102C70006D6C3E000FB438B5044606A8009020469F
:102C8000009A059907F0CCFE00200090204600F045
:102C900067F8C0B238BC5DF814FB00002DE9FC5F9A
:102CA00005460026B346B1464FF07E5A44E015F87B
:102CB000014B2D2C01D101263EE02E2C02D14FF0EC
:102CC000010B39E0302C2EDB392C2CDCBBF1000F52
:102CD0000ED11F494846FDF7E2FA8146A4F13000C3
:102CE000FDF7DBFC07464946FDF781FA814623E004
:102CF0005046FDF74AFD0746164A174BFDF7ECFB19
:102D0000CDE90001FDF754FD8246A4F13000FDF746
:102D1000C4FC80465146FDF7C2FA07464946FDF716
:102D200066FA814608E026B10C494846FDF7B7FA35
:102D300081464846BDE8FC9F28780028B7DC26B1CC
:102D400006494846FDF7ABFA81464846F2E70000DF
:102D5000000020419A9999999999B93F000080BF44
:102D600010B5014600200A4601E0431C98B212F853
:102D7000014B002CF9D110BD002000210CE001EB2B
:102D80004102074B1B6803EB02121289012A01D092
:102D9000421CD0B24A1CD1B21429F0DB70470000AB
:102DA0006400002010B50246104605E00378802B31
:102DB00001DD801C00E0401C0B00A1F10104E1B228
:102DC000F4D110BD0246002039B950784FF6FF7398
:102DD00003EA00201378184306E010784FF6FF73DB
:102DE00003EA0020537818437047000030B50446CA
:102DF000EF2340F23F120021084603F017FC0025A4
:102E000002E0034804806D1CB5F5963FF9D330BD50
:102E10000000026008B501217C2002F0B3FE2020F2
:102E2000ADF8000010208DF8030003208DF802009B
:102E300069463148FFF7B8F942F24800ADF80000A2
:102E400069462E48FFF7B0F90120ADF80000694649
:102E50002B48FFF7A9F90220ADF800006946284881
:102E6000FFF7A2F94CF23370ADF8000003208DF8A3
:102E7000020018208DF8030069462048FFF794F9F6
:102E80004FF68070ADF8000069461D48FFF78CF9D9
:102E90008020ADF8000069461848FFF785F94FF427
:102EA0000060ADF8000069461448FFF77DF9802105
:102EB0001248FFF729FB4CF203011048FFF724FBEF
:102EC0004FF4F0610E48FFF71FFB01210C48FFF79C
:102ED000E1FA02210A48FFF7DDFA10210748FFF75F
:102EE00013FB20210548FFF70FFB4FF40051034867
:102EF000FFF7D0FA08BD00000010014000140140A7
:102F00000018014010B5FFF785FF0121080202F00B
:102F1000E5FD0121084602F035FEFEF77EFE0221A6
:102F2000FE48FFF7B7FAFE48FEF707FA0221FB4812
:102F3000FFF7EAFAFA48FEF700FA1420FEF7FDF967
:102F4000CF204FF0C04108801420FEF7F6F9002092
:102F5000F44908801420FEF7F0F98120F149088037
:102F60001420FEF7EAF93020EE4908801420FEF71D
:102F7000E4F9ED204FF0C04108801420FEF7DDF9A0
:102F80006420E84908801420FEF7D7F90320E549BA
:102F900008801420FEF7D1F91220E249088014209D
:102FA000FEF7CBF98120DF4908801420FEF7C5F930
:102FB000E8204FF0C04108801420FEF7BEF98520BC
:102FC000D84908801420FEF7B8F91020D5490880A8
:102FD0001420FEF7B2F97820D24908801420FEF7B9
:102FE000ACF9CB20410708801420FEF7A6F9392060
:102FF000CC4908801420FEF7A0F92C20C94908808C
:103000001420FEF79AF90020C64908801420FEF724
:1030100094F93420C34908801420FEF78EF9022069
:10302000C04908801420FEF788F9F7204FF0C0410E
:1030300008801420FEF781F92020BA490880142066
:10304000FEF77BF9EA204FF0C04108801420FEF71C
:1030500074F90020B34908801420FEF76EF90020AF
:10306000B04908801420FEF768F9B1204FF0C04144
:1030700008801420FEF761F90020AA490880142076
:10308000FEF75BF91B20A74908801420FEF755F9CD
:10309000B620010708801420FEF74FF91420FEF730
:1030A0004CF90A209F4908801420FEF746F9A22017
:1030B0009C4908801420FEF740F91420FEF73DF9E2
:1030C000C020C10508801420FEF737F93520954946
:1030D00008801420FEF731F9C1204FF0C04108806C
:1030E0001420FEF72AF911208E490880C5204FF0E0
:1030F000C041088045208B4908801420FEF71DF947
:10310000452088490880C7204FF0C041088014201E
:10311000FEF713F9A22083490880F2204FF0C04146
:1031200008801420FEF709F900207E490880142049
:10313000FEF703F92620010708801420FEF7FDF8AA
:103140000120784908801420FEF7F7F8E0204FF0BE
:10315000C04108801420FEF7F0F80F207149088064
:1031600026200880242008800B2008800E2008805C
:103170000920088054200880A82008804620088064
:103180000C20088017200880092008800F20088064
:1031900007200880002008801420FEF7CEF8E120E8
:1031A0004FF0C041088000205E4908801920088047
:1031B0001B20088004200880102008800720088039
:1031C0002A200880472008803920088003200880B2
:1031D00006200880088030200880382008800F20D2
:1031E00008801420FEF7A9F8362001070880142073
:1031F000FEF7A3F868204B4908801420FEF79DF8DD
:103200002A204FF0C04108801420FEF796F80020D5
:10321000444908801420FEF790F8002041490880B6
:103220001420FEF78AF801203E4908801420FEF79A
:1032300084F83F203B4908801420FEF77EF81420D4
:10324000FEF77BF82B20410708801420FEF775F865
:103250000020344908801420FEF76FF8002031491F
:1032600008801420FEF769F800202E4908801420F9
:10327000FEF763F8EF202B4908801420FEF75DF875
:103280003A204FF0C04108801420FEF756F8552030
:10329000244908801420FEF750F811204FF0C04157
:1032A00008801420FEF749F81420FEF746F829207C
:1032B0004FF0C04108801420FEF73FF81420FEF7BD
:1032C0003CF81420FEF739F81420FEF736F81420E5
:1032D000FEF733F81420FEF730F81420FEF72DF82F
:1032E0001420FEF72AF81420FEF727F81420FEF722
:1032F00024F81420FEF721F81420FEF71EF8002011
:1033000003F0B4F9002003F0B1F9002003F0AEF9A6
:10331000002003F0ABF92C20C10605E000180140A5
:10332000FCBF0200000002600880002404E00020CE
:103330004FF0C0410880641CB4F5963FF7D310BD30
:1033400001E000F00FFDFCE770B506463446354657
:103350000DE02078252806D1601CFFF75EF905F8FE
:10336000010BE41C03E014F8010B05F8010B2078B5
:103370000028EED1287070BD10B5032101A0FDF723
:103380000DFF10BD493243315F45525F49525148EC
:10339000616E646C6572000010B5032101A0FDF739
:1033A000FDFE10BD493243315F45565F49525148D9
:1033B000616E646C6572000010B5032101A0FDF719
:1033C000EDFE10BD493243325F45525F49525148CC
:1033D000616E646C6572000010B5032101A0FDF7F9
:1033E000DDFE10BD493243325F45565F49525148B8
:1033F000616E646C657200002DE9F04105460E4671
:1034000017462C460020207020210948FEF7DCFFDB
:1034100018B9207840F00100207040210448FEF7E0
:10342000D3FF18B9207840F002002070BDE8F08189
:10343000001801402DE9F04104460E461746254686
:10344000287810F0010F04D008211248FFF722F865
:1034500003E008210F48FFF757F8287810F0020F13
:1034600004D010210B48FFF715F803E0102109489C
:10347000FFF74AF8287810F0040F04D020210548FF
:10348000FFF708F803E020210248FFF73DF8BDE808
:10349000F08100000010014002460B4600210AE0C6
:1034A000505C984201D108467047505C08B9002032
:1034B000FAE7481CC1B2F3E730B503460C460021D9
:1034C00013E0585C802805DA585C2578A84201D1C1
:1034D000084630BD585C802805DB585A2588A8422C
:1034E00001D10846F5E7481CC1B21000A2F1010560
:1034F000EAB2E6D1FF20ECE72DE9F043B3B007468E
:103500000E461446C822002101A8FDF729FB14F03D
:10351000010F03D001A92FA003F02EF914F0020F20
:1035200003D001A92CA003F027F914F0040F03D055
:1035300001A92AA003F020F914F0080F03D001A973
:1035400029A003F019F914F0100F03D001A92DA040
:1035500003F012F914F0200F07D005F0AFFB01A91A
:10356000D0F81090484603F007F914F0400F03D04C
:1035700001A92BA003F000F901A92AA003F0FCF88F
:1035800001A8FFF7EDFB00F0FF08262F0ED13178E0
:1035900001A8FFF781FF0546681CC5B2A8F101002C
:1035A000A84200DC002501A8405D3070282F0DD115
:1035B000317801A8FFF770FF054615B9A8F10100A1
:1035C000C5B2681EC5B201A8405D307033B0BDE819
:1035D000F08300002E0000002D0000003031323357
:1035E0003435363738390000616263646566676870
:1035F000696A6B6C6D6E6F707172737475767778C3
:10360000797A00004142434445464748494A4B4C79
:103610004D4E4F505152535455565758595A000019
:103620000D0A00000A0000002DE9F047B2B0804604
:10363000894615464E46C82200216846FDF790FA95
:1036400015F0010F03D069463CA003F095F815F082
:10365000020F03D069463AA003F08EF815F0040F6C
:1036600003D0694637A003F087F815F0080F03D0A0
:10367000694637A003F080F815F0100F03D06946B3
:103680003AA003F079F815F0200F07D005F016FBEB
:103690006946D0F810A0504603F06EF86846FFF770
:1036A0005FFBC7B2781CC7B23A4631466846FFF79F
:1036B00003FF0446FF2C00D10024B8F1260F16D1D9
:1036C0001DF80400802802DA601CC4B201E0A01CCE
:1036D000C4B2BC4200DB00241DF80400802803DAD9
:1036E0001DF80400307002E03DF804003080B8F1AD
:1036F000280F17D1A01E1DF80000802802DA601ED6
:10370000C4B201E0A01EC4B2FF2C00D13C461DF89B
:103710000400802803DA1DF80400307002E03DF850
:10372000040030803A4631466846FFF7C5FE04463D
:10373000FF2C00D1002432B0BDE8F0872E0000003D
:103740002D0000003031323334353637383900003F
:103750006162636465666768696A6B6C6D6E6F70E1
:103760007172737475767778797A000041424344B8
:1037700045464748494A4B4C4D4E4F505152535481
:1037800055565758595A0000F0B504460F4615468D
:103790001E4606E02046621C94B23246394602F0CC
:1037A000B1FE2800A5F101018DB2F3D1F0BDF0B555
:1037B00007460C4615461E4606E02146621C94B29A
:1037C0003246384602F09EFE2800A5F101018DB276
:1037D000F3D1F0BDF8B504460D461646052E5BD272
:1037E000DFE806F0030A1132390001232B4A29468B
:1037F000204600F0CBFA4FE00123294A2946204613
:1038000000F0C4FA48E005F05FFA078ADFF88CC0E0
:103810000097BCF802C0AC440CF1010C1FFA8CF309
:10382000DFF878C0BCF800C0A4440CF1010C1FFA0A
:103830008CF2A5F1010C1FFA8CF1A4F1010C1FFA16
:103840008CF003F0C9F927E00023144A29462046EA
:1038500000F09CFA20E005F037FA8789DFF83CC0D9
:103860000097BCF802C0AC440CF1010C1FFA8CF3B9
:10387000DFF828C0BCF800C0A4440CF1010C1FFA0A
:103880008CF2A5F1010C1FFA8CF1A4F1010C1FFAC6
:103890008CF003F0A1F900BF00BFF8BDD2CB010846
:1038A000F6CE01082DE9F04104460F4627B1012F5D
:1038B0001DD0022F1AD160E0002514E000260DE093
:1038C0006288A37905FB032291B2228806FB0322BA
:1038D00090B20322FFF77EFF701C86B26079B0427F
:1038E000EEDC681C85B22079A842E7DC84E0E07E4B
:1038F000022832D1E07D617E884201D0012000E0C3
:103900000020217EA27E914201D0012100E0002111
:10391000084331D06288A37E94F806C003FB0C22D2
:1039200091B22288637E03FB0C2290B20422FFF73F
:1039300051FF6288237E94F806C003FB0C2291B2EB
:103940002288E37D03FB0C2290B20222FFF742FFA4
:10395000E07D6076207EA0760EE06288A37E94F8FB
:1039600006C003FB0C2291B22288637E03FB0C226B
:1039700090B20422FFF72EFF3EE0002538E0E01D64
:10398000415D0830405D814230D0002627E0E01DD7
:10399000415D0120B040084004F10F014A5D012162
:1039A000B1400A40904218D0E31D5B5D4FF0010C1E
:1039B0000CFA06FC13EA0C0F01D0012300E00023EF
:1039C0001A46638894F806C005FB0C3399B2238825
:1039D00006FB0C3398B2FFF7FDFE701C86B26079CF
:1039E000B042D4DCE01D415D08304155681C85B211
:1039F0002079A842C3DC00BF00BFBDE8F081000011
:103A00002DE9F04788B004460F461C22484901A81A
:103A1000FCF7CCFB47480068408C6188401A0621BF
:103A200090FBF1F000F0FF084349887F03F0BEF9F6
:103A300000254BE0AF4204D105F046F90121417069
:103A400003E005F041F9002141700420DFF8E4C0F3
:103A50000090DCF800C0BCF81E9005F1010C0CFBD6
:103A6000089C1FFA8CF3DFF8CCC0DCF800C0BCF86F
:103A70001EC005FB08CC1FFA8CF1DFF8B8C0DCF8DB
:103A800000C0BCF82020DFF8ACC0DCF800C0BCF8F7
:103A900020C0ACF1640C1FFA8CF003F04FFAE07E0A
:103AA000042801D1012000E000200DB9012100E02F
:103AB0000021084203D0079801F07CFC04E001A932
:103AC00051F8250001F076FC681CC5B2062DB1DB6B
:103AD00005F0FAF8818905F0F7F8C089814203D131
:103AE00005F0F2F8868901E01348868B0096B4F859
:103AF00002C094F8059094F806A009FB0ACC1FFABE
:103B00008CF309FB0AFC0CF1030C1FFA8CF2B4F8DD
:103B100002C0ACF1030C1FFA8CF1B4F800C0ACF198
:103B2000020C1FFA8CF003F057F808B0BDE8F087DC
:103B3000A0DA0108FC000020E09D00202DE9FF4FE5
:103B40000446884691460020002300217CE00022A4
:103B500074E0002543E000263BE001EB050A0AF093
:103B6000FF07012F00DA0827082F00DD012702EBED
:103B7000060A0AF0FF0CBCF1010F01DA4FF0080C45
:103B8000BCF1080F01DD4FF0010C012D01D1AA4657
:103B900001E04FF0000A012E01D1B34601E04FF0E1
:103BA000000B1AEA0B0F10D1A7F1010A18F80AA0AE
:103BB000ACF1010B4FF0010E0EFA0BFE1AEA0E0FDC
:103BC00003D003F1010A0AF0FF0306F1010A0AF02B
:103BD000FF06032EC1DB05F1010A0AF0FF05032DE4
:103BE000B9DB032B0DD114F801A04FF0010B0BFA38
:103BF00002FB4AEA0B0A04F801A000F1010A0AF0EC
:103C0000FF00022B09DA14F801A04FF0010B0BFAA8
:103C100002FB2AEA0B0A04F801A0032B09DD14F8C1
:103C200001A04FF0010B0BFA02FB2AEA0B0A04F881
:103C300001A0002302F1010A0AF0FF024A4588DBD5
:103C400001F1010A0AF0FF01DDF80CA05145FFF671
:103C50007EAF04B0BDE8F08F10B50446002004F03C
:103C60000FFC2279E11D0248FCF769FF10BD00003E
:103C7000069E002010B5044622790449E01DFCF799
:103C80005EFF002004F0ECFC10BD0000069E00204A
:103C90007047704770B505460C46022C00DA03E009
:103CA000662105A007F09EFE23462A4608490948DA
:103CB00000F012F870BD00002E2E5C546F6F6C7314
:103CC0005C417070436F6E6669672E630000000090
:103CD00000F80708C52000082DE9F047804689460E
:103CE00016461D46022D00DA03E0522117A007F008
:103CF00079FE374609EBC52004223146C0473C46D1
:103D00002088B0F5006F01DD012000E0002021884F
:103D1000042901DA012100E00021084300D012E06B
:103D2000228809EBC5203146C0472088001F81B298
:103D3000381D04F075FF82466188514500D002E0CD
:103D40000120BDE8F0870020FBE700002E2E5C5428
:103D50006F6F6C735C417070436F6E6669672E6342
:103D60000000000071B600BF0648006800F4E06083
:103D700005490843001D03490860BFF3408F00BF99
:103D800000BFFEE70CED00E00000FA052DE9FF4F53
:103D900083B082460F469346D846B8F80060B8F81C
:103DA0000290069807287DD2DFE800F004153D68F0
:103DB00094B5D80004F088FF80890290009007EB4A
:103DC0000900401C83B20AEB060082B23946504615
:103DD00002F082FFEBE0002522E000241CE0B4F5B5
:103DE000A07F17DAF02F15DA04F06EFF418A05FB89
:103DF0000640801C38F8100081420BD005FB0643BA
:103E00009B1C38F81320EB1999B204EB0A0398B203
:103E100002F078FB601C84B2B442E0DB681C85B21F
:103E20004D45DADBC3E0002525E000241FE0B4F5B2
:103E3000A07F1ADAF02F18DA04F046FF418A05FB5A
:103E40000640801C38F81000C04381420DD005FBAD
:103E500006439B1C38F81330DB439AB2EB1999B236
:103E600004EB0A0398B202F04DFB601C84B2B4422A
:103E7000DDDB681C85B24D45D7DB98E0002526E0E8
:103E8000002420E0B4F5A07F1BDAF02F19DA04F04B
:103E90001BFF418A05FB0640801C38F81000814258
:103EA0000FD000E082E005FB06439B1C38F813208E
:103EB000EB1999B20AEB06035B1E1B1B98B202F0CA
:103EC00021FB601C84B2B442DCDB681C85B24D452A
:103ED000D6DB6CE000251BE0002415E0B4F5A07FE4
:103EE00010DAF02F0EDA05FB06439B1C38F813207E
:103EF00007EB09035B1E5B1B99B204EB0A0398B244
:103F000002F000FB601C84B2B442E7DB681C85B29F
:103F10004D45E1DB4BE000251DE0002417E0B4F542
:103F2000A07F12DAF02F10DA05FB06439B1C38F84D
:103F3000132007EB09035B1E5B1B99B20AEB060318
:103F40005B1E1B1B98B202F0DDFA601C84B2B44207
:103F5000E5DB681C85B24D45DFDB28E0002522E06B
:103F600000241CE0B4F5A07F17DAF02F15DA04F076
:103F7000ABFE418A05FB0640801C38F810008142E8
:103F80000BD005FB06439B1C38F81320EB1999B2A4
:103F900004EB0A0398B202F0B5FA601C84B2B44292
:103FA000E0DB681C85B24D45DADB00E000BF00BFF6
:103FB00007B0BDE8F08F000010B50446484800681F
:103FC0000078FF2801D102F097FC02F09FFC4448E2
:103FD0000068406942490968896988421DD001200A
:103FE00000F036FD3E490968886900F007FE0020B0
:103FF00000F02EFD3A490968486900F0FFFD384895
:104000000068406936490968886135480068007869
:1040100020F00100324909680870314800680078D2
:1040200010F0010F0FD0002000F012FD2C4909689C
:10403000486900F0E3FD2A480068007820F001009C
:10404000274909680870264800680069A04219D00D
:10405000012000F0FDFC22490968086900F042F8DF
:10406000002000F0F5FC204600F03CF81C480068F9
:1040700004611B480068007820F0020018490968B4
:10408000087015E016480068007810F0020F0FD095
:10409000002000F0DDFC12490968C86800F022F831
:1040A0000F480068007820F002000D490968087088
:1040B0000B480068007810F0080F0FD0002000F0C7
:1040C000C7FC07490968C86800F00CF80448006894
:1040D000007820F0080002490968087010BD00004F
:1040E000FC000020F0B59BB0064634460CB91BB06E
:1040F000F0BD4049887F02F059FE00203E4A009002
:104100001268D18B3C4A1268908BF0234FF4A07256
:1041100002F014FF38480068817937480068401C75
:10412000405C3549096891F8241090FBF1F0C5B264
:104130003148006890F82400684300EB400004EB2D
:1041400080042E480078854214D004F0BDFD878994
:10415000294A00971268D28B521C91B2264A1268E3
:10416000928B521C90B2EE234FF49F7202F0B4FD7A
:1041700022480570012533E01F480068C1681E48C9
:10418000006882791C480068401C805C00EB40009D
:1041900001EB8000A04204D104F096FD01214170A2
:1041A00003E004F091FD00214170214602A800F0D7
:1041B00039FA02A801F0FEF8681CC0B205460E49A3
:1041C000096891F82410884200DD0CE00C3404F0FA
:1041D0007BFD811D04F072FD00780A881044088080
:1041E000207A0028C8D100BF04F06EFD0021417084
:1041F00000BF7CE7E09D0020FC000020D7000020ED
:1042000070B50446207A0B2846D007DC072837D241
:10421000DFE800F0990D37997162510016380728D0
:10422000F5D2DFE800F0339071908A7A8200474837
:104230000068C068454909680861607A43490968AF
:10424000897988420CDD607A4049096888710021CB
:104250003E48006882793D480068401C815403E074
:10426000607A3A4909688871384960680968C860A5
:1042700036480068007840F0020034490968087048
:1042800061E0606808B1606880475CE0606810B118
:10429000607A6168884756E061680878FCF706FA3A
:1042A0000646617A042200F0EBFA0546FCF73AFA7A
:1042B0006168087047E0616891F90000FCF7EDF96A
:1042C0000646617A062200F0DBFA0546FCF711FA91
:1042D00040B26168087036E061680888FCF7E6F96A
:1042E0000646617A042200F0CBFA0546FCF71AFA7A
:1042F0006168088027E0617A62681068072200F030
:10430000BFFA616808601EE06068007808B90120A3
:1043100000E000206168087015E061680868052108
:1043200000F0F0F8616808600DE061680888052118
:1043300000F048F86168088005E0617A372260681B
:1043400000F01CFA00BF00BF70BD0000FC000020A0
:104350002DE9FE4F04460E4615461F46DDE90C9A30
:1043600017480068C089029000200190281B1FFA9E
:1043700080F8B81B1FFA80FBD8451EDD1BE008FB48
:104380000AF090FBF9F20198411C89B20191824236
:1043900003DA0B4800688089029002983B46224667
:1043A00031460090204602F0DFFF2046611C8CB2AF
:1043B000A84200DB00E0E2E700BFBDE8FE8F00009E
:1043C000D80000202DE9F04389B007468846002434
:1043D0000C263DA000F028FB1222002104A8FCF7C7
:1043E000BFFBB8B202F070FA0390B8B202F06CFAF8
:1043F0000290B8B202F068FA01909DF80E000090A9
:104400009DF809309DF8042031A104A8FEF732FC84
:104410004BE0002000F01CFB701CC1B2224604A837
:1044200001F050F8002000F0EBF80546252D02D1F0
:104430000CB1601EC4B2272D03D1B44201DA601C56
:10444000C4B2B44216D1262D01D1012000E00020D3
:10445000282D01D1012100E0002108430AD00020CD
:104460008DF81B0004A802F0B5F98146FCF746FB65
:1044700007461BE064B9262D01D1012000E0002091
:10448000282D01D1012100E00021084300D00DE0DA
:10449000B44206DA601E04AA811842462846FFF795
:1044A0002BF80021701E04AA1154B2E700BF0120AE
:1044B00000F0CEFA701CC1B2012204A801F002F88B
:1044C000384609B0BDE8F083507574496E000000AD
:1044D000253033642E253033642E253033640000BC
:1044E00030B507480068C46805490968C86800F025
:1044F0008FFA054605EB450004EB800030BD000057
:10450000FC000020F3B587B00F460024102635A02C
:1045100000F08AFA1222002102A8FCF721FB9DF884
:104520001C009DF81D10CDE900109DF81E309DF86F
:104530001F202EA102A8FEF79DFB45E0002000F001
:1045400087FA701CC1B2224602A800F0BBFF00200F
:1045500000F056F80546252D02D10CB1601EC4B2FC
:10456000272D03D1B44201DA601CC4B2B44210D189
:10457000262D01D1012000E00020282D01D10121AC
:1045800000E00021084304D002A802F023F90790BC
:104590001BE064B9262D01D1012000E00020282D68
:1045A00001D1012100E00021084300D00DE0B44218
:1045B00006DA601E02AA81183A462846FEF79CFFDA
:1045C0000021701E02AA1154B8E700BF012000F0BC
:1045D0003FFA701CC1B2012202A800F073FF0798D5
:1045E00009B0F0BD507574496E0000002530336489
:1045F0002E253033642E253033642E25303364006D
:1046000070B5054625B1284604F054FE044602E084
:1046100004F01AFE044614B16668707870BD00207C
:10462000FCE700002DE9FF4105460C46207A0C28E6
:1046300037D008DC78D2DFE800F09615969628216E
:1046400061969647961A1A2838D006DC0D282FD086
:10465000172840D0182867D146E01B2856D01C28C0
:10466000F9D162E028462168FDF78FFD80E060689F
:10467000027828462168FDF788FD79E060680288A5
:1046800028462168FDF781FD72E061680868FCF743
:104690007CF806460B46324628462168FDF775FD34
:1046A00066E06068027828462168FDF76EFD5FE0ED
:1046B0002846D4E90012FDF768FD59E02846D4E900
:1046C0000012FDF762FD53E0606802682846216829
:1046D000FDF75BFD4CE060688047064632462846A1
:1046E0002168FDF752FD43E060680078224B53F8E3
:1046F000202028462168FDF748FD39E0606890F9E0
:10470000002028462168FDF740FD31E06068007810
:1047100061684978CDE9001060688378C2782846DE
:104720002168FDF732FD23E01DE06168098888B249
:1047300002F0CAF803906168098888B202F0C4F8F0
:1047400002906168098888B202F0BEF801909DF875
:104750000E0000909DF809309DF80420284621683D
:10476000FDF713FD04E028462168FDF70EFD00BFAC
:1047700000BFBDE8FF810000900000202DE9F04758
:1047800086B080460E46914600243BA000F04CF9CE
:104790001222002101A8FCF7E3F901A9404601F02B
:1047A000D9FF5BE0002000F053F9B01CC7B201A8AC
:1047B000805D802802DD2D2001A98855701E01A989
:1047C000085C802801DA0020885523463A463146A5
:1047D00001A800F04FFF0020FFF712FF0546252D2E
:1047E00002D10CB1601EC4B2272D04D1781EA042A4
:1047F00001DD601CC4B2781EA04210D1262D01D16B
:10480000012000E00020282D01D1012100E000213D
:10481000084304D0414601A801F09CFF1FE064B9A1
:10482000262D01D1012000E00020282D01D10121F9
:1048300000E00021084300D011E0BC420ADA601E0B
:10484000C1B201A8FEF7AEFA82464A465146284652
:10485000FEF7EAFE0021781E01AA1154A2E700BF6C
:10486000012000F0F5F823463A46314601A800F051
:1048700001FF06B0BDE8F087507574496E00000076
:104880002DE9FE4F81460D4692460024681CC5B2B4
:1048900033A000F0C9F80A2200216846FCF760F94D
:1048A0004846FBF772FF07463A460B462EA168467C
:1048B000FEF7E0F945E0002000F0CAF8681CC1B23C
:1048C0002246684600F0FEFD0020FFF799FE0646EE
:1048D000252E02D10CB1601EC4B2272E03D1AC42EA
:1048E00001DA601CC4B2AC4210D1262E01D10120E5
:1048F00000E00020282E01D1012100E00021084322
:1049000004D06846FEF7CAF981461BE064B9262E3A
:1049100001D1012000E00020282E01D1012100E07A
:104920000021084300D00DE0AC4206DA601E6A4662
:10493000811852463046FEF7DFFD0021681E0DF853
:104940000010B8E700BF012000F082F8681CC1B277
:104950000122684600F0B6FD4846BDE8FE8F000023
:10496000507574496E000000252E3366000000006B
:1049700070B50546FF2023490968087022A0214927
:1049800009684861002406E000211E480068401CB8
:104990000155601CC4B2052CF6DB002019490968DA
:1049A000887118480068C5601849887F02F0FEF9D0
:1049B0000020144909688883322012490968C88395
:1049C0004FF4A0700F4909680884F0200D49096868
:1049D000488404F073F900780A490968498C094A47
:1049E0001268D28B891A91FBF0F00649096881F8A8
:1049F000240002200349096881F82500012002F003
:104A00000BFA70BDFC00002020000000E09D00209B
:104A1000014600200A4602E00C32431CD8B2137A49
:104A2000002BF9D17047000010B504460748006814
:104A3000007840F0020005490968087003480068E2
:104A400044610020FFF7B8FA10BD0000FC00002010
:104A500030B5044634B9084D6B8BEA8A298BA88A95
:104A600002F094F9012C06D1034D6B8BEA8AE98A96
:104A7000E88A02F08BF930BDE09D00200646B14681
:104A8000282000F041FA5C490860092000F03CFA57
:104A90008046182000F038FA0746002507E005EBAD
:104AA0004500404407EBC5014860681CC5B2032DB2
:104AB000F5DB0321384604F0A5FA01F027FF04F0E6
:104AC000B9FB04F0ADFB002003F0DAFC0120FFF796
:104AD000BFFF01F011FF4846FFF74AFF8BE0FFF7E9
:104AE000FFFC006844490968486143490968C8688F
:104AF000FFF762FA40490968C868FFF789FF3E4935
:104B00000968C8710020FFF77BFD0446282C25D1D9
:104B100039480068C079401E374909688A793649A2
:104B20000968491C895C884210DD33480068817936
:104B300031480068401C405C401CC1B22E480068EF
:104B400082792D480068401C815407E000212A48E2
:104B50000068827928480068401C8154262C24D1A2
:104B600025480068817924480068401C405C80B179
:104B700021480068817920480068401C405C401E44
:104B8000C1B21D48006882791B480068401C8154EE
:104B90000BE019480068C079401EC1B21648006891
:104BA000827915480068401C8154272C0FD1124986
:104BB0000968CA68104909688B790F490968491C56
:104BC000C95C01EB410102EB8100FFF719FB252CC9
:104BD00007D1002108480068827907480068401C16
:104BE000815405480068007840F0020002490968D5
:104BF000087003F08DFC72E7FC00002038B5044615
:104C000004B938BD154DAB8B154D2D682A8C144D4C
:104C10002D68E98B124D2D68A88BFEF7B5FD0F4866
:104C2000808BF0234FF4A07200210090084601F021
:104C3000D3FF0A49C87F02F0B9F804200090084861
:104C40000068C38B06480068028C0021084602F009
:104C500075F9204600F0AEFB00BFD2E7E09D0020D2
:104C6000FC0000202DE9FC4706460D463046FFF7C4
:104C7000DBFE002499E00020FFF7EAFE1E20DFF8AB
:104C8000D4C1CDE90004DCF800C0BCF81EC0CCF1F2
:104C9000F00808EBD87CDFF8BC91D9F80090B9F89F
:104CA0001E9009EB6C0C0CF10A0C1FFA8CF3DFF868
:104CB000A4C1DCF800C0BCF81EC0CCF1F00707EBC3
:104CC000D77CDFF89091D9F80090B9F81E9009EBE5
:104CD0006C0C1FFA8CF1DFF87CC1DCF800C0BCF86A
:104CE00020C0ACF1020C1FFA8CF2DFF868C1DCF8CE
:104CF00000C0BCF81CC00CF1010C1FFA8CF0FFF7CF
:104D000027FB5549887F02F051F804EB84008001AD
:104D10001E2190FBF1F028301FFA80F8012000904E
:104D20004C480068C08BC0F1F00707EBD770494AC8
:104D30001268D28B02EB60000A3081B2F023424647
:104D4000002002F0FBF80020FFF782FE2046FBF770
:104D5000ADFC82464149FBF7A2FA81464049FBF788
:104D6000D4FA8046FBF7DEFCC7B239463DA000F01E
:104D700021FB284604F076F90120FFF769FE204662
:104D8000FBF794FC82463549FBF789FA074634491C
:104D9000FBF7BBFA8146FBF7C5FC00F0FF08414674
:104DA00030A000F007FB601CC4B21E2CFFF663AFFE
:104DB00003F08AFFB0F80C90DFF898C0CDF80090AF
:104DC000DCF800C0BCF81EC0CCF1F00707EBD77CC4
:104DD000DFF880A0DAF800A0BAF81EA00AEB6C0C8D
:104DE0000CF10A0C1FFA8CF3DFF868C0DCF800C085
:104DF000BCF81EC0CCF1F00808EBD87CDFF854A05A
:104E0000DAF800A0BAF81EA00AEB6C0C1FFA8CF1BD
:104E1000DFF840C0DCF800C0BCF820C0ACF1020CE8
:104E20001FFA8CF2DFF82CC0DCF800C0BCF81CC004
:104E30000CF1010C1FFA8CF001F04EFFFF20054928
:104E40000968087003490968C868FFF7B5F8BDE844
:104E5000FC870000FC000020E09D00200000C8420C
:104E60000000F041256425252000000000BFFEE77A
:104E7000054A1168486802E009684A6810440A68EF
:104E8000002AF9D170470000740000202DE9F0419C
:104E900004460D46284600F037F80646A4F10807F8
:104EA000B888083882B231462046FBF748FE2046D3
:104EB00000F004F83046BDE8F081000002460A4BDD
:104EC0001868002106E0A2F10803834200D107E040
:104ED000014600680368002BF5D101B10B607047F3
:104EE00003680B6000BFFAE7740000200549086002
:104EF0000021044A126811600821024A12685160B8
:104F0000704700007400002010B503461048016887
:104F100003F1080083B20FE00868401A4C68001BD8
:104F2000984208D3486842185360086810600A60C5
:104F300002F1080010BD096808680028ECD1486833
:104F400042180020106053600A6002F10800F1E787
:104F5000740000202DE9F0410446E078851D281FEB
:104F600081B2A01C03F05CFE0646A91E08190021B0
:104F7000FDF728FF0746B74202D10120BDE8F081C6
:104F80000020FBE7704700002DE9F04104460025B2
:104F900000270F26E07810B1E078012800D103E067
:104FA000752121A006F01EFD6078102800DA03E0CC
:104FB00076211DA006F016FDA078102800DA03E087
:104FC000772119A006F00EFDE07808B325480068A7
:104FD00000F4E060C0F5E060050AC5F10407EE40AA
:104FE000607800FA07F5A078304005432D011E488F
:104FF00022788554207800F01F0101208840217814
:1050000049114FF0E02202EB8101C1F8000109E0F3
:10501000207800F01F0101208840144922785211A5
:1050200041F82200BDE8F0812E2E5C555345525CBC
:105030002E2E5C4C69627261726965735C53544DCB
:105040003332463130785F537464506572697068EA
:105050005F4472697665725C7372635C6D697363D9
:105060002E6300000CED00E000E400E080E100E0D1
:1050700010B50446B4F5E06F0BD0B4F5C06F08D09E
:10508000B4F5A06F05D0B4F5806F02D0B4F5407FC1
:1050900000D103E0632104A006F0A4FC11482043E2
:1050A0001149086010BD00002E2E5C555345525C1E
:1050B0002E2E5C4C69627261726965735C53544D4B
:1050C0003332463130785F5374645065726970686A
:1050D0005F4472697665725C7372635C6D69736359
:1050E0002E6300000000FA050CED00E02DE9FE4300
:1050F000002600270025F020FFF706FF804601F07C
:10510000FBFB3EE00027294622A000F07DF90026A7
:1051100020E038467A1C97B2C0EB0010000105EB86
:105120008502D200C2EB021200EB0211F0224046CF
:1051300000F004FF4FF4FC601F21CA020023CDE9F8
:10514000002102903246F0214046FCF72DFC06F18A
:10515000080086B2B6F5A07FDBDB0020FFF750FA2F
:105160000446252C03D1002D01DD681E85B2272CB5
:1051700001D1681C85B2282C00D103E0262C00D177
:1051800000E0BFE700BF4046FFF798FE03F034FAA7
:10519000BDE8FE8350616765496E6465785B256490
:1051A0005D205570446F776E45786974000000008B
:1051B00010B5044624B180210448FDF7A5F903E0A9
:1051C00080210248FDF766F910BD0000000801408B
:1051D00010B5044624B120210448FDF795F903E0F9
:1051E00020210248FDF756F910BD000000080140DB
:1051F00010B504210148FDF7E7F810BD0014014087
:1052000010B54FF400710248FDF7DEF810BD000044
:105210000010014010B5044624B180210448FDF778
:1052200073F903E080210248FDF734F910BD000056
:105230000010014010B504462CB14FF480410548E0
:10524000FDF762F904E04FF480410248FDF722F9CE
:1052500010BD0000000C01402DE9F04788B0044665
:105260000F461C22484901A8FAF7A0FF47480068EA
:10527000408C6188401A062190FBF1F000F0FF0895
:105280004349887F01F092FD00254BE0AF4204D1F5
:1052900003F01AFD0121417003E003F015FD002128
:1052A00041700420DFF8E4C00090DCF800C0BCF8D6
:1052B0001E9005F1010C0CFB089C1FFA8CF3DFF823
:1052C000CCC0DCF800C0BCF81EC005FB08CC1FFA3F
:1052D0008CF1DFF8B8C0DCF800C0BCF82020DFF8A3
:1052E000ACC0DCF800C0BCF820C0ACF1640C1FFA04
:1052F0008CF001F023FEE07E042801D1012000E0C3
:1053000000200DB9012100E00021084203D00798D8
:1053100000F050F804E001A951F8250000F04AF827
:10532000681CC5B2062DB1DB03F0CEFC818903F009
:10533000CBFCC089814203D103F0C6FC868901E021
:105340001348868B0096B4F802C094F8059094F840
:1053500006A009FB0ACC1FFA8CF309FB0AFC0CF12E
:10536000030C1FFA8CF2B4F802C0ACF1030C1FFA64
:105370008CF1B4F800C0ACF1020C1FFA8CF001F013
:105380002BFC08B0BDE8F0871CDB0108FC00002006
:10539000E09D002010B5032101A0FBF7FFFE10BD2A
:1053A0005056445F49525148616E646C657200000A
:1053B000704700000FB410B5C4B047A8439003A8CD
:1053C000439A469905F02CFB0E48006880780D49F9
:1053D0000968097D03AA0B4CCDE9002102902468DD
:1053E0006389084C24682289064C2468E188054CAE
:1053F0002468A08801F0E4FA0020439044B010BC77
:105400005DF814FBD80000200FB400B58FB011A8D0
:105410000E9001A80E9A109905F002FB4FF47A71D4
:1054200001A800F0CDF800200E9001200FB05DF82B
:1054300014FB000010B5032209A10BA0FBF7AEFE80
:1054400003220DA110A0FBF7A9FE0322124913A00D
:10545000FBF7A4FE0322164916A0FBF79FFE10BD22
:10546000B2E2CAD400000000426F6172645F4E6114
:105470006D653A257300000053544D333246313088
:1054800033564554360000004350555F4D6F6465F8
:105490006C3A25730000000000127A004370755FBB
:1054A0004F53435F465245513A2025644D687A0078
:1054B00000A24A044370755F467265713A20256404
:1054C0004D687A002DE9FC4707460D4616463949D6
:1054D00091F8200001F06AFC03F0F0FB407868438B
:1054E000C0F5A07101EBD170C0F34F0801242DE08D
:1054F00003F0E4FB4178601C00FB01801FFA80F997
:1055000003F0DCFB407804FB00801FFA80FA0320E4
:10551000F0234A4600210090504601F00FFD601E26
:10552000385C8DF8040000208DF80500B44204D1E9
:1055300003F0CAFB0121417003E003F0C5FB002129
:10554000417001A8FFF736FF601CC4B2681EA0427C
:10555000CEDC0320F0234FF49F7200210090084618
:1055600001F0ECFC26B903F0AFFB0121417003E030
:1055700003F0AAFB002141700FA0FFF71BFF0520DD
:10558000F0234FF49F7200210090084601F0D6FCF2
:10559000681EB04204D103F097FB0121417003E083
:1055A00003F092FB0021417004A0FFF703FFBDE868
:1055B000FC870000E09D00204E6F000059657300DD
:1055C00038B505460C4615A0FFF72EFA154991F897
:1055D000200001F0EBFB0420F0234FF4A072002127
:1055E0000090084601F0AAFC0020FFF731FA284697
:1055F000FFF7E0FE204603F035FD0120FFF728FA13
:105600002846FFF7D7FEFF200749096808700649BA
:105610000968C868FEF7D0FC012038BD496E666F86
:1056200072000000E09D0020FC0000207047000098
:105630001FB50948006801900748001D00680290E6
:1056400005480830006803900320009003A001A9DA
:105650000EC9FBF7A3FD1FBDE8F7FF1F4943204319
:105660006F64653A25582025582025580000000011
:10567000704700002DE9FF5F0546894617461E4624
:105680004FF00108002003904E4991F8200001F0EE
:105690008DFB03F013FB407800FB09F0C0F5A0710F
:1056A00001EBD170C0F34F0A012454E0B04504D19E
:1056B00003F00AFB0121417003E003F005FB002128
:1056C000417003F0FBFA4178601C00FB01A01FFA57
:1056D00080FB03F0F3FA407804FB00A080B2019055
:1056E0000320F0235A4600210090019801F026FC87
:1056F000601E285C802810DD601E285C8DF8080084
:10570000285D8DF8090000208DF80A00A01CC4B2A5
:1057100008F1010000F0FF080CE0601E285C8DF825
:10572000080000208DF80900601CC4B208F10100D7
:1057300000F0FF089DF8080008B9012003900398C5
:10574000012805D120208DF8080000208DF80900DF
:1057500002A8FFF72FFE781EA042A7DC0320F0234B
:105760004FF49F7200210090084601F0E7FB26B934
:1057700003F0AAFA0121417003E003F0A5FA002129
:10578000417011A0FFF716FE0520F0234FF49F7221
:1057900000210090084601F0D1FB781EB04204D1F0
:1057A00003F092FA0121417003E003F08DFA002129
:1057B000417006A0FFF7FEFD03F086FA002141705C
:1057C000BDE8FF9FE09D00204E6F0000596573000B
:1057D00010B5032108A0FBF7E1FCFFF72BFEFFF754
:1057E00025FFFFF725FFFBF7F1FD00F013F8FFF7AA
:1057F0003FFF00F02FF810BD0A546F7320537973E8
:1058000074656D2053746172742E2E2E2E2E2E2EE2
:105810002E2E2E0010B5FDF7AFFA044603232246C4
:10582000142102A0FBF7BAFC10BD00005461736B99
:10583000506F6F6C53697A653A25642062757420E5
:10584000686173202564207461736B2063726561E5
:1058500074652E0038B500241DE004EB44001549A2
:10586000096801EB0010C06A98B10320009004EBB6
:1058700044001049096801EB0010038C04EB44005C
:105880000C49096801EB00102146C26A0AA0FBF727
:1058900085FC601CC4B2142CDFDB601EC4B2FFF7B1
:1058A000E7FA054603232A4649F6404107A0FBF7DD
:1058B00075FC38BD640000205461736B5B25645D2A
:1058C0004E616D653A257328256429004D656D6F1D
:1058D000727953697A653A2564206275742075730C
:1058E00065723A256400000038B505462846FFF782
:1058F0009BF81D4991F8200001F058FA1CE00020A7
:10590000FFF7A6F80420F0234FF4A07200210090C6
:10591000084601F013FB03F0D7F90121417013A0F1
:10592000FFF748FD0020FEF76BFE0446262C00D151
:1059300003E0282C00D100E0E1E700BF0120FFF7E1
:1059400087F80420F0234FF4A0720021009008464D
:1059500001F0F4FA03F0B8F90021417003A0FFF759
:1059600029FD012038BD0000E09D00204F6B0000A4
:10597000F8B50746002500263846FFF755F82249B6
:1059800091F8200001F012FA35E03046FFF760F898
:105990000320F0231A4600210090502001F0CEFA97
:1059A00003F092F9457019A0FFF704FD0520F023DC
:1059B0001A4600210090502001F0C0FA03F084F94B
:1059C0000DB9012100E00021417011A0FFF7F2FCA8
:1059D00006B111E01EB90020FEF712FE0446262C87
:1059E00000D10126282C00D10126252C00D101252B
:1059F000272C00D10025C8E700BF03F065F900217E
:105A000041702846F8BD0000E09D00204F6B00006B
:105A10004E6F00002DE9FE43002600270025F020F0
:105A2000FFF772FA804600F067FF40E00027294642
:105A300023A0FFF7E9FC002623E039467A1C97B241
:105A4000C1EB01114FF0007202EB011105EB850271
:105A5000D200C2EB021201EB0210F0224146FCF729
:105A600031FB4FF4FC601F21CA020023CDE9002165
:105A700002903246F0214046FBF796FF06F10800FF
:105A800086B2022ED9DB0020FEF7BAFD0446252C93
:105A900003D1002D01DD681E85B2272C01D1681CC1
:105AA00085B2282C00D103E0262C00D100E0BDE710
:105AB00000BF4046FFF702FA02F09EFDBDE8FE83FC
:105AC00050616765496E6465785B25645D2055703B
:105AD000446F776E457869740000000070B5044625
