:020000040800F2
:1050000050A2002045510008199C00083584000872
:10501000B19800089D5E0008CDEA0008000000007D
:1050200000000000000000000000000065B900085A
:10503000D16B000800000000899D0008D7C100085E
:1050400099EB0008159D000895C200085F51000803
:10505000ED740008B5B000081D7300085F5100082A
:105060004D7300086D7300088D7300085F510008D0
:1050700029630008516300085F5100085F51000870
:105080005F510008796300085F5100085F51000814
:105090005F510008A15E0008C15E0008AD73000802
:1050A000E5C2000849C3000825C3000805C300087D
:1050B0005F5100085F51000869C300085190000863
:1050C00031900008919000087190000845B50008E3
:1050D00061B5000819E400086DE40008CDE400089B
:1050E00029730008D1B00008C1EA0008BDC3000858
:1050F00021C40008FDC30008DDC30008B95B000837
:10510000A17500085F51000885C300087DB500083F
:105110005F5100085F5100085F510008A1C30008FB
:10512000A1630008C9630008F16300085F5100082B
:10513000DFF80CD000F078FC00480047B5F4000818
:1051400050A200200648804706480047FEE7FEE7D9
:10515000FEE7FEE7FEE7FEE7FEE7FEE7FEE7FEE727
:1051600011C200083151000830B505462A460B46E9
:1051700012F8010B13F8014B08B1A042F8D01CB192
:10518000002802D06D1CF1E7284630BDF0B480EA5B
:105190000102D40F4200B2EB410F02D20246084690
:1051A00011464A0042D0C30DDDB2C1F3C752AD1A59
:1051B000202D35DAC1F3160141F4000204B1524248
:1051C000C5F1200602FA06F12A411044B3EBD05F84
:1051D00023D0C4B1012DA0EBC35009DCF0BC4FF0CB
:1051E000004202EAC35200F50000DBB200F077BBD8
:1051F000400000F1807000EBC350A0F1807040EAE5
:10520000D170490009E0490841EAC071A0EBC350E0
:1052100000F50000400800EBC350F0BC00F056BBA6
:105220006142012202EB4101001BF6E7F0BC70472E
:1052300081F00041AAE780F00040A7E780EA010280
:1052400010B502F00043400026D04A0023D04FEAB8
:10525000106101EB1261C0F35600C2F3560240F434
:10526000000042F40002A0FB0220A1F17F014FEAFE
:105270000040140401D000F1010050EA124001D4B2
:105280004000491EC2B20C0604EBD010401C40087E
:10529000802A02D003E0002010BD20F00100002988
:1052A00000DA0020184310BD30B480EA010202F099
:1052B000004530F0004221F0004015D0A0B1C0F30D
:1052C000C753C2F3C754C2F31601C0F31600E41A61
:1052D00041F4000140F400027D34914201D3641C8A
:1052E00000E04900002C02DA30BC002070474FF487
:1052F00000000023914201D3891A034340084FEA7A
:105300004101F7D151B1914202D14FF0004105E086
:1053100002D24FF0010101E06FF0010103EBC45034
:10532000284430BC00F0D2BA2DE9FE4F804681EA15
:105330000300C00F0C46009021F0004123F000450F
:10534000B8EB0200A94105D24046214690461C46D2
:105350000B46024623F00040104304D1404621464C
:1053600003B0BDE8F08F270DC7F30A00C3F30A515D
:105370000290401A0190402866DAC3F3130040F40B
:10538000801B0098924620B10023D2EB030A63EB06
:105390000B0B01985946C0F14002504600F065FAE7
:1053A00006460D4650465946019A00F07DFA10EB2C
:1053B00008006141002487EA115284EAE7731A4326
:1053C0003BD0009A3AB3019A012A4FEA075210DC07
:1053D000001B61EB02014FF0004202EA0752CDE9E7
:1053E0000042001C41F5801132462B4600F0B1FA14
:1053F000B6E7001B61EB0201001C41F580130018A9
:105400005B412018A2F5001747EB030140EAD57075
:10541000B6196D4111E06D084FEA360645EAC075D0
:105420004FEA0752001B61EB0201001C41F580119D
:1054300049084FEA30000019514132462B4603B06B
:10544000BDE8F04F00F078BA009801224000002338
:10545000D0EB020263EBE073009821464FEAE07460
:10546000B8EB000061EB0401E9E783F000435BE780
:1054700081F0004158E72DE9FE4F81EA030404F072
:10548000004421F0004100944FF0000B23F0004352
:1054900050EA010402D052EA030404D1002001467C
:1054A00003B0BDE8F08FC3F30A54C1F30A552C448E
:1054B000A4F2F3340194A0FB0254C1F3130141F4AC
:1054C0008011C3F3130343F4801301FB024400FB78
:1054D000034E840A970A44EA815447EA8357A4FB9F
:1054E000076802958D0A05FB07854FEA932C04FB9C
:1054F0000C542705029D4FEA065847EA1637B5EBCC
:1055000008056EEB070C870E920E47EA811742EAF8
:105510008312A7FB0201B6EB0B0164EB00042B0D19
:1055200043EA0C335E1844EB1C50DA465146E7FB65
:105530000201C5F313044FEA0B3343EA14534FEA55
:105540000432019C43EA0603A4F10C040294009C7B
:10555000CDE900B400F0FDF9A2E72DE9F04D81EAB4
:10556000030404F0004B21F0004514464FF0000AFC
:1055700023F0004150EA050220D054EA01021DD078
:10558000C5F30A570246C5F31303C1F31300C1F371
:105590000A5640F4801543F48013A7EB0608101B4D
:1055A000D64608F2FD3873EB050002D308F1010876
:1055B00001E092185B41B8F1000F03DA00200146C8
:1055C000BDE8F08D00204FF48011064684460EE0C1
:1055D000171B73EB050705D3121B63EB050306438B
:1055E0004CEA010C49084FEA300092185B4150EA3E
:1055F0000107EDD152EA030012D082EA040083EAE7
:105600000501084303D100224FF0004308E0101BBE
:10561000AB4102D20122002302E06FF001025310DD
:105620001AEB06004CEB085110EB0A0041EB0B01A2
:10563000BDE8F04D00F080B9C10F80EAE070084489
:10564000CA079623002100F04AB99623002211468A
:1056500000F045B90EB540F2334102910021CDE989
:1056600000110A460B4600F074F903B000BD00F0CB
:10567000004220F00040C10DC0F3160040F40000CD
:105680007F2901DA00207047962903DCC1F19601D9
:10569000C84001E096398840002AF4D04042704763
:1056A00020F00040C10DC0F3160040F400007F2937
:1056B00001DA00207047962903DCC1F19601C84049
:1056C000704796398840704770B5C1F30A5201F0AF
:1056D00000450024C1F3130140F2FF3341F480116F
:1056E0009A4201DA002070BD40F233439A42A2F29E
:1056F000334203DC524200F0C7F800E090402C43F4
:10570000F1D0404270BD00F0004230F000400AD0BD
:10571000C10D01F56071C0F3160042EA0151C208E3
:1057200040071143704700200146704730B50029FB
:1057300004DB4FF00044404264EB0101002B04DB2A
:105740004FF00044524264EB03038B4208BF824295
:1057500030BD000030B5002904DB4FF0004440426A
:1057600064EB0101002B04DB4FF00044524264EB78
:105770000303994208BF904230BD000001F000438E
:1057800030B421F0004150EA010206D00A0DA2F522
:105790006072C1F31301002A02DC30BC00207047A4
:1057A000440F44EAC104C100E01830BC00EBC25011
:1057B00000F08CB8002801DBC0F10040002901DBBB
:1057C000C1F1004181427047002801DBC0F1004077
:1057D000002901DBC1F100418842704730B50B461A
:1057E000014600202022012409E021FA02F59D4211
:1057F00005D303FA02F5491B04FA02F52844151EE5
:10580000A2F10102F1DC30BD2DE9F05F0546002078
:1058100092469B4688460646814640241BE0284621
:1058200041464746224600F02FF853465A46C01AD2
:10583000914110D311461846224600F016F82D1A51
:1058400067EB01084F4622460120002100F00DF8C9
:1058500017EB00094E41201EA4F10104DFDC48468D
:1058600031462A464346BDE8F09F202A04DB203A11
:1058700000FA02F1002070479140C2F1200320FAA3
:1058800003F3194390407047202A04DB203A21FAA1
:1058900002F00021704721FA02F3D040C2F1200249
:1058A0009140084319467047202A06DBCB17203A5F
:1058B00041FA02F043EAE07306E041FA02F3D04015
:1058C000C2F1200291400843194670470029A8BF41
:1058D0007047401C490008BF20F00100704710B419
:1058E000B0FA80FC00FA0CF050EA010404BF10BCCE
:1058F000704749B1CCF1200421FA04F411FA0CF1FB
:1059000018BF012121430843A3EB0C01CB1D010665
:10591000000A002BBEBF002010BC704700EBC35034
:1059200010440029A4BF10BC7047401C490008BFA8
:1059300020F0010010BC704710B5002B08DA401CA5
:1059400041F1000192185B411A4301D120F001009E
:1059500010BD2DE9F04D92469B4611B1B1FA81F28E
:1059600002E0B0FA80F220329046FFF77EFF044654
:105970000F4640EA0A0041EA0B0153465A460843E3
:1059800003D120463946BDE8F08D114653EA0100A7
:1059900015D0C8F140025046FFF776FF05460E4687
:1059A000504659464246FFF760FF084301D00120A8
:1059B00000E00020054346EAE0762C4337430A988E
:1059C0004FEA4453A0EB08004FEAD4240A304FF0CA
:1059D000000244EA47544FEAD72502D50020014689
:1059E000D1E7010510196941DDE908450019694150
:1059F000BDE8F04DA0E7C1F30A52C1F3130140F234
:105A0000FF3341F480119A4202DA002001467047C8
:105A100040F233439A42A2F2334202DC5242FFF791
:105A200033BFFFF722BF0000064C074D06E0E068D9
:105A300040F0010394E8070098471034AC42F6D3D5
:105A4000FFF77AFB046601082466010882B02DE99D
:105A5000FF1FEFF3038001B4684600F1400000E946
:105A600001400C480168C1F800D00B48D0F800D0C4
:105A700001BC80F30388BDE8FF1F01B000BD0648EC
:105A8000D0F800D001BC80F30388BDE8FF1F01B04F
:105A900000BD00004C0000204800002008B5012196
:105AA000084605F05DFA01214FF4047005F078FA1C
:105AB0001020ADF8000000208DF803006946024870
:105AC00001F062FF08BD00000010014010B504465F
:105AD000FFF7E4FF204600F001F810BD10B590B0CC
:105AE0000446334800F0A4FC324805900694002098
:105AF000079001200890002009900A904FF48070D0
:105B00000B9080000C9020200D9000020E90002041
:105B10000F9005A9264800F031FD0121244800F02E
:105B20007BFC002000908DF8040001208DF805001A
:105B30004FF4602002900020039001208DF81000A7
:105B400069461C484C3800F06FF84FF4404005F0AF
:105B5000FBF9052301220E2116484C3800F08CF881
:105B6000012114484C3800F040F8012111484C380C
:105B700000F030F80F484C3800F0DAF800BF0D485C
:105B80004C3800F047F80028F9D10A484C3800F0AA
:105B9000DFF800BF07484C3800F032F80028F9D190
:105BA000012104484C3800F0C8F810B010BD0000C6
:105BB000080002404C24014010B5032101A000F070
:105BC00033FF10BD414443335F49525148616E6415
:105BD0006C65720021B1826842F00102826003E0CC
:105BE000826822F001028260704721B1826842F42B
:105BF0008072826003E0826822F480728260704763
:105C0000014600208A6812F0040F01D0012000E054
:105C100000207047014600208A6812F0080F01D06A
:105C2000012000E00020704730B50246002000232C
:105C300050680F4C20400D790C6844EA052420433D
:105C4000506090680B4C2040D1E902542C434D79B0
:105C500044EA450420439060D06A20F470000C7C34
:105C6000641EE4B2234340EA0350D06230BD00001A
:105C7000FFFEF0FFFDF7F1FFF0B504460D460020F2
:105C80000021092D11DDE068A5F10A0606EB4607A3
:105C9000072606FA07F18843A5F10A0606EB460631
:105CA00003FA06F10843E0600CE0206905EB4507C4
:105CB000072606FA07F1884305EB450603FA06F1C5
:105CC00008432061072A0FDA606B561E06EB860731
:105CD0001F2606FA07F18843561E06EB860605FACC
:105CE00006F10843606322E00D2A0FDA206BD61F0D
:105CF00006EB86071F2606FA07F18843D61F06EB38
:105D0000860605FA06F10843206310E0E06AA2F176
:105D10000D0606EB86071F2606FA07F18843A2F157
:105D20000D0606EB860605FA06F10843E062F0BDB3
:105D3000816841F008018160704721B1826842F4B6
:105D4000A002826003E0826822F4A00282607047B1
:105D5000816841F004018160704710B5044600215C
:105D60002046FFF731FD01D2204610BD002120461C
:105D7000FFF761FAF9E7000010B501210C4801F0C6
:105D8000DAFE0A2007F06AFF0121094801F0D1FE7E
:105D9000282007F063FF0121054801F0CCFE0A200E
:105DA00007F05CFF0121024801F0C3FE10BD0000B6
:105DB000000C014010B50021074803F039FC0446EF
:105DC00044B9052105A000F02FFE0121024803F08F
:105DD0002FFC0446204610BD5C9D0020C5E4D6C3C0
:105DE000B2CECAFDC6ACC7F8D2BBB4EDCEF300004C
:105DF00006E04FF47A7100BF0A00A1F10101FBD166
:105E00000200A0F10100F4D170470146081100EB37
:105E10004000A1EB4000C0B27047000030B5024620
:105E2000002441F66F2316E0E01800EBD0756910EE
:105E30000B4830F82100904204D1094800EB810062
:105E4000408830BD064830F82100904201DA4C1CF1
:105E500000E04B1E00BF9C42E6DD0020F1E70000A1
:105E600000F90008F0B5034600201C460D46104618
:105E700003E014F8016B05F8016B1600A2F10107AD
:105E8000BAB2F6D1F0BD30B5034601E003F8011B0C
:105E90001400A2F10105AAB2F8D130BD00BFFEE79F
:105EA00010B5032101A000F0BFFD10BD43414E31EC
:105EB0005F5258315F49525148616E646C6572009F
:105EC00010B5032101A000F0AFFD10BD43414E31DC
:105ED0005F5343455F49525148616E646C6572007F
:105EE0002DE9F04105460E46424803F03DFDA8422B
:105EF00002DC0020BDE8F08105EB45003D4901EBE7
:105F00008004142231463C4808F0AFFD207A09286D
:105F100033D008DC02280FD0042837D0052823D03E
:105F2000062863D116E00B280BD018284BD01A286E
:105F300056D01D285AD12FE0606808B160688047AC
:105F400054E0304602F0E8F80746FFF7A9FB616825
:105F500008704BE0304602F0DFF80746FFF787FB9A
:105F600040B26168087041E0304602F0D5F807465B
:105F7000FFF796FB6168088038E0304602F0CCF805
:105F80000746FFF78DFB616808602FE0304602F09E
:105F9000C3F86168086029E018A1304606F003F9EB
:105FA00040B160680068627A0121914008436168ED
:105FB000086007E060680068627A012191408843C8
:105FC0006168086012E00DA1304606F0ECF818B1E7
:105FD00001206168087002E000206168087005E037
:105FE000627A30466168FFF73DFF00BF00BF0120C5
:105FF00080E70000B0F700080044004054000000B3
:1060000070B504460D460A4803F0AEFCA04201DC20
:10601000002070BD04EB4400054A02EB80012846D5
:1060200003F07EFB284602F0D9F8C6B23046F0E70E
:10603000B0F700080246002110E0505C392801DD6D
:10604000012000E00020535C302B01DA012300E046
:106050000023184301D000207047491C0B29ECDBBA
:106060000120F9E702E0002200F8012B0A00A1F16B
:10607000010399B2F7D1704710B5002400F094F8ED
:1060800004E0601CC4B2012000F038F81148018817
:106090001148006801F044FD08B1642CF1DB642C68
:1060A00001DB012010BD002404E0601CC4B201200B
:1060B00000F024F8074801880748006801F030FD27
:1060C00008B9642CF1DB642C01DB0120EAE7002035
:1060D000E8E700008000002084000020002107E0A5
:1060E00042F6E06100BF0A00A1F1010399B2FAD1C2
:1060F0000200A0F1010398B2F2D17047002106E03E
:10610000072100BF0A00A1F1010399B2FAD10200F0
:10611000A0F1010398B2F3D1704700002DE9F041DE
:1061200005460F462C78C4EB042084B268782044DE
:1061300084B214F4004F10D024F400442046FFF73A
:1061400084FA064615493046FFF7AEF80646314652
:106150000020FFF76DF8064608E02046FFF775FAC5
:1061600006460E493046FFF79FF806460C49304672
:10617000FFF72AFB02D24FF0010801E04FF00008C0
:1061800008493046FFF716FB01D2012000E000204D
:1061900018EA000F00D03E60BDE8F0810000204109
:1061A000000048C20000C84208B508480088ADF8A1
:1061B000000003208DF8020048208DF80300694696
:1061C0000348006801F0E0FB08BD000080000020EB
:1061D0008400002008B508480088ADF800000320BE
:1061E0008DF8020010208DF803006946034800680E
:1061F00001F0CAFB08BD00008000002084000020E0
:106200002DE9FC4105460E4600F074F8FFF734FF17
:1062100010B10120BDE8FC81002405E000F05AF82F
:106220000DF80400601CC4B2052CF7DB9DF80000DB
:106230009DF8011008449DF8021008449DF80310D1
:106240000844C7B29DF80400B84201D00120E1E73C
:106250001DB131466846FFF761FF26B129460DF1B1
:106260000200FFF75BFF0020D4E7000010B5002418
:1062700004E0601CC4B20120FFF740FF134801880E
:106280001348006801F04CFC08B1642CF1DB0024D9
:1062900004E0601CC4B20120FFF730FF0B48018806
:1062A0000B48006801F03CFC08B9642CF1DB2320AA
:1062B000FFF724FF054801880548006801F030FC1D
:1062C00008B1012010BD0020FCE700008000002084
:1062D0008400002070B50024002506E06006040E4E
:1062E000FFF7C4FF0443681CC5B2082DF6DB204647
:1062F00070BD000010B5FFF76DFF0948018809481F
:10630000006801F016FC0A20FFF7E8FE0448018847
:106310000448006801F00FFC5020FFF7EFFE10BDAD
:10632000800000208400002010B5032101A000F0AF
:106330007BFB10BD444D41315F4368616E6E656CFF
:10634000325F49525148616E646C65720000000012
:1063500010B5032101A000F067FB10BD444D413191
:106360005F4368616E6E656C335F49525148616E80
:10637000646C65720000000010B5032101A000F0FC
:1063800053FB10BD444D41315F4368616E6E656CD7
:10639000375F49525148616E646C657200000000BD
:1063A00010B5032101A000F03FFB10BD444D413268
:1063B0005F4368616E6E656C315F49525148616E32
:1063C000646C65720000000010B5032101A000F0AC
:1063D0002BFB10BD444D41325F4368616E6E656CAE
:1063E000325F49525148616E646C65720000000072
:1063F00010B5032101A000F017FB10BD444D413240
:106400005F4368616E6E656C335F49525148616EDF
:10641000646C65720000000021B1026842F0010264
:10642000026004E002684FF6FE731A400260704793
:1064300001684FF6FE721140016000210160416069
:106440008160C1604B49884208D14A49083949688E
:1064500041F00F01474A083A51608AE0454914313A
:10646000884208D143490839496841F0F001414A5E
:10647000083A51607DE03F492831884208D13D49C2
:106480000839496841F470613A4A083A516070E04D
:1064900038493C31884208D136490839496841F4C5
:1064A0007041344A083A516063E0324950318842C1
:1064B00008D130490839496841F470212D4A083A19
:1064C000516056E02B496431884208D12949083986
:1064D000496841F47001274A083A516049E025496A
:1064E0007831884208D123490839496841F0706100
:1064F000204A083A51603CE01F49884206D1011FFA
:10650000096841F00F01021F116032E01A4914318D
:10651000884208D11849091F096841F0F001164A5C
:10652000121F116025E014492831884208D1124910
:10653000091F096841F470610F4A121F116018E0C9
:106540000D493C31884208D10B49091F096841F4C3
:106550007041094A121F11600BE00749503188420F
:1065600007D10549091F096841F47021024A121F29
:1065700011607047080002400804024010B5002274
:10658000026847F6F0739A430C6A8B6823430C69E0
:1065900023434C6923438C692343CC6923434C6ACE
:1065A00023438C6A23431A430260CB6843600B6821
:1065B00083604B68C36010BD08B50121082004F05A
:1065C000EFFC0D480088ADF8000010208DF80300A6
:1065D00003208DF8020069460848006801F0D4F9EC
:1065E000054801880548006801F0A5FA00F0A8F9FF
:1065F00000F006F808BD0000880000208C00002094
:1066000010B5002400F0B4F804E0601CC4B201200E
:1066100000F028F8114801881148006801F080FA5C
:1066200008B1C82CF1DBC82C01DB012010BD00240F
:1066300004E0601CC4B2012000F014F8074801888F
:106640000748006801F06CFA08B9F02CF1DBF02C77
:1066500001DB0120EAE70020E8E7000088000020D5
:106660008C000020002106E0072100BF0A00A1F1F4
:10667000010399B2FAD10200A0F1010398B2F3D15B
:10668000704700002DE9FE4F824600F07FF900F0D0
:1066900057F9FFF7B5FF044614B10120BDE8FE8F9E
:1066A000CC2000F07FF9BE2000F07CF9002405E04A
:1066B00000F0B4F80DF80400601CC4B2092CF7DB3C
:1066C0000821684607F0C6F804469DF80800A04275
:1066D00001D00020E2E79DF8010007281EDD9DF8AB
:1066E0000100C043C0B28DF801009DF80000C04316
:1066F000C0B28DF800009DF801904FF6FF7000EADF
:1067000009299DF8000040EA09094846FEF79DFF67
:1067100005460021FEF78FFD83460DE09DF80190B0
:106720004FF6FF7000EA09299DF8000040EA0909C8
:106730004846FEF78AFF83465846FEF7E4FF0746C1
:106740000022094BFEF797FE0546FFF717F8834630
:10675000BAF1000F05D005495846FEF7A5FDCAF865
:10676000000000209AE700000000E43F0000204104
:1067700008B508480088ADF8000003208DF8020035
:1067800048208DF8030069460348006801F0FCF8D2
:1067900008BD0000880000208C00002008B50848D3
:1067A0000088ADF8000003208DF8020010208DF85D
:1067B000030069460348006801F0E6F808BD0000E0
:1067C000880000208C00002010B5FFF7E7FF11487B
:1067D00001881148006801F0ACF90220FFF742FF80
:1067E0000C4801880C48006801F0A5F9FFF7C0FFCC
:1067F0000C20FFF737FF074801880748006801F0C1
:106800008FF908B1012400E000243220FFF72AFFAD
:10681000204610BD880000208C00002070B50026A6
:10682000012508E0FFF7D0FF0446E00140EA6600DA
:10683000C6B2681CC5B2082DF4DD304670BD00003C
:1068400070B506460C4600253A4890F8B00010F0A6
:10685000400F23D04FF40071374800F0DBF8214699
:106860003046FFF7CDFC78B134480078401C3349FE
:106870000870084600780A285ADD2E48006920F47E
:1068800040702C49086153E000202C4908702948C9
:10689000006940F440702749086149E04FF40071F5
:1068A000254800F069F83046FFF7ECFE05468DB14B
:1068B00022480078401C21490870084600780A28C0
:1068C00011DDFFF779FE1B48006920F4807019493B
:1068D000086108E00020194908701648006940F472
:1068E0008070144908614FF48071134800F044F837
:1068F0002046FFF7C7FE05468DB110484078401C82
:106900000E494870084640780A2811DDFFF754FE0A
:106910000848006920F400700649086108E000207A
:10692000064948700348006940F400700149086155
:1069300070BD0000489D0020000C0140A000002018
:1069400010B5FFF72BFF0A4801880A48006801F0DC
:10695000F0F840F2EE20FFF785FE05480188054873
:10696000006801F0E8F80F20FFF77CFE10BD000082
:10697000880000208C000020024A1060024A11802A
:10698000704700008C0000208800002010B5FFF741
:10699000D7FFFFF735FECC2000F004F8442000F0CC
:1069A00001F810BD70B50446FFF7F8FE01252AE096
:1069B00004F00106641096B1144801881448006878
:1069C00001F0B7F80220FFF74DFE1048018810488B
:1069D000006801F0B0F83C20FFF744FE11E00B48DE
:1069E00001880B48006801F0A4F83C20FFF73AFE4C
:1069F000064801880648006801F09DF80220FFF76C
:106A000031FE681CC5B2082DD2DD70BD88000020A3
:106A10008C000020024A1060024A1180704700007A
:106A200084000020800000200FB42DE9F04186B0E2
:106A300000240125002650480078FF2801D10120BC
:106A400000E000204C4909784C4A1278914201D16B
:106A5000012100E0002108437ED04FF4806002F065
:106A60005DFF07460DA805903846059A0C9908F079
:106A7000A1F8002005900DA8059069460C9801F03A
:106A800044FA05462AE02046611CCCB21DF80000FD
:106A9000012804D0022806D003281AD115E0059851
:106AA00040C8059019E00598C01D20F0070005902A
:106AB000D0E90021DDF814C00CF1080C1046CDF827
:106AC00014C0FEF701FE064607E0059840C8059091
:106AD00003E0059840C8059000BF00BF2800A5F15D
:106AE0000105D0D1059840C80590002005902448A4
:106AF0000078FF2801D1012000E00020204909781A
:106B0000B14201DB012100E0002108432BD03946CE
:106B10001CA005F027FB1C48007810F0020F0DD0D8
:106B20001A49087800F0E8FB40B1384601F056FBFE
:106B3000804642463946164807F097FF12480078CB
:106B400010F0040F0FD01149487800F0D5FB50B178
:106B5000384601F043FB00E008E0804642463946F3
:106B60000C4807F082FF384602F0B2FE06B0BDE8DE
:106B7000F0015DF814FB00007400002058000020B4
:106B8000760000200D0A000075000020280000207B
:106B90000038014000440040FF2001490870704760
:106BA0007400002002480078024908707047000015
:106BB0005800002074000020014908707047000050
:106BC0007500002001490870704700007600002021
:106BD000704701460A2091FBF0F000EB400001EB0A
:106BE0004000C0B27047000010B500201A4908707C
:106BF0004FF4A07002F092FE18490860002406E0ED
:106C0000FF201749085517490855601CC4B2052CC8
:106C1000F6DB00241DE000201049096801EB441157
:106C2000486103200D49096801EB441108720020F6
:106C30000A49096801EB441108610849096801EB38
:106C40004411C8600549096801EB44118861601C62
:106C5000C4B20A2CDFDB10BD680000206C000020ED
:106C6000280000202D00002038B5002454E02C48D6
:106C7000006800EB4410006800284BD028480068EA
:106C800000EB4410C079012806D0022820D0032848
:106C900013D0042832D126E0032000902048006859
:106CA00000EB4410C3691E48006800EB4410214605
:106CB00002681CA0FFF7B8FE2BE01948006800EB43
:106CC00044100323214602681CA0FFF7ADFE20E01C
:106CD0001348006800EB441003232146026817A004
:106CE000FFF7A2FE15E00E48006800EB44100323F6
:106CF0002146026811A0FFF797FE0AE008480068E5
:106D000000EB44100323214602680CA0FFF78CFE21
:106D100000BF00BF601CC4B20A2CA8DB38BD000055
:106D20006C0000204465766963655B25645D4E6197
:106D30006D653A25735B25645D00000044657669E6
:106D400063655B25645D4E616D653A2573000000E7
:106D50002C4800782C4908702A480078401C2949A2
:106D600008702948007829490968274A127801EBF8
:106D70004211087126A125480068234A127800EBC9
:106D8000421001600020214909681F4A127801EB76
:106D90004211487103201D4909681B4A127801EB12
:106DA0004211C871012119480068174A127800EB96
:106DB00042100172184815490968134A127801EB0C
:106DC000421148610021114800680F4A127800EB17
:106DD0004210C1610D4800680B4A127800EB421066
:106DE000C160002009490968074A127801EB421185
:106DF0000861002105480068034A127800EB421040
:106E000081617047680000207B0000206C0000203A
:106E10004854313632310000B58300082D480078DF
:106E20002D4908702B480078401C2A4908702A48D0
:106E300000782A490968284A127801EB4211087142
:106E400027A126480068244A127800EB421001600E
:106E5000002022490968204A127801EB421148714A
:106E600002201E4909681C4A127801EB4211C871C0
:106E700001211A480068184A127800EB421001728A
:106E8000184816490968144A127801EB4211486102
:106E9000154912480068104A127800EB4210C1618F
:106EA00000210E4800680C4A127800EB4210C160C5
:106EB00000200A490968084A127801EB421108616A
:106EC000002106480068044A127800EB42108161F4
:106ED0007047000068000020780000206C0000204F
:106EE000494F00009D7A000810F700082C490978E6
:106EF0002C4A11702A490978491C294A11702949DC
:106F00000978294A1268274B1B7802EB431211714A
:106F100026A1254A1268234B1B7802EB431211600D
:106F20000021214A12681F4B1B7802EB431251715A
:106F300004221D4909681B4B1B7801EB4311CA71E0
:106F4000012219490968174B1B7801EB43110A729A
:106F50001849154A1268134B1B7802EB4312516112
:106F6000114909680F4A127801EB4211C8610022E9
:106F70000D4909680B4B1B7801EB4311CA600021D6
:106F8000094A1268074B1B7802EB43121161002279
:106F900005490968034B1B7801EB43118A6170476F
:106FA000680000209E0000206C00002049534C31F6
:106FB000323038003194000870B50546284607F095
:106FC000F7FB04465F48005DFF2808D15E48007863
:106FD0005C4908555C480078401C5B4908705BA020
:106FE0005849095D5B4A126802EB411108600020B4
:106FF0005449095D574A126802EB4111487101205A
:107000005049095D534A126802EB4111C8710320CF
:107010004C49095D4F4A126802EB411108724E4813
:107020004849095D4B4A126802EB411148614548E5
:10703000005D4849096801EB4010C4614749414877
:10704000005D444A126802EB4010C16044483D496B
:10705000095D404A126802EB41110861002139487C
:10706000005D3C4A126802EB4010816100203D49FE
:1070700021F814004FF4967002F050FC3A4941F8A0
:107080002400284607F094FB04463848005DFF289A
:1070900008D12D480078354908552B480078401C08
:1070A0002949087032A03149095D2A4A126802EB69
:1070B0004111086000202D49095D264A126802EB43
:1070C0004111487101212948005D224A126802EBF2
:1070D0004010C17103202549095D1E4A126802EB68
:1070E000411108721C492148005D1A4A126802EBDE
:1070F000401041611D48005D1649096801EB4010D0
:10710000C46116481949095D124A126802EB41111F
:10711000C86013481549095D0E4A126802EB411117
:10712000086100201149095D0A4A126802EB411109
:1071300088614FF4967002F0F1FB0F4941F824008A
:1071400070BD00002D000020680000205553415202
:10715000527800006C00002075E5000839EA00084C
:1071600059E90008E0000020B800002028000020B5
:107170005553415254780000CC0000202848007834
:107180002849087026480078401C2549087026A028
:1071900027490968234A127801EB42110860002050
:1071A000234909681F4A127801EB421148710320F4
:1071B0001F4909681B4A127801EB4211C87101216D
:1071C0001B480068174A127800EB421001721948F8
:1071D00017490968134A127801EB421148610021EE
:1071E000134800680F4A127800EB4210C16112493F
:1071F0000F4800680B4A127800EB4210C1600F493B
:107200000B480068074A127800EB42100161002029
:1072100007490968034A127801EB421188617047F7
:10722000680000209C0000205132355131360000AA
:107230006C00002025B7000885EB000871EB000802
:1072400010B5032124A0FFF7EFFB002441E02948FB
:10725000006800EB44104069C8B32648006800EBA2
:107260004410C079012806D0022817D003280ED078
:1072700004282BD11EE01F4A126802EB4412107F33
:107280001C4A126802EB4412516988471EE01949F2
:10729000096801EB44114869804717E0154A1268F4
:1072A00002EB4412D069134A126802EB441251698E
:1072B00088470BE00F4A126802EB4412D0690D4A6E
:1072C000126802EB44125169884700BF00BF601C7E
:1072D000C4B20A2CBBDB10BD546F732044657669C1
:1072E000636520496E69742E2E2E2E2E2E2E2E2E84
:1072F0002E0000006C0000200146FF2901D1002073
:1073000070470548006800EB4110406908B900204B
:10731000F6E70120F4E700006C000020012000F0F7
:1073200055F802F0C7F9000010B5032101A0FFF7DE
:107330007BFB10BD4558544931355F31305F4952B0
:107340005148616E646C65720000000010B5032145
:1073500001A0FFF769FB10BD45585449325F4952FF
:107360005148616E646C65720000000010B5032125
:1073700001A0FFF759FB10BD45585449335F4952EE
:107380005148616E646C65720000000010B5032105
:1073900001A0FFF749FB10BD45585449345F4952DD
:1073A0005148616E646C65720000000010B50321E5
:1073B00001A0FFF739FB10BD45585449395F355FCF
:1073C00049525148616E646C657200000149086061
:1073D0007047000014040140002123498279002AEB
:1073E0003AD00A46126803689A430B461A600A1D8F
:1073F000126803689A430B1D1A60027911440A68E7
:1074000003681A430A60184A0832126803689A43EC
:10741000154B08331A601A1D126803689A43124B01
:107420000C331A604279102A0ED11A1F12680368B1
:107430001A430D4B08331A601A1D126803681A4369
:10744000094B0C331A600DE00749427911440A6870
:1074500003681A430A6005E0027911440A68036868
:107460009A430A60704700000004014030B50446AA
:1074700004254FF4302000F07FF80546042D17D185
:107480000C48006940F002000A490861084644615E
:10749000006940F0400008614FF4302000F06CF8C3
:1074A00005460448006941F6FD710840014908613C
:1074B000284630BD0020024004200B49C96811F065
:1074C000010F01D001200EE00749C96811F0040F37
:1074D00001D0022007E00449C96811F0100F01D063
:1074E000032000E0042070470020024010B5032173
:1074F00001A0FFF799FA10BD464C4153485F49522D
:107500005148616E646C65720000000003480069B8
:1075100040F08000014908617047000000200240EF
:1075200070B504460D460426F00200F025F8064624
:10753000042E11D10948006940F001000749086193
:107540002580F00200F018F806460448006941F66C
:10755000FE71084001490861304670BD00200240BC
:107560000248034948600348486070472301674563
:1075700000200240AB89EFCD00B502460423FFF79F
:107580009BFF034603E0FFF797FF0346521E012BC4
:1075900001D1002AF7D102B90523184600BD000029
:1075A00010B5032101A0FFF73FFA10BD46534D432C
:1075B0005F49525148616E646C6572002DE9F84F65
:1075C00082460D4617464FF0000800200090814685
:1075D000504600F003FE00F0FF0BBBF1000F3BD064
:1075E00000202870002635E01AF80640302C01DB18
:1075F000012000E00020392C01DC012100E0002105
:1076000008420BD1462C01DC012000E00020412C77
:1076100001DB012100E00021084209D04F4504D1DF
:107620004046411C01F0FF082C54012000900FE05F
:10763000009868B14F4505D100224046411C01F039
:10764000FF082A540020009009F1010000F0FF0912
:10765000701CC6B25E45C7DB4046BDE8F88F2DE919
:10766000F84F82460C4617464FF000080020009065
:107670008146504600F0B2FD00F0FF0BBBF1000F59
:107680002FD000202070002529E01AF80560302E48
:1076900001DB012000E00020392E01DC012100E0A7
:1076A0000021084209D04F4504D14046411C01F059
:1076B000FF082654012000900FE0009868B14F4564
:1076C00005D100224046411C01F0FF082254002051
:1076D000009009F1010000F0FF09681CC5B25D458A
:1076E000D3DB4046BDE8F88F70B50B46044603E097
:1076F00014F8015B03F8015B1500A2F10106B2B2B8
:10770000F6D170BD2DE9F04706468846144600279D
:10771000C146FFF725FF2046E11704EBD151C1F325
:107720004F27E11704EBD1514912B4EB412101D0AD
:10773000781C87B2002507E04FF4007101FB076059
:10774000FFF794FE681C85B2BD42F5DB002508E01A
:1077500039F8021B2A466B1C9DB206EB4200FFF76C
:10776000DFFE2000A4F101018CB2F1D1FFF7CEFEC3
:10777000BDE8F08701460A461068704713B5024617
:10778000042301A903E011F8010B02F8010B180012
:10779000A3F10104E3B2F6D104201CBD70B5044688
:1077A0000025107820B116782068B0FBF6F085B27D
:1077B0002068084420601078984203DA1078401C52
:1077C000107002E02068401B206016782068B0FB33
:1077D000F6F080B270BD0FB438B5044606A800902C
:1077E0002046009A059907F0E5F90020009038BC82
:1077F0005DF814FB30B503460C46002514E01878FC
:10780000802806DA13F8010B24F8020B681C85B2F5
:107810000AE059781A7841EA022000F01BF820802B
:107820009B1CA81C85B2A41C18780028E7D1284608
:1078300030BD30B5ADF5017D04460D4601A92046A9
:10784000FFF7D8FF294601A800F0EAFC0DF5017DFD
:1078500030BD0000024641F66F210AE0074800EB08
:1078600081004088904203D1044830F821007047DD
:10787000491E0029F2D10020F9E7000000F90008B4
:1078800010B504462948844208D10121042003F0A0
:1078900097FB0021042003F093FB46E02448844238
:1078A00008D10121082003F08BFB0021082003F000
:1078B00087FB3AE01F48844208D10121102003F0E1
:1078C0007FFB0021102003F07BFB2EE01A4884424E
:1078D00008D10121202003F073FB0021202003F0B8
:1078E0006FFB22E01548844208D10121402003F0BB
:1078F00067FB0021402003F063FB16E01048844240
:1079000008D10121802003F05BFB0021802003F0DF
:1079100057FB0AE00B48844207D10121801503F090
:107920004FFB0021A01503F04BFB10BD00080140E8
:10793000000C0140001001400014014000180140FB
:10794000001C01400020014030B500228B071C0FB5
:107950000F2303FA04F20B4B8C1053F8243093439B
:10796000084C8D1044F8253023468C1053F82430F1
:107970008C07240F00FA04F42343024C8D1044F8C2
:10798000253030BD080001402DE9F04102460025B8
:107990000026002000230024002791F803C00CF0EB
:1079A0000F0591F803C01CF0100F03D091F802C02E
:1079B0004CEA050591F800C0BCF1000F31D0146805
:1079C00000202BE04FF0010C0CFA00F3B1F800C0DE
:1079D0000CEA03069E4220D183004FF00F0C0CFAF4
:1079E00003F7BC4305FA03FC4CEA040491F803C016
:1079F000BCF1280F06D14FF0010C0CFA00FCC2F8C4
:107A000014C00AE091F803C0BCF1480F05D14FF053
:107A1000010C0CFA00FCC2F810C0401C0828D1D39D
:107A20001460B1F800C0BCF1FF0F34DD54680020D1
:107A30002EE000F1080C4FF0010808FA0CF3B1F841
:107A400000C00CEA03069E4221D183004FF00F0CC8
:107A50000CFA03F7BC4305FA03FC4CEA040491F862
:107A600003C0BCF1280F05D100F1080C08FA0CF88E
:107A7000C2F8148091F803C0BCF1480F07D100F19F
:107A8000080C4FF0010808FA0CF8C2F81080401CEE
:107A90000828CED35460BDE8F081000038B5044614
:107AA00036E01D4A6068811A904217D009DC1B49F4
:107AB00040180DD0B0F5806F0CD0B0F5006F13D129
:107AC0000AE0B1F5806F0BD0B1F5006F0CD109E081
:107AD000042509E0082507E0102505E0202503E03E
:107AE000402501E0802500BF00BF45F001000121D5
:107AF00003F056FA20788DF802002089ADF80000D6
:107B000060788DF8030069466068FFF73DFF0C342C
:107B100020780028C5D138BD0014014000F8FEBF10
:107B20000246002093680B4201D0012000E00020B3
:107B30007047416170470161704700002DE9F041D5
:107B400004460D46012717E00F494FF49672486826
:107B50000021FEF798F92B46322200210B4806F04F
:107B600013FFC6B246B108494868214604F01BFB22
:107B700010B10120BDE8F0813800A7F10101CFB2BA
:107B8000E2D100BFF6E70000B8000020004400404A
:107B90002DE9F04104460D4601271FE013494FF43B
:107BA000967248680021FEF76EF92B4632220021BA
:107BB0000F4806F0E9FEC6B266B10C494868214696
:107BC000FDF7D2FA10B10120BDE8F0814FF47A70D0
:107BD00006F044F84FF47A7006F040F83800A7F148
:107BE0000101CFB2DAD100BFEEE70000B8000020FB
:107BF000004400402DE9F04104460F4615464FF081
:107C000001081FE014494FF4967248680021FEF7FE
:107C10003AF92B4632220021104806F0B5FEC6B2D2
:107C200086B10D494868214604F0BDFA10B1012023
:107C3000BDE8F08108494868394604F0B4FA08B153
:107C40000120F5E75FEA0800A8F1010101F0FF0853
:107C5000D8D100BFECE70000B8000020004400408D
:107C60000246114623E008782E281FD111F8010C96
:107C7000302801DB012000E0002011F8013C392B05
:107C800001DC012300E0002318420FD0487830289F
:107C900001DB012000E000204B78392B01DC0123BF
:107CA00000E00023184201D001207047491C0878E9
:107CB0000028D8D100BFF8E770B504460D46164637
:107CC0000A2332462946204600F002F870BD000023
:107CD0002DE9F04105460C4616461F4631E029467F
:107CE0001B4806F0D2FE1B494FF4967248680021EB
:107CF000FEF7C9F8334632220021154806F044FE4B
:107D000000F0FF08B8F1000F17D02078212808D123
:107D100010494868611CFDF727FA50B90120BDE8F9
:107D2000F0810C4948682146FDF71EFA08B1012090
:107D3000F5E74FF47A7005F091FF4FF47A7005F093
:107D40008DFF3800A7F10101CFB2C8D100BFE6E72F
:107D500000440040B800002070B50446002500BF74
:107D60002846691CCDB2052801DD032070BD052120
:107D70001EA0FEF759FE2048006920F010001E49A1
:107D800008612046FFF76CFF40B14FF47A721BA1E7
:107D90001BA0FFF791FF50B90120E7E74FF47A727B
:107DA00016A11BA0FFF788FF08B90120DEE74FF4FA
:107DB0007A7005F053FF2146194806F066FE04224A
:107DC00018A11CA000F08AF800B9C9E74FF4FA60C6
:107DD00005F044FF05211AA0FEF726FE06480069BB
:107DE00040F01000044908610020BFE7C1ACBDD3DA
:107DF000B5BD746370000000489D00204F4B00002B
:107E000041542B5149444E5349503D300D0A000016
:107E100041542B5149444E5349503D310D0A000005
:107E200000440040414C524541445920434F4E4E7E
:107E300045435400434F4E4E454354204F4B0000A2
:107E4000C6F4B6AF536F636B6574B7FECEF1A3ACE7
:107E5000C1ACBDD3B7FECEF1C6F7000070B5054684
:107E6000012622E014494FF4967248680021FEF77B
:107E70000AF82B4632220021104806F085FDC4B2D4
:107E80009CB10D4948680EA1FDF76EF928B1052196
:107E90000DA0FEF7C9FD002070BD074822464168CD
:107EA0000CA002F06BF80120F6E73000A6F101010A
:107EB000CEB2D7D100BFEFE7B800002000440040A9
:107EC000434C4F5345440000C1ACBDD3B1BBB9D8FE
:107ED000B1D50000BDD3CAD53A0000002DE9F0416C
:107EE00006460F46144600250BE04FF47A723946D9
:107EF0003046FFF77FFE10B10120BDE8F081681C1D
:107F0000C5B2A542F1DB0020F7E7F0B504460A460A
:107F1000002300200025214633E00E78252E02D1D3
:107F20000125461CB0B2012D2AD10E78642E06D14F
:107F3000AC461E465F1CBBB202F806C000250E7898
:107F4000662E07D14FF0020C1E465F1CBBB202F832
:107F500006C000250E78732E07D14FF0030C1E4685
:107F60005F1CBBB202F806C000250E78632E07D155
:107F70004FF0040C1E465F1CBBB202F806C0002581
:107F8000491C0E78002EC8D1F0BD00002DE9FE433B
:107F900005460F4600261C48006800901A48001D40
:107FA00000680290184808300068019000241BE027
:107FB00014E05DF824003E21B0FBF1F201FB120851
:107FC000404605F011FC3146721CD6B268545DF88B
:107FD00024003E21B0FBF1F04DF824005DF82400B0
:107FE0000028E6D1601CC4B2032CE1DB0F26384622
:107FF00005F0FAFB3246761CA85400223146761C66
:108000006A543046BDE8FE83E8F7FF1F01460020B2
:108010000A78302A01DB012200E000220B78392B9C
:1080200001DC012300E000231A4203D00A78120782
:10803000100E24E00A78412A01DB012200E0002230
:108040000B78462B01DC012300E000231A4204D008
:108050000A78D21F1207100E11E00A78612A01DB9C
:10806000012200E000220B78662B01DC012300E0F6
:1080700000231A4203D00A78D21F1207100E4A7842
:10808000302A01DB012200E000224B78392B01DC91
:10809000012300E000231A4204D04A78303A024417
:1080A000D0B224E04A78412A01DB012200E000221C
:1080B0004B78462B01DC012300E000231A4204D058
:1080C0004A78373A0244D0B211E04A78612A01DB9B
:1080D000012200E000224B78662B01DC012300E046
:1080E00000231A4203D04A78573A0244D0B270476C
:1080F0000FB438B5044606A800902046009A0599AA
:1081000006F058FD00200090204600F067F8C0B24D
:1081100038BC5DF814FB00002DE9FC5F0546002625
:10812000B346B1464FF07E5A44E015F8014B2D2C72
:1081300001D101263EE02E2C02D14FF0010B39E097
:10814000302C2EDB392C2CDCBBF1000F0ED11F495B
:108150004846FDF773F88146A4F13000FDF76CFA4C
:1081600007464946FDF712F8814623E05046FDF7E1
:10817000CAFA0746164A174BFDF77DF9CDE900010B
:10818000FDF7FCFA8246A4F13000FDF755FA80466F
:108190005146FDF753F807464946FCF7F7FF81467D
:1081A00008E026B10C494846FDF748F881464846A4
:1081B000BDE8FC9F28780028B7DC26B10649484670
:1081C000FDF73CF881464846F2E7000000002041F8
:1081D0009A9999999999B93F000080BF10B50146C5
:1081E00000200A4601E0431C98B212F8014B002C13
:1081F000F9D110BD002000210CE001EB4102074B3A
:108200001B6803EB02121289012A01D0421CD0B272
:108210004A1CD1B21429F0DB704700006000002036
:1082200070B504460E46002507E02288701905A1A6
:10823000FFF75EFF284485B2A41C20880028F4D1F3
:10824000284670BD2530347800000000024600202A
:1082500039B950784FF6FF7303EA002013781843BA
:1082600006E010784FF6FF7303EA002053781843B6
:10827000704700000149088870470000E0F7FF1FC1
:1082800010B504462AA1204603F08DFF08B1012055
:1082900010BD28A1204603F086FF08B10220F7E7B1
:1082A00025A1204603F07FFF08B10320F0E723A1BA
:1082B000204603F078FF08B10420E9E720A120461A
:1082C00003F071FF08B10520E2E71EA1204603F08C
:1082D0006AFF08B10620DBE71BA1204603F063FF1D
:1082E00008B10720D4E719A1204603F05CFF08B1CC
:1082F0000820CDE716A1204603F055FF08B109205C
:10830000C6E714A1204603F04EFF08B10A20BFE7DC
:1083100011A1204603F047FF08B10B20B8E70FA1D9
:10832000204603F040FF08B10C20B1E70120AFE781
:108330004A616E00466562004D61720041707200D4
:108340004D6179004A756E004A756C004175670091
:10835000536570004F6374004E6F76004465630090
:1083600070B505460024291901220DA0FFF777F901
:108370002044C4B20AA0FFF783FF064628193246FC
:108380000AA1FFF7B5FE2044C4B22919002204A0B7
:10839000FFF765F92044C4B200202855204670BD7F
:1083A0004D61792032342032303136002D25303283
:1083B000642D000010B500240F48FFF76FFB562016
:1083C00000F03CF8302000F039F8002000F036F8DA
:1083D0000A2000F033F8032000F030F8062000F007
:1083E0002DF800BF05E0FF21204600F0FFFD601CD6
:1083F000C4B2202CF7DB10BD64F7000810B50024D0
:1084000080210A48FFF78CFB00B90224402107486D
:10841000FFF786FB00B9012401210548FFF780FB27
:10842000012800D10424204610BD000000100140A6
:108430000008014001E001F03DF9FCE710B50446F9
:108440004FF400410B48FFF774FB032000F044F8A1
:108450000421802000F010F80821204600F00CF8DC
:108460004FF400410348FFF766FB042000F034F8A6
:1084700010BD00000010014070B504460D460026F6
:1084800024E04FF480411348FFF753FB032000F032
:1084900023F814F0800F05D04FF400510D48FFF77A
:1084A0004AFB04E04FF400510A48FFF742FB032067
:1084B00000F012F84FF480410648FFF73CFB6006DD
:1084C000040E012000F008F8701CC6B2AE42D8DBE2
:1084D00070BD00000010014000EB400188B200BFF9
:1084E0000100A0F1010290B2FAD1704710B500244A
:1084F00000BF12E00A4A125D02F00F016206100E80
:1085000000F074FD064A125D1111012202EB4402D3
:10851000D0B200F06BFD601CC4B2102CEADB10BDC1
:108520003C9E00203EB50020D64908730A4692F8CA
:10853000BD1092F8BC0000F003FAD2490868FDF7BC
:10854000E2F8044622460B46CFA16846FFF743F9FE
:10855000CC48008A10F4807F09D0684600F0D6FC31
:10856000C848007B40F08000C649087308E0C8A0F6
:1085700000F0CCFCC348007B40F08000C149087388
:10858000C0494868FDF7BFF8044622460B46BEA125
:108590006846FFF720F9BB48008A10F4007F16D028
:1085A000B84890F8B00010F0400F06D0B548007BF6
:1085B00040F00800B349087305E0B248007B40F082
:1085C0001000B0490873684600F048FC15E0AD485B
:1085D00090F8B00010F0400F06D0AA48007B40F0A1
:1085E0000800A849087305E0A648007B40F0100089
:1085F000A4490873A6A000F031FCA748007940F018
:108600000200A54908710846807940F00100887190
:108610009C48007BC873012048729A498868FDF71E
:1086200072F804464FF066329C4BFDF793F805D282
:108630009948407A40F00400974948729149886807
:10864000FDF761F804464FF03332954BFDF782F8A1
:1086500005D29148407A40F002008F49487289491A
:108660008868FDF750F8044600228E4BFDF772F83B
:1086700005D28948407A40F008008749487281480D
:1086800090F8C200632801DA012000E000207D4953
:1086900091F8C210002901DD012100E0002108420B
:1086A00006D07D48007940F010007B49087105E054
:1086B0007948007920F0100077490871714890F8E6
:1086C000C200632801DA012000E000206D4991F822
:1086D000C2100A2901DD012100E00021084206D074
:1086E0006D48007940F020006B49087105E06A4848
:1086F000007920F0200068490871624890F8C200B3
:10870000632801DA012000E000205E4991F8C210E0
:10871000142901DD012100E00021084206D05E4855
:10872000007940F040005C49087105E05A48007942
:1087300020F04000584908715248007C10F0100F9A
:1087400006D05548807B40F040005349887305E0CF
:108750005148807B20F040004F4988734948007C95
:1087600010F0030F06D04C48007940F001004A4950
:10877000087105E04848007920F001004649087179
:108780004048007C10F00C0F06D04348407940F080
:1087900001004149487105E03F48407920F001005F
:1087A0003D4948713748007C10F0050F06D03A4823
:1087B000807B40F080003849887305E03648807B34
:1087C00020F08000344988732E48007C10F00A0F96
:1087D00006D03148807B40F020002F49887305E0A7
:1087E0002D48807B20F020002B4988732548007C91
:1087F00010F0800F06D02848007940F00400264988
:10880000087105E02448007920F00400224908712D
:108810001C4890F8C600FF2806D11F48407B40F056
:1088200040001D49487305E01B48407B20F0400094
:10883000194948731348007C10F0400F06D01648C1
:10884000407B20F020001449487305E01248407B2B
:1088500040F02000104948730A48007C10F0200FB7
:1088600006D00D48807B40F00A000B49887305E074
:108870000948807B20F00A0007498873FFF736FE1D
:108880003EBD0000489D0020252E326620200000BD
:108890002D2D2D2D000000003C9E002066660E4010
:1088A00033330F400000104070B50546002404E04B
:1088B000002016490855601CC4B2102CF8DB14A027
:1088C00000F024FB052D18D2DFE805F003070B0F9D
:1088D000130011A000F0C2FA13E011A000F0BEFADC
:1088E0000FE011A000F0BAFA0BE011A000F0B6FA08
:1088F00007E011A000F0B2FA03E007A000F0AEFA22
:1089000000BF00BFFFF7F2FD70BD00003C9E0020DD
:10891000424F4F540000000054502D300000000022
:1089200030432D310000000055432D32000000007F
:1089300055502D330000000030502D330000000052
:10894000F8B504460D460A2095FBF0F100FB1150E6
:108950002B49085C8DF800000A2095FBF0F0085CBC
:108960008DF801000A2094FBF0F100FB114024492E
:10897000085C8DF802000A2094FBF0F0C6B21EB924
:1089800000208DF8030008E0012E03D106208DF8A9
:10899000030002E00C208DF803001A48007828B18B
:1089A0009DF8000040F010008DF800001548007898
:1089B00008B9012000E00020124908709DF803006A
:1089C00040F080008DF803009DF8030040F0100097
:1089D0008DF803009DF80010142000F0F1FA9DF8C6
:1089E0000110162000F0ECFA9DF80210182000F09B
:1089F000E7FA9DF803101A2000F0E2FAF8BD000033
:108A0000A6F700089F000020F0B587B004460025B7
:108A100004E000206A494855681CC5B2102DF8DBF7
:108A2000052C2AD2DFE804F0032A5179A100654918
:108A3000D1F8DC00FCF767FE064632460B4662A121
:108A400004A8FEF7C8FE5F49D1F8E000FCF75BFE22
:108A5000064632460B465CA101A8FEF7BCFE04A800
:108A600000F054FA01A800F0F9F95548007940F0F7
:108A7000020053490871A020887391E05149D1F850
:108A8000E400FCF740FE064632460B464EA104A821
:108A9000FEF7A1FE4B49D1F8E800FCF734FE06468C
:108AA00032460B4648A101A8FEF795FE04A800F047
:108AB0002DFA01A800F0D2F94148807940F0010078
:108AC0003F498871A02088736AE03E498869FCF7B5
:108AD0001AFE064632460B463BA104A8FEF77BFE73
:108AE0003849C869FCF70FFE064632460B4636A1E8
:108AF00001A8FEF770FE04A800F008FA01A800F033
:108B0000ADF92F48007940F002002D490871084660
:108B1000007940F00100087142E02A49086AFCF738
:108B2000F2FD064632460B4629A104A8FEF753FE85
:108B30002449486AFCF7E7FD064632460B4624A165
:108B400001A8FEF748FE04A800F0E0F901A800F033
:108B500085F91B48807940F0010019498871084661
:108B6000407940F0010048711AE01BA104A8FEF70B
:108B700032FE144890F8C62018A101A8FEF72BFE7B
:108B800004A800F0C3F901A800F068F900200D491D
:108B900008730B48807B40F00A000949887300BFC6
:108BA00000BF00200649C873064A92F8BD1092F82B
:108BB000BC00FFF7C5FEFFF799FC07B0F0BD000051
:108BC0003C9E0020489D0020252E3266202000007B
:108BD000252E32662000000020202000253033643E
:108BE00020202000FEB508208B4908730A4692F821
:108BF000BD1092F8BC00FFF7A3FE88A000F086F934
:108C0000854991F8C400FCF720FD0646FCF77BFD82
:108C1000044622460B4683A16846FEF7DCFD684603
:108C200000F01CF98148007940F002007F4908718A
:108C30000846807940F0010088717748007BC8734E
:108C40000120487274498868FCF75DFD04464FF0C6
:108C50006632774BFCF77EFD05D27448407A40F0CF
:108C60000400724948726C498868FCF74CFD044660
:108C70004FF033326F4BFCF76DFD05D26B48407AF5
:108C800040F002006949487263498868FCF73BFD7F
:108C900004460022684BFCF75DFD05D26348407A2C
:108CA00040F00800614948725B498868FCF72BFD79
:108CB00004464FF06632614BFCF74CFD05D25B4831
:108CC000407A40F0100059494872534890F8C20069
:108CD000632806DA5548007940F0100053490871BE
:108CE00005E05248007920F01000504908714A48C8
:108CF00090F8C200322806DA4C48007940F0200093
:108D00004A49087105E04948007920F020004749A8
:108D10000871414890F8C200142806DA43480079E7
:108D200040F040004149087105E04048007920F0DA
:108D300040003E4908713848007C10F0100F06D002
:108D40003A48807B40F040003849887305E0374856
:108D5000807B20F04000354988732F48007C10F05C
:108D6000030F06D03148007940F001002F49087107
:108D700005E02E48007920F001002C4908712648B2
:108D8000007C10F00C0F06D02848407940F001001C
:108D90002649487105E02548407920F00100234923
:108DA00048711D48007C10F0050F06D01F48807BDD
:108DB00040F080001D49887305E01C48807B20F04E
:108DC00080001A4988731448007C10F00A0F06D0FE
:108DD0001648807B40F020001449887305E0134852
:108DE000807B20F02000114988730B4890F8B00078
:108DF00010F0200F06D00D48807B40F00A000B4990
:108E0000887305E00948807B20F00A0007498873D1
:108E1000FFF76CFBFEBD0000489D00202D55502D36
:108E200000000000252E3266202000003C9E00201D
:108E300066660E4033330F400000104066661040F7
:108E400070B505460C4604480168284603F05CF8F6
:108E5000265C304670BD00007C0000207CB50646D4
:108E600000243546082200216846FDF70CF81CE076
:108E700028782E280CD028782349FFF7E1FF1DF829
:108E8000041008430DF80400601CC4B26D1C09E016
:108E90006D1C1D492E20FFF7D3FF1DF80410084359
:108EA0000DF80400032C00DD02E028780028DFD153
:108EB00000BF6D4617E014492E20FFF7C1FF9DF853
:108EC000011008420ED0032409E0601E1DF80000C6
:108ED0000DF804000021601E0DF80010C4B2002C33
:108EE00001DDF2E700E0E6E700BF002409E015F845
:108EF000011B0A2202EB4402D0B200F061F8601CB0
:108F0000C4B2042CF3DB7CBD91F700087CB50646A7
:108F100000243546082200216846FCF7B4FF1CE017
:108F200028782E280CD028782449FFF789FF1DF8CF
:108F3000041008430DF80400601CC4B26D1C09E065
:108F40006D1C1E492E20FFF77BFF1DF804100843FF
:108F50000DF80400032C00DD02E028780028DFD1A2
:108F600000BF6D46062417E014492E20FFF768FF66
:108F70009DF8011008420ED0032409E0601E1DF880
:108F800000000DF804000021601E0DF80010C4B2AE
:108F9000002C01DDF2E700E0E6E700BF002409E075
:108FA00015F8011B0622A2EB4402D0B200F008F82B
:108FB000601CC4B2042CF3DB7CBD00007CF700080D
:108FC00070B504460D4605F00F01204600F00EF87E
:108FD0002911621CD0B200F009F8204604EBD071D0
:108FE0004910014A555470BD3C9E002070B504469E
:108FF0000D464FF400410D48FEF79BFD0320FFF79F
:109000006BFA0321A020FFF737FAA106080E06210C
:10901000FFF732FA2907080E0421FFF72DFA4FF463
:1090200000410248FEF787FD70BD000000100140BE
:1090300010B5032101A0FDF7F7FC10BD4932433103
:109040005F45525F49525148616E646C6572000021
:1090500010B5032101A0FDF7E7FC10BD49324331F3
:109060005F45565F49525148616E646C65720000FD
:1090700010B5032101A0FDF7D7FC10BD49324332E2
:109080005F45525F49525148616E646C65720000E1
:1090900010B5032101A0FDF7C7FC10BD49324332D2
:1090A0005F45565F49525148616E646C65720000BD
:1090B00010B504460120A0470320A04710BD2DE9AC
:1090C000FF47074616461C46DDE90C899DF804005B
:1090D0004006000E0190002C16DD384600F0C0F866
:1090E000012201A9384600F076F8054635B9384620
:1090F000FFF7DEFF002004B0BDE8F08722463146CE
:10910000384600F068F80546384600F0A9F89DF8A2
:10911000040040F001000190012201A9384600F04E
:109120005AF805464A464146384600F006F80546D4
:10913000384600F0ACF82846DDE72DE9F047044654
:109140000E461546A94628E04FF00008002714E017
:109150007806070E0320A0470A2006F0A3F9052091
:10916000A04708B147F001070420A0470A2006F0F5
:1091700099F908F1010000F0FF08B8F1080FE7DBEA
:1091800006F8017B002D04DD0021204600F00DF8DB
:1091900003E00121204600F008F82800A5F10101B4
:1091A000CDB2D1D14846BDE8F08770B504460D4632
:1091B00015B10120A04701E00220A0470320A047ED
:1091C0000A2006F06FF90420A0470A2006F06AF989
:1091D0000120A04770BD2DE9F04704460E46154614
:1091E000A94639E016F8018B002717E018F0800F28
:1091F00002D00120A04701E00220A0470320A047A1
:109200000A2006F04FF90420A0470A2006F04AF988
:10921000781CC7B24FEA48604FEA1068082FE5DBB8
:109220000120A0470320A0470A2006F03BF90520B3
:10923000A04782460A2006F035F90420A0470A20FC
:1092400006F030F9BAF1000F04D0A9EB0500C0B266
:10925000BDE8F087681EC5B2002DC3D14846F7E7C8
:1092600010B504460320A047052006F01BF9012095
:10927000A0470A2006F016F90220A0470A2006F0AF
:1092800011F90420A0470A2006F00CF910BD10B512
:1092900004460220A047142006F004F90320A0474A
:1092A0000A2006F0FFF80120A0471E2006F0FAF879
:1092B00010BD2DE9FF47074614461D46DDE90C8920
:1092C0009DF804004006000E01903846FFF7C8FFE5
:1092D000012201A93846FFF77EFF064636B9384617
:1092E000FFF7E6FE002004B0BDE8F0872A462146DD
:1092F0003846FFF770FF06464A4641463846FFF7B4
:109300006AFF06463846FFF7C2FF3046EBE700002B
:109310002DE9F041054609492846FBF78FFF07462E
:10932000FCF7BEF986B2A6F56170322190FBF1F030
:10933000C4B284F020042046BDE8F0810000484318
:109340007CB5044607226946002000F0D1F80546A6
:109350000DB900207CBD9DF8001001F07F00FCF7E6
:1093600054FDA0719DF8011001F07F00FCF74DFD48
:1093700060719DF8021001F03F00FCF746FD20717E
:109380009DF8031001F03F00FCF73FFDA0709DF831
:10939000041001F01F00FCF738FD60709DF8050017
:1093A000FCF733FD20709DF80600FCF72EFDE07001
:1093B0000120CFE770B504460025062C33D2DFE844
:1093C00004F032030C151E27184A12681189174A37
:1093D00012685068FEF7AFFB25E0144A1268118945
:1093E000124A12685068FEF7A4FB1CE00F4A12688C
:1093F000918A0E4A12681069FEF79DFB13E00B4A32
:109400001268918A094A12681069FEF792FB0AE015
:10941000064A12681189054A12685068FEF780FBF7
:1094200000B1012500BF00BF284670BDB00000207C
:1094300038B5054600242C4805600068FEF72EFB71
:1094400001226946122000F053F804469DF80000FE
:109450005D2847D01021072000F0DAF80440902161
:10946000082000F0D5F804402048FFF751FF009095
:109470009DF800100A2000F0CBF8044000210B20DA
:1094800000F0C6F804405D21122000F0C1F804404D
:1094900000231A461946184600F03AF80440002105
:1094A000084600F0B5F804400021012000F0B0F8B3
:1094B00004408021022000F0ABF804400121032089
:1094C00000F0A6F804400121042000F0A1F80440B7
:1094D0000021052000F09CF804400621084600F019
:1094E00097F80440204638BDB00000200000C0407E
:1094F00037B582B00C461546012302AA6F210348F6
:10950000CDE90045FFF7DBFD05B030BDB5930008A0
:109510002DE9F84381460F4690461C4601264046F9
:10952000FDF757FB8DF800003846FDF752FB8DF82C
:1095300001004846FDF74DFB8DF8020014F0010FC5
:1095400005D09DF8000040F080008DF8000014F078
:10955000020F05D09DF8010040F080008DF8010059
:1095600014F0040F05D09DF8020040F080008DF843
:109570000200002509E01DF8051005F10C02D0B22B
:1095800000F046F80640681CC5B2032DF3DB002C42
:1095900005DDD021082000F03BF8064004E09021D2
:1095A000082000F035F806403046BDE8F8837CB569
:1095B0000446A079FDF70DFB8DF800006079FDF7FA
:1095C00008FB8DF801002079FDF703FB40F08000D7
:1095D0008DF80200A078FDF7FCFA8DF803006078A2
:1095E000FDF7F7FA8DF804002078FDF7F2FA8DF810
:1095F0000500002507E01DF80510E8B200F008F8A6
:109600000640681CC5B2072DF5DB30467CBD000066
:1096100003B583B0012004A9034603AACDE90010D5
:109620006F210248FFF745FE05B000BDB593000865
:1096300070B504460D462B4622460249024800F00A
:1096400005F870BD00F80308E97600082DE9F04739
:109650000746884614461D46A14608EBC52004224D
:109660002146B8474E463088B0F5006F01DD012035
:1096700000E000203188042901DA012100E0002106
:10968000084300D013E0328808EBC5202146B847D4
:109690003088001F81B209F1040004F0BBF8824653
:1096A0007188514500D002E00120BDE8F08700201C
:1096B000FBE7000071B600BF0648006800F4E060F8
:1096C00005490843001D03490860BFF3408F00BFF0
:1096D00000BFFEE70CED00E00000FA0530B50246E1
:1096E000002000BF02F07F03D2090AB143F08003DB
:1096F0000446451CE8B20B55002AF3D130BD70B5C5
:10970000054625B1284604F07FFB044602E004F03C
:1097100045FB044614B16668304670BD0020FCE786
:10972000F0B59DB005460C46607A48B1627A04A94E
:109730006068FCF797FB0020617A04AA505403E0AC
:1097400004A9606802F0FCFC207A0D2839D009DCFD
:1097500077D2DFE800F0A310A3A3231C5CA3A342ED
:10976000A3152F0017380728F2D2DFE800F03D4696
:1097700097306B79580028462168FEF72CF892E064
:109780006068027828462168FEF725F88BE060685B
:10979000028828462168FEF71EF884E061680868A0
:1097A000FBF7B1FF06460B46324628462168FEF716
:1097B00012F878E06068027828462168FEF70BF816
:1097C00071E02846D4E90012FEF705F86BE004AA20
:1097D00028462168FDF7FFFF65E0606802682846BB
:1097E0002168FDF7F8FF5EE0606880470646324674
:1097F00028462168FDF7EFFF55E0606800782B4BA5
:1098000053F8202028462168FDF7E5FF4BE060680B
:1098100090F9002028462168FDF7DDFF43E06068ED
:109820000068667A0123B340184201D0012000E0AD
:1098300000201E4B53F8202028462168FDF7CBFF5F
:1098400031E02BE06068007861684978CDE900106C
:1098500060688378C27828462168FDF7BCFF22E063
:109860006168098888B202F025FD03906168098863
:1098700088B202F01FFD02906168098888B202F088
:1098800019FD01909DF80E0000909DF809309DF89B
:10989000042028462168FDF79EFF04E02846216841
:1098A000FDF799FF00BF00BF1DB0F0BD9400002080
:1098B00000BFFEE7054A1168486802E009684A6887
:1098C00010440A68002AF9D1704700007000002097
:1098D00002460A4B1868002106E0A2F10803834201
:1098E00000D107E0014600680368002BF5D101B103
:1098F0000B60704703680B6000BFFAE77000002040
:10990000054908600021044A126811600821024AD2
:1099100012685160704700007000002010B50346C7
:109920001048016803F1080083B20FE00868401A8C
:109930004C68001B984208D3486842185360086876
:1099400010600A6002F1080010BD0968086800286C
:10995000ECD1486842180020106053600A6002F1A0
:109960000800F1E770000020014600200A4602E0EE
:109970000C32431CD8B2137A002BF9D1704730B5A2
:10998000039C7E2505707F25057382704170C3732B
:10999000447330BD2DE9F05F06460C4691469A4669
:1099A000DDF828B00C9F002584F8039084F804A00B
:1099B00084F808B0678117B1F81CE08001E000204E
:1099C000E08022782846691C8DB23254E07B50B981
:1099D000A2782846691C8DB2325462782846691CE8
:1099E0008DB232540CE0E07B012809D16278284620
:1099F000691C8DB23254A2782846691C8DB232544B
:109A0000E2782846691C8DB2325422792846691CB6
:109A10008DB23254E08802122846691C8DB232544D
:109A2000A2792846691C8DB23254BFB1227A2846E9
:109A3000691C8DB23254608902122846691C8DB2AD
:109A40003254A27A2846691C8DB232546289711947
:109A50000B98FCF707FA6089284485B2607B0128DF
:109A600010D12946304603F0D5FE80464FEA282221
:109A70002846691C8DB232542846691C8DB206F8FE
:109A800000800BE0607B022808D1681E81B230465E
:109A900003F0FCFE29466A1C95B27054227B2846CE
:109AA000691C8DB232542846BDE8F09F2DE9F05F65
:109AB00006468B4614460025AA460120A073294677
:109AC0006D1C705C2178884200D099E0E07B50B931
:109AD0002846691C8DB2305C6178884200D093E0E2
:109AE000681C85B220E0E07B01281DD12846691C56
:109AF0008DB216F80080A078404501D0012000E02A
:109B00000020B8F1FF0F01D0012100E00021084240
:109B100000D079E0681C85B2B8F1FF0F02D14FF098
:109B2000010901E04FF000092846691C8DB2305C44
:109B3000E0702846691C8DB2305C20712846691C93
:109B40008DB2305CE080E0884FF6FF7101EA0020C2
:109B5000E080E08829466A1C95B2715C0843E08089
:109B6000E08800B32846691C8DB2305C207228461C
:109B7000691C8DB2305C608160894FF6FF7101EA2B
:109B800000206081608929466A1C95B2715C084397
:109B90006081AA466089284485B2E1886089C01C3A
:109BA000814200D034E0607B022809D1294630464A
:109BB00003F06CFE0746715DB94200D01CE010E076
:109BC000607B01280CD12946304603F023FE07466E
:109BD00070190121FEF73AFBB84200D00CE000E01A
:109BE00000BFB9F1010F02D10620A07301E00020EF
:109BF000A0735046BDE8F09F0220A0730020F9E753
:109C00000520A0730020F5E70620A0730020F1E7EF
:109C10000120A0730020EDE77047000070B500211F
:109C200000230F22C4780CB3164C246804F4E064BB
:109C3000C4F5E064210AC1F10403CA40447804FA7F
:109C400003F184781440214309010F4C0678A15593
:109C5000047804F01F050124AC4005786D114FF025
:109C6000E02606EB8505C5F8004109E0047804F01C
:109C70001F050124AC40054D0678761145F82640B5
:109C800070BD00000CED00E000E400E080E100E0C9
:109C900002490143024A1160704700000000FA05C2
:109CA0000CED00E0024A0A400243024B1A60704782
:109CB00080FFFF1F08ED00E010B588B00022694664
:109CC0000BA000F0CFFA044674B16846FCF7B2F975
:109CD00050B10522694609A0FCF7A6FE0B220C49EB
:109CE0000DF10200FCF7BEF8204608B010BD0000E0
:109CF00041542B435343413F0D0A0000B6CCD0C51D
:109D0000D6D0D0C4BAC5C2EB3A5B25735D00000063
:109D1000189E002010B5032101A0FCF785FE10BDA0
:109D20005056445F49525148616E646C6572000040
:109D300001490862704700000000424210B5024627
:109D400000200C4B186820F00300104318600A4BE9
:109D50001B6843F00403084C2360012901D130BF84
:109D600000E020BF044B1B6823F00403024C236077
:109D700010BD00000070004010ED00E001490860D7
:109D800070470000A00442427047000010B5032253
:109D900009A10BA0FCF748FE03220DA110A0FCF7BF
:109DA00043FE0322124913A0FCF73EFE032216498C
:109DB00016A0FCF739FE10BD5450353030000000BD
:109DC000426F6172645F4E616D653A2573000000F9
:109DD00053544D33324C3135315242543600000029
:109DE0004350555F4D6F64656C3A25730000000069
:109DF00000127A004370755F4F53435F46524551DE
:109E00003A2025644D687A0000A24A044370755FC9
:109E1000467265713A2025644D687A0070470000EB
:109E20001FB50948006801900748001D00680290AE
:109E300005480830006803900320009003A001A9A2
:109E40000EC9FCF7F1FD1FBDE8F7FF1F4943204392
:109E50006F64653A255820255820255800000000D9
:109E60007047000010B5032108A0FCF7DDFDFFF7E7
:109E70008DFFFFF7D3FFFFF7D3FFFCF7F5FE00F0F0
:109E800013F8FFF7EDFF00F02FF810BD0A546F73C1
:109E90002053797374656D2053746172742E2E2E65
:109EA0002E2E2E2E2E2E2E0010B5FEF7A3F90446D0
:109EB00003232246142102A0FCF7B6FD10BD0000CA
:109EC0005461736B506F6F6C53697A653A256420E7
:109ED00062757420686173202564207461736B203F
:109EE0006372656174652E0038B500241DE004EBD3
:109EF00044001549096801EB0010C06A98B10320BD
:109F0000009004EB44001049096801EB0010038C39
:109F100004EB44000C49096801EB00102146C26AB9
:109F20000AA0FCF781FD601CC4B2142CDFDB601EAC
:109F3000C4B2FFF7BFFC054603232A4649F6404159
:109F400007A0FCF771FD38BD600000205461736B01
:109F50005B25645D4E616D653A2573282564290093
:109F60004D656D6F727953697A653A256420627523
:109F70007420757365723A25640000002DE9F04184
:109F800005460E4617460522294608A0FCF74CFD5B
:109F9000002407E0325D0523214605A0FCF744FDBF
:109FA000601C84B2BC42F5DBBDE8F0812573000083
:109FB0004275665B25645D3D3078257800000000C1
:109FC00010B500F077FB04462CB10522214604A011
:109FD000FCF72AFD03E0052106A0FCF725FD10BDD6
:109FE000B7A2CBCDC5E4D6C3D6A1CAA7B0DC5B254A
:109FF000645D0000B7A2CBCDC5E4D6C3D6A14F4B5C
:10A000000000000000B599B00948B0F8AA3000F18E
:10A01000890208A16846FDF7DEFB052269460CA00F
:10A02000FCF702FD6846FDF797FE19B000BD000081
:10A03000489D002041542B51494F50454E3D2254DC
:10A040004350222C222573222C25640D0A00000087
:10A05000C1ACBDD3B5BD3A257300000010B54FF4B7
:10A060007A7229A129A0FDF727FE08B9012010BDA9
:10A0700000F0DEF8284981F8C200052127A0FCF78E
:10A08000D3FC052128A0FCF7CFFC4FF47A7229A15C
:10A0900029A0FDF711FE02234FF47A7229A126A010
:10A0A000FDF716FE20B9052127A0FCF7BDFC03E053
:10A0B000052127A0FCF7B8FC02234FF47A7226A1F1
:10A0C00027A0FDF705FE40B1052128A0FCF7ACFC58
:10A0D0000220114981F8C3000FE002234FF47A7285
:10A0E00026A11FA0FDF7F4FD38B1052125A0FCF73E
:10A0F0009BFC0420084981F8C300052125A0FCF73A
:10A1000093FC0020B3E700002139390041542B4370
:10A1100053510D0A00000000489D0020BCECB2E93C
:10A12000D0C5BAC500000000D5FDD4DAD7A2B2E18F
:10A13000000000003000000041542B435245473FCF
:10A140000D0A000035000000B1BEB5D8BFA8000060
:10A15000CDE2B5D8BFA800004D4F42494C450000A4
:10A1600041542B434F50533F0D0A0000D6D0B9FA4B
:10A17000D2C6B6AF53494DBFA8000000554E494363
:10A180004F4D0000D6D0B9FAC1AACDA853494DBF52
:10A19000A8000000D7A2B2E1B3C9B9A60000000030
:10A1A00070B50546002410222146641C6A54FF2223
:10A1B0002146641C6A5400222146641C6A5404220D
:10A1C0002146641C6A54291916A0FBF74BFE204453
:10A1D00084B204222046611C8CB22A5402222046FA
:10A1E000611C8CB22A5400222146601C84B26A543D
:10A1F0003C222146601C84B26A5400222046611C25
:10A200008CB22A5410222046611C8CB22A5429197F
:10A210000648FBF727FE204484B2A01E6870E0B217
:10A2200070BD00004D51545400000000999D002065
:10A2300008B5694605A000F06FF89DF800100522EA
:10A2400005A0FCF7F1FB9DF8000008BD41542B432D
:10A2500053510D0A00000000D0C5BAC5C7BFB6C82B
:10A260003A2564002DE9F84F82460C4617464FF018
:10A2700000080020009081465146254804F005FC66
:10A2800024494FF4967248680021FBF7FCFD4FF417
:10A290007A73322200211E4804F076FB00F0FF0B97
:10A2A000BBF1000F30D00020207000252AE01948B3
:10A2B0004068465D302E01DB012000E00020392E91
:10A2C00001DC012100E00021084209D04F4504D102
:10A2D0004046411C01F0FF082654012000900FE089
:10A2E000009868B14F4505D100224046411C01F05D
:10A2F000FF0822540020009009F1010000F0FF093E
:10A30000681CC5B25D45D2DB4046BDE8F88F000051
:10A3100000440040B80000202DE9F04780460C467C
:10A320000025AA464146234804F0AFFB22494FF4DA
:10A33000967248680021FBF7A6FD4FF47A7332222B
:10A3400000211C4804F020FB00F0FF09B9F1000FC8
:10A350002CD000202070002626E017484068875D3A
:10A36000302F01DB012000E00020392F01DC01212A
:10A3700000E0002108420DD0605D00EB8000400647
:10A38000000E6055615DA7F13000084460554FF044
:10A39000010A07E0BAF1000F04D0681CC5B2002022
:10A3A00060558246701CC6B24E45D6DB2846BDE8D5
:10A3B000F087000000440040B800002010B54FF4C2
:10A3C00080713B48FDF7B7FB40F24C4003F046FC80
:10A3D000052138A0FCF728FB4FF480713448FDF7C5
:10A3E000A8FB40F24C4003F039FC4FF400513448D4
:10A3F000FDF7A1FB40F24C4003F030FC052131A0F9
:10A40000FCF712FB4FF400512D48FDF792FB4FF47F
:10A410007A7003F023FC4FF480712D48FDF780FB28
:10A42000012804D105212BA0FCF7FEFA01E0012050
:10A4300010BD43F2B06003F011FC4FF47A7228A112
:10A4400028A0FDF739FC08B90220F1E7052127A073
:10A45000FCF7EAFA4FF47A7003F000FC4FF4FA626A
:10A460001FA126A0FDF728FC08B90320E0E705217D
:10A4700024A0FCF7D9FA4FF47A7219A124A0FDF7B1
:10A480001BFC08B90420D3E7052124A0FCF7CCFA73
:10A49000FFF7E4FD04462CB10522214623A0FCF77A
:10A4A000C3FA03E0052125A0FCF7BEFA0020BFE7B0
:10A4B0000010014047505253C9CFB5E700000000DB
:10A4C000000C014047505253BFAABBFA00000000E5
:10A4D00000080140BFAABBFAB3C9B9A6000000003A
:10A4E0004F4B000041540D0A000000004154D6B803
:10A4F000C1EED6B4D0D0B3C9B9A60000415445309E
:10A500000D0A0000C9E8D6C3B2BBBBD8CFD4000047
:10A5100041542B4350494E3F0D0A0000B2E9BFB4ED
:10A52000CAC7B7F1D3D050494E000000C1ACBDD36B
:10A53000CDF8CAA7B0DC5B25645D0000C1ACBDD31B
:10A54000CDF8C2E7B3C9B9A60000000010B50446B3
:10A550004FF47A7003F082FB4FF47A7220A122A0AC
:10A56000FDF7AAFB08B9012010BD8CB94FF47A722F
:10A5700024A125A0FDF7A0FB08B90220F4E74FF4C1
:10A580007A7220A123A0FDF797FB08B90420EBE71E
:10A59000012C11D14FF47A721AA123A0FDF78CFB84
:10A5A00008B90320E0E74FF47A7216A119A0FDF76D
:10A5B00083FB08B90420D7E74FF47A7211A11DA0DC
:10A5C000FDF77AFB08B90520CEE74FF47A720DA1AA
:10A5D0001EA0FDF771FB08B90620C5E70020C3E700
:10A5E00043504D530000000041542B43504D533D08
:10A5F000224D54222C224D54222C224D54220D0A3D
:10A60000000000004F4B000041542B434D47463D96
:10A61000300D0A0041542B435343533D22554353BD
:10A6200032220D0A0000000041542B434D47463DA5
:10A63000310D0A0041542B43534D503D31372C31DD
:10A6400036372C302C380D0A0000000041542B43C3
:10A650004E4D493D322C312C302C302C300D0A001F
:10A6600070B504460D494FF4967248680021FBF717
:10A670000AFC21460A4804F008FA4FF47A734FF4B2
:10A6800096720021064804F07FF9C5B22DB1034847
:10A690000522416803A0FCF7C7F970BDB80000208F
:10A6A00000440040B6C1B6CCD0C5B7B5BBD83A253A
:10A6B0007300000010B5B2B00024384890F8B00024
:10A6C00010F0200F3FD0052135A0FCF7ADF940F682
:10A6D000B83003F0C3FA6846FFF762FD044605226E
:10A6E000214633A0FCF7A0F9224635A1384804F0F2
:10A6F000CCF94FF4FA6137A0FDF74AFA00B10EE049
:10A700004FF4FA6133A0FDF743FA00B107E04FF4CC
:10A71000FA6130A0FDF73CFA00B100E000BF22462C
:10A7200069462B4804F0A1F94FF47A712AA0FDF78D
:10A730002FFA10B9022032B010BD4FF4FA60FDF7C5
:10A740008DFB0020F7E7052125A0FCF76DF90DEB47
:10A750000401102211485130FBF784FB204484B2DD
:10A76000224617A11A4804F090F94FF47A7003F0CA
:10A7700075FA052269461EA0FCF756F9224669467D
:10A78000134804F072F94FF47A7113A0FDF700FA40
:10A7900008B90220CFE70020CDE70000489D002047
:10A7A000C5E4D6C3CEAA4D515454D0ADD2E9000071
:10A7B000B7A2CBCDC5E4D6C35B25645D0000000025
:10A7C00041542B514953454E443D25640D0A000028
:10A7D000004400403E00000053454E44204F4B00D3
:10A7E000C5E4D6C3CEAA544350D0ADD2E900000090
:10A7F000B7A2CBCDC5E4D6C33A2573002DE9F04FFF
:10A80000FFB04FF002090024944890F8B00010F017
:10A81000200F7CD032222046611C8CB202A90A543F
:10A8200004EB090084B200222046611C8CB202A90C
:10A830000A5410222046611C8CB202A90A5402A8B4
:10A84000011986485130FBF70DFB204484B20022E9
:10A850002146601C84B202A8425401222046611C99
:10A860008CB202A90A5408197DA1FDF741FC2044CD
:10A8700084B27A490868FAF746FF07460B4602A9F0
:10A8800008193A467BA1FDF733FC204484B2734992
:10A890004868FAF738FF07460B4602A908193A46F6
:10A8A00074A1FDF725FC204484B26C498868FAF74E
:10A8B0002AFF07460B4602A908193A466DA1FDF783
:10A8C00017FC204484B2654991F8C200FAF7BDFE36
:10A8D0008246FAF718FF07460B4602A908193A46BE
:10A8E00064A1FDF705FC204484B25C49D1F8C8009E
:10A8F000FAF709FF074688465849D1F8CC00FAF71D
:10A9000002FF82460B4602A90819524600E035E0D4
:10A910005CA1CDE90078FDF7EBFB204484B202A9ED
:10A9200008195EA1FDF7E4FB204484B2A4EB090101
:10A93000481E0DF10901FEF7D1FE224658A15C48E0
:10A9400004F0A3F84FF4FA615AA0FDF721F918B901
:10A9500001207FB0BDE8F08F224602A9544804F0E0
:10A9600084F84FF47A7154A0FDF712F908B9022067
:10A97000EFE74FF4FA60FDF771FA6DE037490868C8
:10A980000021FAF721FF01D82B2500E02D253349BE
:10A9900048680021FAF718FF01D82B2600E02D2681
:10A9A0002E490868FAF7AFFE2A46CDE9000144A116
:10A9B00002A8FDF79DFB0446284A11685068FAF783
:10A9C000F9FE0BD225494868FAF79DFE3246CDE9DB
:10A9D00000013BA102A8FDF78BFB04461F48008A3B
:10A9E00010F4807F0CD01D490868FAF78CFE2A46C7
:10A9F000CDE9000132A102A8FDF77AFB044610E080
:10AA00001648008A10F4007F0BD014494868FAF702
:10AA10007AFE3246CDE9000129A102A8FDF768FBC4
:10AA2000044622461EA1224804F02FF84FF47A7003
:10AA300003F014F9052202A927A0FBF7F5FF22462F
:10AA400002A91B4804F011F84FF47A711AA0FDF71F
:10AA50009FF808B902207CE700207AE7489D002093
:10AA60007B2273656E736F724461746173223A5B0B
:10AA7000000000007B2276616C7565223A252E323B
:10AA8000667D2C007B226C6174223A252E37662C61
:10AA9000226C6E67223A252E37667D005D7D0000B0
:10AAA00041542B514953454E443D25640D0A000045
:10AAB000004400403E00000053454E44204F4B00F0
:10AAC0002354503330302C256330252E31662C3002
:10AAD0002E30300D0A000000B7A2CBCDCAFDBEDD7E
