:020000040800F2
:1050000050A2002045510008558E0008F580000888
:10501000ED8A0008455E00084DD30008000000003E
:1050200000000000000000000000000021AB0008AC
:10503000796B0008000000006D8F00080BB30008BA
:10504000EDD30008518F000899B300085F510008A4
:10505000357300086DA20008F97100085F5100085F
:105060002972000849720008697200085F5100083F
:10507000D1620008F96200085F5100085F51000822
:105080005F510008216300085F5100085F5100086C
:105090005F510008495E0008695E000889720008D7
:1050A000E9B300084DB4000829B4000809B40008A9
:1050B0005F5100085F5100086DB40008F5810008D9
:1050C000D5810008358200081582000801A7000874
:1050D0001DA7000899CC0008EDCC00084DCD0008B4
:1050E0000572000889A2000841D30008C1B4000875
:1050F00025B5000801B50008E1B40008B95B000857
:10510000E97300085F51000889B4000839A7000856
:105110005F5100085F5100085F510008A5B4000806
:105120004963000871630008996300085F51000833
:10513000DFF80CD000F078FC0048004709DD0008DB
:1051400050A200200648804706480047FEE7FEE7D9
:10515000FEE7FEE7FEE7FEE7FEE7FEE7FEE7FEE727
:1051600015B300083151000830B505462A460B46F4
:1051700012F8010B13F8014B08B1A042F8D01CB192
:10518000002802D06D1CF1E7284630BDF0B480EA5B
:105190000102D40F4200B2EB410F02D20246084690
:1051A00011464A0042D0C30DDDB2C1F3C752AD1A59
:1051B000202D35DAC1F3160141F4000204B1524248
:1051C000C5F1200602FA06F12A411044B3EBD05F84
:1051D00023D0C4B1012DA0EBC35009DCF0BC4FF0CB
:1051E000004202EAC35200F50000DBB200F077BBD8
:1051F000400000F1807000EBC350A0F1807040EAE5
:10520000D170490009E0490841EAC071A0EBC350E0
:1052100000F50000400800EBC350F0BC00F056BBA6
:105220006142012202EB4101001BF6E7F0BC70472E
:1052300081F00041AAE780F00040A7E780EA010280
:1052400010B502F00043400026D04A0023D04FEAB8
:10525000106101EB1261C0F35600C2F3560240F434
:10526000000042F40002A0FB0220A1F17F014FEAFE
:105270000040140401D000F1010050EA124001D4B2
:105280004000491EC2B20C0604EBD010401C40087E
:10529000802A02D003E0002010BD20F00100002988
:1052A00000DA0020184310BD30B480EA010202F099
:1052B000004530F0004221F0004015D0A0B1C0F30D
:1052C000C753C2F3C754C2F31601C0F31600E41A61
:1052D00041F4000140F400027D34914201D3641C8A
:1052E00000E04900002C02DA30BC002070474FF487
:1052F00000000023914201D3891A034340084FEA7A
:105300004101F7D151B1914202D14FF0004105E086
:1053100002D24FF0010101E06FF0010103EBC45034
:10532000284430BC00F0D2BA2DE9FE4F804681EA15
:105330000300C00F0C46009021F0004123F000450F
:10534000B8EB0200A94105D24046214690461C46D2
:105350000B46024623F00040104304D1404621464C
:1053600003B0BDE8F08F270DC7F30A00C3F30A515D
:105370000290401A0190402866DAC3F3130040F40B
:10538000801B0098924620B10023D2EB030A63EB06
:105390000B0B01985946C0F14002504600F065FAE7
:1053A00006460D4650465946019A00F07DFA10EB2C
:1053B00008006141002487EA115284EAE7731A4326
:1053C0003BD0009A3AB3019A012A4FEA075210DC07
:1053D000001B61EB02014FF0004202EA0752CDE9E7
:1053E0000042001C41F5801132462B4600F0B1FA14
:1053F000B6E7001B61EB0201001C41F580130018A9
:105400005B412018A2F5001747EB030140EAD57075
:10541000B6196D4111E06D084FEA360645EAC075D0
:105420004FEA0752001B61EB0201001C41F580119D
:1054300049084FEA30000019514132462B4603B06B
:10544000BDE8F04F00F078BA009801224000002338
:10545000D0EB020263EBE073009821464FEAE07460
:10546000B8EB000061EB0401E9E783F000435BE780
:1054700081F0004158E72DE9FE4F81EA030404F072
:10548000004421F0004100944FF0000B23F0004352
:1054900050EA010402D052EA030404D1002001467C
:1054A00003B0BDE8F08FC3F30A54C1F30A552C448E
:1054B000A4F2F3340194A0FB0254C1F3130141F4AC
:1054C0008011C3F3130343F4801301FB024400FB78
:1054D000034E840A970A44EA815447EA8357A4FB9F
:1054E000076802958D0A05FB07854FEA932C04FB9C
:1054F0000C542705029D4FEA065847EA1637B5EBCC
:1055000008056EEB070C870E920E47EA811742EAF8
:105510008312A7FB0201B6EB0B0164EB00042B0D19
:1055200043EA0C335E1844EB1C50DA465146E7FB65
:105530000201C5F313044FEA0B3343EA14534FEA55
:105540000432019C43EA0603A4F10C040294009C7B
:10555000CDE900B400F0FDF9A2E72DE9F04D81EAB4
:10556000030404F0004B21F0004514464FF0000AFC
:1055700023F0004150EA050220D054EA01021DD078
:10558000C5F30A570246C5F31303C1F31300C1F371
:105590000A5640F4801543F48013A7EB0608101B4D
:1055A000D64608F2FD3873EB050002D308F1010876
:1055B00001E092185B41B8F1000F03DA00200146C8
:1055C000BDE8F08D00204FF48011064684460EE0C1
:1055D000171B73EB050705D3121B63EB050306438B
:1055E0004CEA010C49084FEA300092185B4150EA3E
:1055F0000107EDD152EA030012D082EA040083EAE7
:105600000501084303D100224FF0004308E0101BBE
:10561000AB4102D20122002302E06FF001025310DD
:105620001AEB06004CEB085110EB0A0041EB0B01A2
:10563000BDE8F04D00F080B9C10F80EAE070084489
:10564000CA079623002100F04AB99623002211468A
:1056500000F045B90EB540F2334102910021CDE989
:1056600000110A460B4600F074F903B000BD00F0CB
:10567000004220F00040C10DC0F3160040F40000CD
:105680007F2901DA00207047962903DCC1F19601D9
:10569000C84001E096398840002AF4D04042704763
:1056A00020F00040C10DC0F3160040F400007F2937
:1056B00001DA00207047962903DCC1F19601C84049
:1056C000704796398840704770B5C1F30A5201F0AF
:1056D00000450024C1F3130140F2FF3341F480116F
:1056E0009A4201DA002070BD40F233439A42A2F29E
:1056F000334203DC524200F0C7F800E090402C43F4
:10570000F1D0404270BD00F0004230F000400AD0BD
:10571000C10D01F56071C0F3160042EA0151C208E3
:1057200040071143704700200146704730B50029FB
:1057300004DB4FF00044404264EB0101002B04DB2A
:105740004FF00044524264EB03038B4208BF824295
:1057500030BD000030B5002904DB4FF0004440426A
:1057600064EB0101002B04DB4FF00044524264EB78
:105770000303994208BF904230BD000001F000438E
:1057800030B421F0004150EA010206D00A0DA2F522
:105790006072C1F31301002A02DC30BC00207047A4
:1057A000440F44EAC104C100E01830BC00EBC25011
:1057B00000F08CB8002801DBC0F10040002901DBBB
:1057C000C1F1004181427047002801DBC0F1004077
:1057D000002901DBC1F100418842704730B50B461A
:1057E000014600202022012409E021FA02F59D4211
:1057F00005D303FA02F5491B04FA02F52844151EE5
:10580000A2F10102F1DC30BD2DE9F05F0546002078
:1058100092469B4688460646814640241BE0284621
:1058200041464746224600F02FF853465A46C01AD2
:10583000914110D311461846224600F016F82D1A51
:1058400067EB01084F4622460120002100F00DF8C9
:1058500017EB00094E41201EA4F10104DFDC48468D
:1058600031462A464346BDE8F09F202A04DB203A11
:1058700000FA02F1002070479140C2F1200320FAA3
:1058800003F3194390407047202A04DB203A21FAA1
:1058900002F00021704721FA02F3D040C2F1200249
:1058A0009140084319467047202A06DBCB17203A5F
:1058B00041FA02F043EAE07306E041FA02F3D04015
:1058C000C2F1200291400843194670470029A8BF41
:1058D0007047401C490008BF20F00100704710B419
:1058E000B0FA80FC00FA0CF050EA010404BF10BCCE
:1058F000704749B1CCF1200421FA04F411FA0CF1FB
:1059000018BF012121430843A3EB0C01CB1D010665
:10591000000A002BBEBF002010BC704700EBC35034
:1059200010440029A4BF10BC7047401C490008BFA8
:1059300020F0010010BC704710B5002B08DA401CA5
:1059400041F1000192185B411A4301D120F001009E
:1059500010BD2DE9F04D92469B4611B1B1FA81F28E
:1059600002E0B0FA80F220329046FFF77EFF044654
:105970000F4640EA0A0041EA0B0153465A460843E3
:1059800003D120463946BDE8F08D114653EA0100A7
:1059900015D0C8F140025046FFF776FF05460E4687
:1059A000504659464246FFF760FF084301D00120A8
:1059B00000E00020054346EAE0762C4337430A988E
:1059C0004FEA4453A0EB08004FEAD4240A304FF0CA
:1059D000000244EA47544FEAD72502D50020014689
:1059E000D1E7010510196941DDE908450019694150
:1059F000BDE8F04DA0E7C1F30A52C1F3130140F234
:105A0000FF3341F480119A4202DA002001467047C8
:105A100040F233439A42A2F2334202DC5242FFF791
:105A200033BFFFF722BF0000064C074D06E0E068D9
:105A300040F0010394E8070098471034AC42F6D3D5
:105A4000FFF77AFBE44D0108044E010882B02DE90E
:105A5000FF1FEFF3038001B4684600F1400000E946
:105A600001400C480168C1F800D00B48D0F800D0C4
:105A700001BC80F30388BDE8FF1F01B000BD0648EC
:105A8000D0F800D001BC80F30388BDE8FF1F01B04F
:105A900000BD0000880000208400002008B501211E
:105AA000084604F049FB01214FF4047004F064FB44
:105AB0001020ADF8000000208DF803006946024870
:105AC00001F002FE08BD00000010014010B50446C0
:105AD000FFF7E4FF204600F001F810BD10B590B0CC
:105AE0000446334800F078FC3248059006940020C4
:105AF000079001200890002009900A904FF48070D0
:105B00000B9080000C9020200D9000020E90002041
:105B10000F9005A9264800F005FD0121244800F05A
:105B20004FFC002000908DF8040001208DF8050046
:105B30004FF4602002900020039001208DF81000A7
:105B400069461C484C3800F06FF84FF4404004F0B0
:105B5000E7FA052301220E2116484C3800F08CF894
:105B6000012114484C3800F040F8012111484C380C
:105B700000F030F80F484C3800F0DAF800BF0D485C
:105B80004C3800F047F80028F9D10A484C3800F0AA
:105B9000DFF800BF07484C3800F032F80028F9D190
:105BA000012104484C3800F0C8F810B010BD0000C6
:105BB000080002404C24014010B5032101A000F070
:105BC00007FF10BD414443335F49525148616E6441
:105BD0006C65720021B1826842F00102826003E0CC
:105BE000826822F001028260704721B1826842F42B
:105BF0008072826003E0826822F480728260704763
:105C0000014600208A6812F0040F01D0012000E054
:105C100000207047014600208A6812F0080F01D06A
:105C2000012000E00020704730B50246002000232C
:105C300050680F4C20400D790C6844EA052420433D
:105C4000506090680B4C2040D1E902542C434D79B0
:105C500044EA450420439060D06A20F470000C7C34
:105C6000641EE4B2234340EA0350D06230BD00001A
:105C7000FFFEF0FFFDF7F1FFF0B504460D460020F2
:105C80000021092D11DDE068A5F10A0606EB4607A3
:105C9000072606FA07F18843A5F10A0606EB460631
:105CA00003FA06F10843E0600CE0206905EB4507C4
:105CB000072606FA07F1884305EB450603FA06F1C5
:105CC00008432061072A0FDA606B561E06EB860731
:105CD0001F2606FA07F18843561E06EB860605FACC
:105CE00006F10843606322E00D2A0FDA206BD61F0D
:105CF00006EB86071F2606FA07F18843D61F06EB38
:105D0000860605FA06F10843206310E0E06AA2F176
:105D10000D0606EB86071F2606FA07F18843A2F157
:105D20000D0606EB860605FA06F10843E062F0BDB3
:105D3000816841F008018160704721B1826842F4B6
:105D4000A002826003E0826822F4A00282607047B1
:105D5000816841F0040181607047000010B50021A6
:105D6000074802F093FD044644B9052105A000F060
:105D70002FFE0121024802F089FD0446204610BD95
:105D80000C010020C5E4D6C3B2CECAFDC6ACC7F82C
:105D9000D2BBB4EDCEF3000006E04FF47A7100BF41
:105DA0000A00A1F10101FBD10200A0F10100F4D130
:105DB00070470146081100EB4000A1EB4000C0B263
:105DC0007047000030B50246002441F66F2316E00C
:105DD000E01800EBD07569100B4830F821009042B4
:105DE00004D1094800EB8100408830BD064830F8F6
:105DF0002100904201DA4C1C00E04B1E00BF9C4287
:105E0000E6DD0020F1E70000F8E00008F0B5034609
:105E100000201C460D46104603E014F8016B05F8FF
:105E2000016B1600A2F10107BAB2F6D1F0BD30B590
:105E3000034601E003F8011B1400A2F10105AAB218
:105E4000F8D130BD00BFFEE710B5032101A000F07E
:105E5000BFFD10BD43414E315F5258315F49525131
:105E600048616E646C65720010B5032101A000F0FA
:105E7000AFFD10BD43414E315F5343455F49525121
:105E800048616E646C6572002DE9F04105460E466E
:105E9000424802F087FEA84202DC0020BDE8F08103
:105EA00005EB45003D4901EB8004142231463C4896
:105EB00007F01BFA207A092833D008DC02280FD01B
:105EC000042837D0052823D0062863D116E00B28F4
:105ED0000BD018284BD01A2856D01D285AD12FE0A5
:105EE000606808B16068804754E0304601F0B4FF54
:105EF0000746FFF7D5FB616808704BE0304601F0BC
:105F0000ABFF0746FFF7B3FB40B26168087041E0A2
:105F1000304601F0A1FF0746FFF7C2FB6168088029
:105F200038E0304601F098FF0746FFF7B9FB61689B
:105F300008602FE0304601F08FFF6168086029E0BB
:105F400018A1304605F0C9F940B160680068627A6E
:105F50000121914008436168086007E060680068BB
:105F6000627A0121914088436168086012E00DA1C6
:105F7000304605F0B2F918B101206168087002E0FE
:105F800000206168087005E0627A30466168FFF7BA
:105F90003DFF00BF00BF012080E70000A8DF000830
:105FA000004400405400000070B504460D460A4805
:105FB00002F0F8FDA04201DC002070BD04EB4400BB
:105FC000054A02EB8001284602F0C8FC284601F091
:105FD000A5FFC6B23046F0E7A8DF00080246002160
:105FE00010E0505C392801DD012000E00020535C06
:105FF000302B01DA012300E00023184301D00020F8
:106000007047491C0B29ECDB0120F9E702E0002274
:1060100000F8012B0A00A1F1010399B2F7D17047F2
:1060200010B5002400F094F804E0601CC4B2012014
:1060300000F038F8114801881148006801F010FCA0
:1060400008B1642CF1DB642C01DB012010BD0024BD
:1060500004E0601CC4B2012000F024F80748018865
:106060000748006801F0FCFB08B9642CF1DB642CE4
:1060700001DB0120EAE70020E8E7000048000020FB
:106080004C000020002107E042F6E06100BF0A005A
:10609000A1F1010399B2FAD10200A0F1010398B273
:1060A000F2D17047002106E0072100BF0A00A1F1EC
:1060B000010399B2FAD10200A0F1010398B2F3D121
:1060C000704700002DE9F04105460F462C78C4EBDF
:1060D000042084B26878204484B214F4004F10D0B5
:1060E00024F400442046FFF7B0FA0646154930462E
:1060F000FFF7DAF8064631460020FFF799F8064622
:1061000008E02046FFF7A1FA06460E493046FFF7A1
:10611000CBF806460C493046FFF756FB02D24FF04B
:10612000010801E04FF0000808493046FFF742FB44
:1061300001D2012000E0002018EA000F00D03E60EC
:10614000BDE8F08100002041000048C20000C842C4
:1061500008B508480088ADF8000003208DF802005B
:1061600048208DF8030069460348006801F0ACFA46
:1061700008BD0000480000204C00002008B5084879
:106180000088ADF8000003208DF8020010208DF883
:10619000030069460348006801F096FA08BD000054
:1061A000480000204C0000202DE9FC4105460E4629
:1061B00000F074F8FFF734FF10B10120BDE8FC8156
:1061C000002405E000F05AF80DF80400601CC4B289
:1061D000052CF7DB9DF800009DF8011008449DF8A0
:1061E000021008449DF803100844C7B29DF804004B
:1061F000B84201D00120E1E71DB131466846FFF702
:1062000061FF26B129460DF10200FFF75BFF002078
:10621000D4E7000010B5002404E0601CC4B20120E3
:10622000FFF740FF134801881348006801F018FB8E
:1062300008B1642CF1DB002404E0601CC4B201202E
:10624000FFF730FF0B4801880B48006801F008FB9E
:1062500008B9642CF1DB2320FFF724FF05480188EF
:106260000548006801F0FCFA08B1012010BD0020CB
:10627000FCE70000480000204C00002070B500241E
:10628000002506E06006040EFFF7C4FF0443681C07
:10629000C5B2082DF6DB204670BD000010B5FFF733
:1062A0006DFF094801880948006801F0E2FA0A20F8
:1062B000FFF7E8FE044801880448006801F0DBFAB3
:1062C0005020FFF7EFFE10BD480000204C000020DA
:1062D00010B5032101A000F07BFB10BD444D4131FE
:1062E0005F4368616E6E656C325F49525148616E02
:1062F000646C65720000000010B5032101A000F07D
:1063000067FB10BD444D41315F4368616E6E656C43
:10631000335F49525148616E646C65720000000041
:1063200010B5032101A000F053FB10BD444D4131D5
:106330005F4368616E6E656C375F49525148616EAC
:10634000646C65720000000010B5032101A000F02C
:106350003FFB10BD444D41325F4368616E6E656C1A
:10636000315F49525148616E646C657200000000F3
:1063700010B5032101A000F02BFB10BD444D4132AC
:106380005F4368616E6E656C325F49525148616E61
:10639000646C65720000000010B5032101A000F0DC
:1063A00017FB10BD444D41325F4368616E6E656CF2
:1063B000335F49525148616E646C657200000000A1
:1063C00021B1026842F00102026004E002684FF667
:1063D000FE731A400260704701684FF6FE7211406A
:1063E00001600021016041608160C1604B498842C9
:1063F00008D14A490839496841F00F01474A083A2B
:1064000051608AE045491431884208D1434908392E
:10641000496841F0F001414A083A51607DE03F4946
:106420002831884208D13D490839496841F47061F2
:106430003A4A083A516070E038493C31884208D104
:1064400036490839496841F47041344A083A516084
:1064500063E032495031884208D1304908394968EF
:1064600041F470212D4A083A516056E02B496431BD
:10647000884208D129490839496841F47001274AFE
:10648000083A516049E025497831884208D12349CA
:106490000839496841F07061204A083A51603CE08F
:1064A0001F49884206D1011F096841F00F01021FF0
:1064B000116032E01A491431884208D11849091F85
:1064C000096841F0F001164A121F116025E01449D5
:1064D0002831884208D11249091F096841F47061C6
:1064E0000F4A121F116018E00D493C31884208D153
:1064F0000B49091F096841F47041094A121F1160D4
:106500000BE007495031884207D10549091F096846
:1065100041F47021024A121F1160704708000240C6
:106520000804024010B50022026847F6F0739A434F
:106530000C6A8B6823430C6923434C6923438C69A1
:106540002343CC6923434C6A23438C6A23431A4375
:106550000260CB6843600B6883604B68C36010BD0A
:1065600008B50121082003F007FE0D480088ADF8AA
:10657000000010208DF8030003208DF8020069460A
:106580000848006801F0A0F805480188054800683F
:1065900001F071F900F0A8F900F006F808BD00005C
:1065A000500000205400002010B5002400F0B4F882
:1065B00004E0601CC4B2012000F028F811480188F2
:1065C0001148006801F04CF908B1C82CF1DBC82C67
:1065D00001DB012010BD002404E0601CC4B20120D6
:1065E00000F014F8074801880748006801F038F9FE
:1065F00008B9F02CF1DBF02C01DB0120EAE70020E8
:10660000E8E700005000002054000020002106E0D0
:10661000072100BF0A00A1F1010399B2FAD10200DB
:10662000A0F1010398B2F3D1704700002DE9FE4FAD
:10663000824600F07FF900F057F9FFF7B5FF0446F6
:1066400014B10120BDE8FE8FCC2000F07FF9BE2000
:1066500000F07CF9002405E000F0B4F80DF8040027
:10666000601CC4B2092CF7DB0821684605F074FDF4
:1066700004469DF80800A04201D00020E2E79DF802
:10668000010007281EDD9DF80100C043C0B28DF84F
:1066900001009DF80000C043C0B28DF800009DF8D5
:1066A00001904FF6FF7000EA09299DF8000040EACA
:1066B00009094846FEF7C9FF05460021FEF7BBFD64
:1066C00083460DE09DF801904FF6FF7000EA09291E
:1066D0009DF8000040EA09094846FEF7B6FF8346E8
:1066E0005846FFF710F807460022094BFEF7C3FE95
:1066F0000546FFF743F88346BAF1000F05D0054978
:106700005846FEF7D1FDCAF8000000209AE70000C5
:106710000000E43F0000204108B508480088ADF8BB
:10672000000003208DF8020048208DF80300694620
:106730000348006800F0C8FF08BD000050000020BA
:106740005400002008B508480088ADF80000032078
:106750008DF8020010208DF8030069460348006898
:1067600000F0B2FF08BD00005000002054000020DF
:1067700010B5FFF7E7FF114801881148006801F0E4
:1067800078F80220FFF742FF0C4801880C480068A7
:1067900001F071F8FFF7C0FF0C20FFF737FF074843
:1067A00001880748006801F05BF808B1012400E0A7
:1067B00000243220FFF72AFF204610BD50000020A1
:1067C0005400002070B50026012508E0FFF7D0FF37
:1067D0000446E00140EA6600C6B2681CC5B2082D56
:1067E000F4DD304670BD000070B506460C4600254D
:1067F0003A4890F8B00010F0400F23D04FF40071E9
:10680000374800F0DBF821463046FFF7CDFC78B181
:1068100034480078401C33490870084600780A283C
:106820005ADD2E48006920F440702C49086153E07D
:1068300000202C4908702948006940F4407027491D
:10684000086149E04FF40071254800F069F83046CE
:10685000FFF7ECFE05468DB122480078401C214927
:106860000870084600780A2811DDFFF779FE1B48FA
:10687000006920F480701949086108E00020194976
:1068800008701648006940F48070144908614FF49C
:106890008071134800F044F82046FFF7C7FE054614
:1068A0008DB110484078401C0E4948700846407829
:1068B0000A2811DDFFF754FE0848006920F4007033
:1068C0000649086108E0002006494870034800694D
:1068D00040F400700149086170BD0000F80000201C
:1068E000000C01406800002010B5FFF72BFF0A489C
:1068F00001880A48006800F0BCFF40F2EE20FFF774
:1069000085FE054801880548006800F0B4FF0F20A7
:10691000FFF77CFE10BD0000500000205400002056
:10692000024A1060024A11807047000054000020A3
:106930005000002010B5FFF7D7FFFFF735FECC2041
:1069400000F004F8442000F001F810BD70B50446D2
:10695000FFF7F8FE01252AE004F00106641096B165
:10696000144801881448006800F083FF0220FFF7F4
:106970004DFE104801881048006800F07CFF3C2064
:10698000FFF744FE11E00B4801880B48006800F057
:1069900070FF3C20FFF73AFE064801880648006871
:1069A00000F069FF0220FFF731FE681CC5B2082D18
:1069B000D2DD70BD5000002054000020024A10605B
:1069C000024A1180704700004C000020480000205F
:1069D0000FB42DE9F04186B000240125002650486F
:1069E0000078FF2801D1012000E000204C490978FF
:1069F0004C4A1278914201D1012100E00021084364
:106A00007ED04FF4806002F0A7F807460DA80590ED
:106A10003846059A0C9906F0F7FC002005900DA861
:106A2000059069460C9801F010F905462AE02046C9
:106A3000611CCCB21DF80000012804D0022806D049
:106A400003281AD115E0059840C8059019E005986B
:106A5000C01D20F007000590D0E90021DDF814C02A
:106A60000CF1080C1046CDF814C0FEF72DFE0646BA
:106A700007E0059840C8059003E0059840C80590D8
:106A800000BF00BF2800A5F10105D0D1059840C87E
:106A900005900020059024480078FF2801D10120AE
:106AA00000E0002020490978B14201DB012100E02B
:106AB000002108432BD039461CA004F0EDFB1C48F4
:106AC000007810F0020F0DD01A49087800F082FB10
:106AD00040B1384601F022FA80464246394616480F
:106AE00006F003FC1248007810F0040F0FD0114993
:106AF000487800F06FFB50B1384601F00FFA00E023
:106B000008E08046424639460C4806F0EEFB38461F
:106B100001F0FCFF06B0BDE8F0015DF814FB0000D9
:106B20003C000020940000203E0000200D0A0000E0
:106B30003D000020280000200038014000440040B3
:106B4000FF200149087070473C000020024800788F
:106B50000249087070470000940000203C000020AB
:106B600001490870704700003D000020014908708D
:106B7000704700003E000020704701460A2091FB4C
:106B8000F0F000EB400001EB4000C0B270470000A5
:106B900010B500201A4908704FF4A07001F0DCFF16
:106BA00018490860002406E0FF20174908551749D6
:106BB0000855601CC4B2052CF6DB00241DE0002043
:106BC0001049096801EB4411486103200D49096827
:106BD00001EB4411087200200A49096801EB4411D5
:106BE00008610849096801EB4411C8600549096852
:106BF00001EB44118861601CC4B20A2CDFDB10BDBC
:106C0000B0000020B4000020280000202D0000204B
:106C100038B5002454E02C48006800EB44100068AC
:106C200000284BD02848006800EB4410C0790128A8
:106C300006D0022820D0032813D0042832D126E021
:106C4000032000902048006800EB4410C3691E48F0
:106C5000006800EB4410214602681CA0FFF7B8FE54
:106C60002BE01948006800EB44100323214602681A
:106C70001CA0FFF7ADFE20E01348006800EB4410B5
:106C800003232146026817A0FFF7A2FE15E00E4875
:106C9000006800EB441003232146026811A0FFF7AF
:106CA00097FE0AE00848006800EB441003232146E1
:106CB00002680CA0FFF78CFE00BF00BF601CC4B2CE
:106CC0000A2CA8DB38BD0000B400002044657669BA
:106CD00063655B25645D4E616D653A25735B256474
:106CE0005D0000004465766963655B25645D4E6107
:106CF0006D653A25730000002D4908602D4909781B
:106D00002D4A11702B490978491C2A4A11702A49C9
:106D100009782A4A1268284B1B7802EB431211713A
:106D200027A1264A1268244B1B7802EB43121160FC
:106D30000021224A1268204B1B7802EB431251714A
:106D400002211E4A12681C4B1B7802EB4312D171C0
:106D500001211A4A1268184B1B7802EB4312117278
:106D6000184A16490968144B1B7801EB43114A6114
:106D700012490968104A127801EB4211C8610022D9
:106D80000E4909680C4B1B7801EB4311CA600021C6
:106D90000A4A1268084B1B7802EB43121161074A3A
:106DA0001268054B1B7802EB43129161704700009B
:106DB00074000020B000002040000020B40000203B
:106DC000494F0000DD7700082C4909782C4A1170E2
:106DD0002A490978491C294A117029490978294A00
:106DE0001268274B1B7802EB4312117126A1254A2A
:106DF0001268234B1B7802EB431211600021214AD9
:106E000012681F4B1B7802EB4312517104221D497B
:106E100009681B4B1B7801EB4311CA710122194908
:106E20000968174B1B7801EB43110A721849154A80
:106E30001268134B1B7802EB431251611149096828
:106E40000F4A127801EB4211C86100220D4909680E
:106E50000B4B1B7801EB4311CA600021094A1268F1
:106E6000074B1B7802EB43121161002205490968A8
:106E7000034B1B7801EB43118A617047B00000207F
:106E800066000020B400002049534C3132303800F5
:106E90002586000870B50546284606F0C9F8044660
:106EA0005F48005DFF2808D15E4800785C490855BE
:106EB0005C480078401C5B4908705BA05849095D3C
:106EC0005B4A126802EB4111086000205449095DD9
:106ED000574A126802EB4111487101205049095D7F
:106EE000534A126802EB4111C87103204C49095DF5
:106EF0004F4A126802EB411108724E484849095D39
:106F00004B4A126802EB411148614548005D48490F
:106F1000096801EB4010C46147494148005D444A9B
:106F2000126802EB4010C16044483D49095D404A87
:106F3000126802EB4111086100213948005D3C4AAA
:106F4000126802EB4010816100203D4921F81400D5
:106F50004FF4967001F000FE3A4941F824002846AB
:106F600006F066F804463848005DFF2808D12D4831
:106F70000078354908552B480078401C294908708D
:106F800032A03149095D2A4A126802EB41110860BA
:106F900000202D49095D264A126802EB4111487113
:106FA00001212948005D224A126802EB4010C1719C
:106FB00003202549095D1E4A126802EB411108723F
:106FC0001C492148005D1A4A126802EB40104161D9
:106FD0001D48005D1649096801EB4010C461164860
:106FE0001949095D124A126802EB4111C860134841
:106FF0001549095D0E4A126802EB41110861002033
:107000001149095D0A4A126802EB411188614FF487
:10701000967001F0A1FD0F4941F8240070BD0000F9
:107020002D000020B000002055534152527800003E
:10703000B4000020F5CD0008B9D20008D9D100086D
:10704000E4000020BC0000202800002055534152DD
:1070500054780000D00000202848007828490870A3
:1070600026480078401C2549087026A02749096851
:10707000234A127801EB4211086000202349096875
:107080001F4A127801EB4211487103201F49096819
:107090001B4A127801EB4211C87101211B4800689C
:1070A000174A127800EB4210017219481749096813
:1070B000134A127801EB421148610021134800681D
:1070C0000F4A127800EB4210C16112490F48006864
:1070D0000B4A127800EB4210C1600F490B48006860
:1070E000074A127800EB4210016100200749096845
:1070F000034A127801EB421188617047B00000200A
:10710000640000205132355131360000B4000020B7
:10711000E1A80008D9D30008C5D3000810B50321A1
:1071200024A0FFF755FC002441E02948006800EB4B
:1071300044104069C8B32648006800EB4410C07989
:10714000012806D0022817D003280ED004282BD1FE
:107150001EE01F4A126802EB4412107F1C4A12689C
:1071600002EB4412516988471EE01949096801EB96
:1071700044114869804717E0154A126802EB44122F
:10718000D069134A126802EB4412516988470BE038
:107190000F4A126802EB4412D0690D4A126802EBE2
:1071A00044125169884700BF00BF601CC4B20A2C5A
:1071B000BBDB10BD546F732044657669636520495D
:1071C0006E69742E2E2E2E2E2E2E2E2E2E000000A8
:1071D000B40000200146FF2901D100207047054876
:1071E000006800EB4110406908B90020F6E7012073
:1071F000F4E70000B4000020012000F055F801F091
:1072000087FB000010B5032101A0FFF7E1FB10BDD3
:107210004558544931355F31305F49525148616EAC
:10722000646C65720000000010B5032101A0FFF737
:10723000CFFB10BD45585449325F49525148616EE9
:10724000646C65720000000010B5032101A0FFF717
:10725000BFFB10BD45585449335F49525148616ED8
:10726000646C65720000000010B5032101A0FFF7F7
:10727000AFFB10BD45585449345F49525148616EC7
:10728000646C65720000000010B5032101A0FFF7D7
:107290009FFB10BD45585449395F355F49525148ED
:1072A000616E646C657200000149086070470000FF
:1072B0001404014030B5044604254FF4302000F09A
:1072C0007FF80546042D17D10C48006940F00200F4
:1072D0000A49086108464461006940F040000861BD
:1072E0004FF4302000F06CF805460448006941F680
:1072F000FD71084001490861284630BD0020024068
:1073000004200B49C96811F0010F01D001200EE0E3
:107310000749C96811F0040F01D0022007E00449B1
:10732000C96811F0100F01D0032000E0042070475D
:107330000020024010B5032101A0FFF749FB10BD5A
:10734000464C4153485F49525148616E646C6572C6
:10735000000000000348006940F080000149086116
:10736000704700000020024070B504460D46042618
:10737000F00200F025F80646042E11D109480069F4
:1073800040F00100074908612580F00200F018F87C
:1073900006460448006941F6FE710840014908614B
:1073A000304670BD0020024002480349486003484F
:1073B000486070472301674500200240AB89EFCD4C
:1073C00000B502460423FFF79BFF034603E0FFF7E7
:1073D00097FF0346521E012B01D1002AF7D102B9B3
:1073E0000523184600BD000010B5032101A0FFF7DA
:1073F000EFFA10BD46534D435F49525148616E64E8
:107400006C6572002DE9F84F82460D4617464FF025
:107410000008002000908146504600F07FFD00F0FB
:10742000FF0BBBF1000F3BD000202870002635E099
:107430001AF80640302C01DB012000E00020392C36
:1074400001DC012100E0002108420BD1462C01DCC7
:10745000012000E00020412C01DB012100E000219F
:10746000084209D04F4504D14046411C01F0FF08B5
:107470002C54012000900FE0009868B14F4505D1D1
:1074800000224046411C01F0FF082A5400200090D1
:1074900009F1010000F0FF09701CC6B25E45C7DBB0
:1074A0004046BDE8F88F2DE9F84F82460C46174656
:1074B0004FF00008002000908146504600F02EFD5D
:1074C00000F0FF0BBBF1000F2FD000202070002533
:1074D00029E01AF80560302E01DB012000E00020D1
:1074E000392E01DC012100E00021084209D04F457E
:1074F00004D14046411C01F0FF08265401200090B1
:107500000FE0009868B14F4505D100224046411C6C
:1075100001F0FF0822540020009009F1010000F062
:10752000FF09681CC5B25D45D3DB4046BDE8F88F56
:1075300070B50B46044603E014F8015B03F8015BE9
:107540001500A2F10106B2B2F6D170BD2DE9F047E7
:107550000646884614460027C146FFF725FF204609
:10756000E11704EBD151C1F34F27E11704EBD151DF
:107570004912B4EB412101D0781C87B2002507E005
:107580004FF4007101FB0760FFF794FE681C85B2A1
:10759000BD42F5DB002508E039F8021B2A466B1CCA
:1075A0009DB206EB4200FFF7DFFE2000A4F10101CF
:1075B0008CB2F1D1FFF7CEFEBDE8F08701460A4656
:1075C0001068704713B50246042301A903E011F8BF
:1075D000010B02F8010B1800A3F10104E3B2F6D18C
:1075E00004201CBD70B504460025107820B1167823
:1075F0002068B0FBF6F085B220680844206010785F
:10760000984203DA1078401C107002E02068401B9A
:10761000206016782068B0FBF6F080B270BD0FB421
:1076200038B5044606A800902046009A059905F052
:10763000EBFE0020009038BC5DF814FB30B503462B
:107640000C46002514E01878802806DA13F8010BA0
:1076500024F8020B681C85B20AE059781A7841EACE
:10766000022000F01BF820809B1CA81C85B2A41CE3
:1076700018780028E7D1284630BD30B5ADF5017D3A
:1076800004460D4601A92046FFF7D8FF294601A868
:1076900000F066FC0DF5017D30BD0000024641F6AC
:1076A0006F210AE0074800EB81004088904203D137
:1076B000044830F821007047491E0029F2D100200B
:1076C000F9E70000F8E000082DE9F0410246002546
:1076D0000026002000230024002791F803C00CF0AE
:1076E0000F0591F803C01CF0100F03D091F802C0F1
:1076F0004CEA050591F800C0BCF1000F31D01468C8
:1077000000202BE04FF0010C0CFA00F3B1F800C0A0
:107710000CEA03069E4220D183004FF00F0C0CFAB6
:1077200003F7BC4305FA03FC4CEA040491F803C0D8
:10773000BCF1280F06D14FF0010C0CFA00FCC2F886
:1077400014C00AE091F803C0BCF1480F05D14FF016
:10775000010C0CFA00FCC2F810C0401C0828D1D360
:107760001460B1F800C0BCF1FF0F34DD5468002094
:107770002EE000F1080C4FF0010808FA0CF3B1F804
:1077800000C00CEA03069E4221D183004FF00F0C8B
:107790000CFA03F7BC4305FA03FC4CEA040491F825
:1077A00003C0BCF1280F05D100F1080C08FA0CF851
:1077B000C2F8148091F803C0BCF1480F07D100F162
:1077C000080C4FF0010808FA0CF8C2F81080401CB1
:1077D0000828CED35460BDE8F081000038B50446D7
:1077E00036E01D4A6068811A904217D009DC1B49B7
:1077F00040180DD0B0F5806F0CD0B0F5006F13D1EC
:107800000AE0B1F5806F0BD0B1F5006F0CD109E043
:10781000042509E0082507E0102505E0202503E000
:10782000402501E0802500BF00BF45F00100012197
:1078300002F0A2FC20788DF802002089ADF800004B
:1078400060788DF8030069466068FFF73DFF0C34EF
:1078500020780028C5D138BD0014014000F8FEBFD3
:107860000246002093680B4201D0012000E0002076
:107870007047416170470161704700002DE9F04198
:1078800004460D46012717E00F494FF496724868E9
:107890000021FEF7CCFA2B46322200210B4805F0DE
:1078A000B3FCC6B246B108494868214603F015FD4D
:1078B00010B10120BDE8F0813800A7F10101CFB27D
:1078C000E2D100BFF6E70000BC0000200044004009
:1078D0002DE9F04104460D4601271FE013494FF4FE
:1078E000967248680021FEF7A2FA2B463222002148
:1078F0000F4805F089FCC6B266B10C4948682146BC
:10790000FDF732FC10B10120BDE8F0814FF47A7030
:1079100004F02AFE4FF47A7004F026FE3800A7F136
:107920000101CFB2DAD100BFEEE70000BC000020B9
:10793000004400402DE9F04104460F4615464FF043
:1079400001081FE014494FF4967248680021FEF7C1
:107950006EFA2B4632220021104805F055FCC6B2C3
:1079600086B10D494868214603F0B7FC10B10120EB
:10797000BDE8F08108494868394603F0AEFC08B11B
:107980000120F5E75FEA0800A8F1010101F0FF0816
:10799000D8D100BFECE70000BC000020004400404C
:1079A0000246114623E008782E281FD111F8010C59
:1079B000302801DB012000E0002011F8013C392BC8
:1079C00001DC012300E0002318420FD04878302862
:1079D00001DB012000E000204B78392B01DC012382
:1079E00000E00023184201D001207047491C0878AC
:1079F0000028D8D100BFF8E770B504460D461646FA
:107A00000A2332462946204600F002F870BD0000E5
:107A10002DE9F04105460C4616461F4631E0294641
:107A20001B4805F072FC1B494FF496724868002110
:107A3000FEF7FDF9334632220021154805F0E4FB3C
:107A400000F0FF08B8F1000F17D02078212808D1E6
:107A500010494868611CFDF787FB50B90120BDE85B
:107A6000F0810C4948682146FDF77EFB08B10120F2
:107A7000F5E74FF47A7004F077FD4FF47A7004F074
:107A800073FD3800A7F10101CFB2C8D100BFE6E70E
:107A900000440040BC00002070B50446002500BF33
:107AA0002846691CCDB2052801DD032070BD0521E3
:107AB0001EA0FEF78DFF2048006920F010001E492F
:107AC00008612046FFF76CFF40B14FF47A721BA1AA
:107AD0001BA0FFF791FF50B90120E7E74FF47A723E
:107AE00016A11BA0FFF788FF08B90120DEE74FF4BD
:107AF0007A7004F039FD2146194805F006FC04228D
:107B000018A11CA000F08AF800B9C9E74FF4FA6088
:107B100004F02AFD05211AA0FEF75AFF0648006965
:107B200040F01000044908610020BFE7C1ACBDD39C
:107B3000B5BD746370000000F80000204F4B0000DA
:107B400041542B5149444E5349503D300D0A0000D9
:107B500041542B5149444E5349503D310D0A0000C8
:107B600000440040414C524541445920434F4E4E41
:107B700045435400434F4E4E454354204F4B000065
:107B8000C6F4B6AF536F636B6574B7FECEF1A3ACAA
:107B9000C1ACBDD3B7FECEF1C6F7000070B5054647
:107BA000012622E014494FF4967248680021FEF73E
:107BB0003EF92B4632220021104805F025FBC4B2C5
:107BC0009CB10D4948680EA1FDF7CEFA28B10521F8
:107BD0000DA0FEF7FDFE002070BD0748224641685B
:107BE0000CA001F0BDFA0120F6E73000A6F101017A
:107BF000CEB2D7D100BFEFE7BC0000200044004068
:107C0000434C4F5345440000C1ACBDD3B1BBB9D8C0
:107C1000B1D50000BDD3CAD53A0000002DE9F0412E
:107C200006460F46144600250BE04FF47A7239469B
:107C30003046FFF77FFE10B10120BDE8F081681CDF
:107C4000C5B2A542F1DB0020F7E7F0B504460A46CD
:107C5000002300200025214633E00E78252E02D196
:107C60000125461CB0B2012D2AD10E78642E06D112
:107C7000AC461E465F1CBBB202F806C000250E785B
:107C8000662E07D14FF0020C1E465F1CBBB202F8F5
:107C900006C000250E78732E07D14FF0030C1E4648
:107CA0005F1CBBB202F806C000250E78632E07D118
:107CB0004FF0040C1E465F1CBBB202F806C0002544
:107CC000491C0E78002EC8D1F0BD00002DE9FE43FE
:107CD00005460F4600261C48006800901A48001D03
:107CE00000680290184808300068019000241BE0EA
:107CF00014E05DF824003E21B0FBF1F201FB120814
:107D0000404604F0F3F93146721CD6B268545DF86F
:107D100024003E21B0FBF1F04DF824005DF8240072
:107D20000028E6D1601CC4B2032CE1DB0F263846E4
:107D300004F0DCF93246761CA85400223146761C49
:107D40006A543046BDE8FE83E8F7FF1F0146002075
:107D50000A78302A01DB012200E000220B78392B5F
:107D600001DC012300E000231A4203D00A78120745
:107D7000100E24E00A78412A01DB012200E00022F3
:107D80000B78462B01DC012300E000231A4204D0CB
:107D90000A78D21F1207100E11E00A78612A01DB5F
:107DA000012200E000220B78662B01DC012300E0B9
:107DB00000231A4203D00A78D21F1207100E4A7805
:107DC000302A01DB012200E000224B78392B01DC54
:107DD000012300E000231A4204D04A78303A0244DA
:107DE000D0B224E04A78412A01DB012200E00022DF
:107DF0004B78462B01DC012300E000231A4204D01B
:107E00004A78373A0244D0B211E04A78612A01DB5D
:107E1000012200E000224B78662B01DC012300E008
:107E200000231A4203D04A78573A0244D0B270472E
:107E30000FB438B5044606A800902046009A05996C
:107E400005F0E2FA00200090204600F067F8C0B28A
:107E500038BC5DF814FB00002DE9FC5F05460026E8
:107E6000B346B1464FF07E5A44E015F8014B2D2C35
:107E700001D101263EE02E2C02D14FF0010B39E05A
:107E8000302C2EDB392C2CDCBBF1000F0ED11F491E
:107E90004846FDF7D3F98146A4F13000FDF7CCFB4D
:107EA00007464946FDF772F9814623E05046FDF743
:107EB0002AFC0746164A174BFDF7DDFACDE900010B
:107EC000FDF75CFC8246A4F13000FDF7B5FB80466F
:107ED0005146FDF7B3F907464946FDF757F9814684
:107EE00008E026B10C494846FDF7A8F98146484606
:107EF000BDE8FC9F28780028B7DC26B10649484633
:107F0000FDF79CF981464846F2E700000000204159
:107F10009A9999999999B93F000080BF10B5014687
:107F200000200A4601E0431C98B212F8014B002CD5
:107F3000F9D110BD002000210CE001EB4102074BFC
:107F40001B6803EB02121289012A01D0421CD0B235
:107F50004A1CD1B21429F0DB704700009C000020BD
:107F600070B504460E46002507E02288701905A169
:107F7000FFF75EFF284485B2A41C20880028F4D1B6
:107F8000284670BD253034780000000002460020ED
:107F900039B950784FF6FF7303EA0020137818437D
:107FA00006E010784FF6FF7303EA00205378184379
:107FB000704700000149088870470000E0F7FF1F84
:107FC00010B504462AA1204603F087F908B1012024
:107FD00010BD28A1204603F080F908B10220F7E780
:107FE00025A1204603F079F908B10320F0E723A189
:107FF000204603F072F908B10420E9E720A12046E9
:1080000003F06BF908B10520E2E71EA1204603F05A
:1080100064F908B10620DBE71BA1204603F05DF9F7
:1080200008B10720D4E719A1204603F056F908B19A
:108030000820CDE716A1204603F04FF908B109202A
:10804000C6E714A1204603F048F908B10A20BFE7AB
:1080500011A1204603F041F908B10B20B8E70FA1A8
:10806000204603F03AF908B10C20B1E70120AFE750
:108070004A616E00466562004D6172004170720097
:108080004D6179004A756E004A756C004175670054
:10809000536570004F6374004E6F76004465630053
:1080A00070B505460024291901220DA0FFF7FBF940
:1080B0002044C4B20AA0FFF783FF064628193246BF
:1080C0000AA1FFF7B5FE2044C4B22919002204A07A
:1080D000FFF7E9F92044C4B200202855204670BDBE
:1080E0004D61792032352032303136002D25303245
:1080F000642D000001E000F00BFCFCE770B50446C5
:108100000D46002620E040211148FFF7B2FB032076
:1081100000F020F814F0800F04D020210C48FFF765
:10812000AAFB03E020210A48FFF7A3FB032000F08D
:1081300011F840210648FFF79EFB6006040E01205F
:1081400000F008F8701CC6B2AE42DCDB70BD000067
:108150000010014000EB400188B200BF0100A0F117
:10816000010290B2FAD1704770B504460D4605F091
:108170000F01204600F00EF82911621CD0B200F069
:1081800009F8204604EBD0714910014A555470BDDE
:10819000EC01002070B504460D4680210C48FFF725
:1081A00068FB0320FFF7D6FF0321A020FFF7A6FFFF
:1081B000A106080E0621FFF7A1FF2907080E0421DA
:1081C000FFF79CFF80210248FFF755FB70BD0000C0
:1081D0000010014010B5032101A0FEF7F9FB10BD0E
:1081E000493243315F45525F49525148616E646C78
:1081F0006572000010B5032101A0FEF7E9FB10BD78
:10820000493243315F45565F49525148616E646C53
:108210006572000010B5032101A0FEF7D9FB10BD67
:10822000493243325F45525F49525148616E646C36
:108230006572000010B5032101A0FEF7C9FB10BD57
:10824000493243325F45565F49525148616E646C12
:108250006572000010B504460120A0470320A04726
:1082600010BD2DE9FF47074616461C46DDE90C897F
:108270009DF804004006000E0190002C16DD3846E3
:1082800000F0C0F8012201A9384600F076F8054652
:1082900035B93846FFF7DEFF002004B0BDE8F087AF
:1082A00022463146384600F068F80546384600F068
:1082B000A9F89DF8040040F001000190012201A9F5
:1082C000384600F05AF805464A464146384600F01E
:1082D00006F80546384600F0ACF82846DDE72DE9FB
:1082E000F04704460E461546A94628E04FF0000820
:1082F000002714E07806070E0320A0470A2005F0A7
:10830000FBFC0520A04708B147F001070420A04767
:108310000A2005F0F1FC08F1010000F0FF08B8F1B7
:10832000080FE7DB06F8017B002D04DD0021204665
:1083300000F00DF803E00121204600F008F82800C5
:10834000A5F10101CDB2D1D14846BDE8F08770B5A5
:1083500004460D4615B10120A04701E00220A047C8
:108360000320A0470A2005F0C7FC0420A0470A20EC
:1083700005F0C2FC0120A04770BD2DE9F04704467E
:108380000E461546A94639E016F8018B002717E07E
:1083900018F0800F02D00120A04701E00220A04782
:1083A0000320A0470A2005F0A7FC0420A0470A20CC
:1083B00005F0A2FC781CC7B24FEA48604FEA10688B
:1083C000082FE5DB0120A0470320A0470A2005F085
:1083D00093FC0520A04782460A2005F08DFC04206E
:1083E000A0470A2005F088FCBAF1000F04D0A9EBE1
:1083F0000500C0B2BDE8F087681EC5B2002DC3D12C
:108400004846F7E710B504460320A047052005F0CD
:1084100073FC0120A0470A2005F06EFC0220A04753
:108420000A2005F069FC0420A0470A2005F064FC3E
:1084300010BD10B504460220A047142005F05CFCD6
:108440000320A0470A2005F057FC0120A0471E206A
:1084500005F052FC10BD2DE9FF47074614461D46A6
:10846000DDE90C899DF804004006000E01903846B5
:10847000FFF7C8FF012201A93846FFF77EFF064635
:1084800036B93846FFF7E6FE002004B0BDE8F087B5
:108490002A4621463846FFF770FF06464A464146BF
:1084A0003846FFF76AFF06463846FFF7C2FF3046F8
:1084B000EBE7000070B504460D4685B104EB4402BD
:1084C0000F4B1B6803EB8202118904EB44020C4B37
:1084D0001B6803EB82025068FFF7CDF90FE004EB55
:1084E0004402074B1B6803EB8202118904EB440230
:1084F000034B1B6803EB82025068FFF7BAF970BDAB
:10850000740000202DE9F041054609492846FCF792
:1085100095FE0746FDF7C4F886B2A6F561703221D4
:1085200090FBF1F0C4B284F020042046BDE8F08155
:10853000000048437CB5044607226946002000F04D
:10854000D1F805460DB900207CBD9DF8001001F062
:108550007F00FDF72EFCA0719DF8011001F07F0057
:10856000FDF727FC60719DF8021001F03F00FDF758
:1085700020FC20719DF8031001F03F00FDF719FC6D
:10858000A0709DF8041001F01F00FDF712FC607050
:108590009DF80500FDF70DFC20709DF80600FDF725
:1085A00008FCE0700120CFE770B504460025062CDA
:1085B00033D2DFE804F032030C151E27184A126884
:1085C0001189174A12685068FFF755F925E0144AD7
:1085D00012681189124A12685068FFF74AF91CE0C4
:1085E0000F4A1268918A0E4A12681069FFF743F920
:1085F00013E00B4A1268918A094A12681069FFF762
:1086000038F90AE0064A12681189054A126850686A
:10861000FFF726F900B1012500BF00BF284670BD55
:108620007C00002038B5054600242C480560006811
:10863000FFF7D4F801226946122000F053F80446EF
:108640009DF800005D2847D01021072000F0DAF8DF
:1086500004409021082000F0D5F804402048FFF79E
:1086600051FF00909DF800100A2000F0CBF8044064
:1086700000210B2000F0C6F804405D21122000F01C
:10868000C1F8044000231A461946184600F03AF88B
:1086900004400021084600F0B5F804400021012004
:1086A00000F0B0F804408021022000F0ABF8044054
:1086B0000121032000F0A6F804400121042000F06D
:1086C000A1F804400021052000F09CF80440062198
:1086D000084600F097F80440204638BD7C00002092
:1086E0000000C04037B582B00C461546012302AAEF
:1086F0006F210348CDE90045FFF7B3FD05B030BD5C
:10870000A98500082DE9F84381460F4690461C468E
:1087100001264046FEF731FA8DF800003846FEF794
:108720002CFA8DF801004846FEF727FA8DF8020072
:1087300014F0010F05D09DF8000040F080008DF886
:10874000000014F0020F05D09DF8010040F08000F9
:108750008DF8010014F0040F05D09DF8020040F0E0
:1087600080008DF80200002509E01DF8051005F1D4
:108770000C02D0B200F046F80640681CC5B2032DCA
:10878000F3DB002C05DDD021082000F03BF806408B
:1087900004E09021082000F035F806403046BDE89E
:1087A000F8837CB50446A079FEF7E7F98DF8000060
:1087B0006079FEF7E2F98DF801002079FEF7DDF926
:1087C00040F080008DF80200A078FEF7D6F98DF811
:1087D00003006078FEF7D1F98DF804002078FEF7E9
:1087E000CCF98DF80500002507E01DF80510E8B26A
:1087F00000F008F80640681CC5B2072DF5DB3046CE
:108800007CBD000003B583B0012004A9034603AA80
:10881000CDE900106F210248FFF71DFE05B000BD35
:10882000A985000810B545F2555000F029F806203A
:1088300000F01AF84FF47F6000F01CF800F00CF81C
:1088400000F002F810BD00004CF6CC400149086071
:1088500070470000003000404AF6AA200149086035
:108860007047000000300040014948607047000038
:10887000003000400149886070470000003000402F
:1088800001490860704700000030004070B50446A0
:108890000D462B4622460249024800F005F870BDFD
:1088A00000F80308317500082DE9F04707468846AF
:1088B00014461D46A14608EBC52004222146B847B0
:1088C0004E463088B0F5006F01DD012000E0002049
:1088D0003188042901DA012100E00021084300D099
:1088E00013E0328808EBC5202146B8473088001FC6
:1088F00081B209F1040003F00FFC824671885145F2
:1089000000D002E00120BDE8F0870020FBE7000076
:1089100071B600BF0648006800F4E06005490843EE
:10892000001D03490860BFF3408F00BF00BFFEE792
:108930000CED00E00000FA0530B50246002000BF53
:1089400002F07F03D2090AB143F080030446451CBC
:10895000E8B20B55002AF3D130BD0000F0B59DB050
:1089600005460C46607A48B1627A04A96068FDF752
:108970004DFA0020617A04AA505403E004A960680B
:1089800002F078FC207A0D2839D009DC77D2DFE8B4
:1089900000F0A310A3A3231C5CA3A342A3152F00E4
:1089A00017380728F2D2DFE800F03D4697306B79A0
:1089B000580028462168FEF732FE92E0606802788F
:1089C00028462168FEF72BFE8BE060680288284667
:1089D0002168FEF724FE84E061680868FCF793FED6
:1089E00006460B46324628462168FEF718FE78E018
:1089F0006068027828462168FEF711FE71E028467B
:108A0000D4E90012FEF70BFE6BE004AA28462168A9
:108A1000FEF705FE65E06068026828462168FEF7FB
:108A2000FEFD5EE0606880470646324628462168C3
:108A3000FEF7F5FD55E0606800782B4B53F82020D9
:108A400028462168FEF7EBFD4BE0606890F90020B6
:108A500028462168FEF7E3FD43E060680068667A17
:108A60000123B340184201D0012000E000201E4B3A
:108A700053F8202028462168FEF7D1FD31E02BE095
:108A80006068007861684978CDE900106068837893
:108A9000C27828462168FEF7C2FD22E06168098895
:108AA00088B202F089FC03906168098888B202F0FC
:108AB00083FC02906168098888B202F07DFC019015
:108AC0009DF80E0000909DF809309DF8042028467E
:108AD0002168FEF7A4FD04E028462168FEF79FFD0B
:108AE00000BF00BF1DB0F0BD5C00002000BFFEE76E
:108AF000054A1168486802E009684A6810440A6833
:108B0000002AF9D170470000B800002002460A4B45
:108B10001868002106E0A2F10803834200D107E0B3
:108B2000014600680368002BF5D101B10B60704766
:108B300003680B6000BFFAE7B80000200549086031
:108B40000021044A126811600821024A126851602B
:108B500070470000B800002010B5034610480168B7
:108B600003F1080083B20FE00868401A4C68001B4C
:108B7000984208D3486842185360086810600A6039
:108B800002F1080010BD096808680028ECD14868A7
:108B900042180020106053600A6002F10800F1E7FB
:108BA000B8000020014600200A4602E00C32431CB7
:108BB000D8B2137A002BF9D1704730B5039C7E25CB
:108BC00005707F25057382704170C373447330BD97
:108BD0002DE9F05F06460C4691469A46DDF828B02E
:108BE0000C9F002584F8039084F804A084F808B052
:108BF000678117B1F81CE08001E00020E080227856
:108C00002846691C8DB23254E07B50B9A2782846C0
:108C1000691C8DB2325462782846691C8DB2325478
:108C20000CE0E07B012809D162782846691C8DB2EE
:108C30003254A2782846691C8DB23254E278284614
:108C4000691C8DB2325422792846691C8DB2325487
:108C5000E08802122846691C8DB23254A279284657
:108C6000691C8DB23254BFB1227A2846691C8DB27C
:108C70003254608902122846691C8DB23254A27A9D
:108C80002846691C8DB23254628971190B98FDF720
:108C9000BDF86089284485B2607B012810D129463F
:108CA000304603F039FA80464FEA28222846691CEC
:108CB0008DB232542846691C8DB206F800800BE054
:108CC000607B022808D1681E81B2304603F060FA4A
:108CD00029466A1C95B27054227B2846691C8DB2C5
:108CE00032542846BDE8F09F2DE9F05F06468B46DA
:108CF00014460025AA460120A07329466D1C705C0D
:108D00002178884200D099E0E07B50B92846691C60
:108D10008DB2305C6178884200D093E0681C85B2E7
:108D200020E0E07B01281DD12846691C8DB216F891
:108D30000080A078404501D0012000E00020B8F17B
:108D4000FF0F01D0012100E00021084200D079E0AE
:108D5000681C85B2B8F1FF0F02D14FF0010901E0A4
:108D60004FF000092846691C8DB2305CE07028463F
:108D7000691C8DB2305C20712846691C8DB2305C54
:108D8000E080E0884FF6FF7101EA0020E080E08893
:108D900029466A1C95B2715C0843E080E08800B304
:108DA0002846691C8DB2305C20722846691C8DB241
:108DB000305C608160894FF6FF7101EA00206081BC
:108DC000608929466A1C95B2715C08436081AA4695
:108DD0006089284485B2E1886089C01C814200D046
:108DE00034E0607B022809D12946304603F0D0F9EF
:108DF0000746715DB94200D01CE010E0607B01289D
:108E00000CD12946304603F087F907467019012135
:108E1000FFF7BCF8B84200D00CE000E000BFB9F1A9
:108E2000010F02D10620A07301E00020A07350467C
:108E3000BDE8F09F0220A0730020F9E70520A07391
:108E40000020F5E70620A0730020F1E70120A073C1
:108E50000020EDE77047000070B5002100230F22CD
:108E6000C4780CB3164C246804F4E064C4F5E064E0
:108E7000210AC1F10403CA40447804FA03F184785A
:108E80001440214309010F4C0678A155047804F0E1
:108E90001F050124AC4005786D114FF0E02606EB6C
:108EA0008505C5F8004109E0047804F01F05012498
:108EB000AC40054D0678761145F8264070BD00009F
:108EC0000CED00E000E400E080E100E00249014335
:108ED000024A1160704700000000FA050CED00E046
:108EE000024A0A400243024B1A60704780FFFF1F8C
:108EF00008ED00E010B588B0002269460BA000F034
:108F0000A3FA044674B16846FDF768F850B105222B
:108F1000694609A0FDF75CFD0B220C490DF102002A
:108F2000FCF774FF204608B010BD000041542B43ED
:108F30005343413F0D0A0000B6CCD0C5D6D0D0C4B3
:108F4000BAC5C2EB3A5B25735D000000C801002082
:108F500010B5032101A0FDF73BFD10BD5056445F45
:108F600049525148616E646C6572000070470000A0
:108F700010B5032209A10BA0FDF72AFD03220DA1C4
:108F800010A0FDF725FD0322124913A0FDF720FDD7
:108F90000322164916A0FDF71BFD10BD54503530B5
:108FA000322D5400426F6172645F4E616D653A25E7
:108FB0007300000053544D33324C3135315242541A
:108FC000360000004350555F4D6F64656C3A257361
:108FD0000000000000127A004370755F4F53435F3A
:108FE000465245513A2025644D687A0000A24A0451
:108FF0004370755F467265713A2025644D687A004A
:10900000704700001FB50948006801900748001D1F
:109010000068029005480830006803900320009023
:1090200003A001A90EC9FDF7D3FC1FBDE8F7FF1F80
:10903000494320436F64653A255820255820255818
:10904000000000007047000010B5032108A0FDF7E4
:10905000BFFCFFF78DFFFFF7D3FFFFF7D3FFFDF74F
:10906000D7FD00F013F8FFF7EDFF00F02FF810BD6B
:109070000A546F732053797374656D205374617251
:10908000742E2E2E2E2E2E2E2E2E2E0010B5FEF7E6
:1090900051FF044603232246142102A0FDF798FC49
:1090A00010BD00005461736B506F6F6C53697A652B
:1090B0003A256420627574206861732025642074E9
:1090C00061736B206372656174652E0038B500248E
:1090D0001DE004EB44001549096801EB0010C06A6B
:1090E00098B10320009004EB44001049096801EB9B
:1090F0000010038C04EB44000C49096801EB0010DC
:109100002146C26A0AA0FDF763FC601CC4B2142C9D
:10911000DFDB601EC4B2FFF7EBFC054603232A46E3
:1091200049F6404107A0FDF753FC38BD9C000020E4
:109130005461736B5B25645D4E616D653A257328E0
:10914000256429004D656D6F727953697A653A25FA
:10915000642062757420757365723A25640000009E
:109160002DE9F04105460E4617460522294608A07E
:10917000FDF72EFC002407E0325D0523214605A003
:10918000FDF726FC601C84B2BC42F5DBBDE8F08133
:10919000257300004275665B25645D3D3078257857
:1091A0000000000010B500F071FB04462CB1052250
:1091B000214604A0FDF70CFC03E0052106A0FDF705
:1091C00007FC10BDB7A2CBCDC5E4D6C3D6A1CAA7B4
:1091D000B0DC5B25645D0000B7A2CBCDC5E4D6C38F
:1091E000D6A14F4B0000000000B599B00948B0F877
:1091F000AA3000F1890208A16846FEF710FA05229C
:1092000069460CA0FDF7E4FB6846FEF745FC19B083
:1092100000BD0000F800002041542B51494F50453B
:109220004E3D22544350222C222573222C25640DBE
:109230000A000000C1ACBDD3B5BD3A2573000000E3
:1092400010B54FF47A7229A129A0FEF7D5FB08B911
:10925000012010BD00F0DEF8284981F8C200052188
:1092600027A0FDF7B5FB052128A0FDF7B1FB4FF4C2
:109270007A7229A129A0FEF7BFFB02234FF47A726C
:1092800029A126A0FEF7C4FB20B9052127A0FDF7E0
:109290009FFB03E0052127A0FDF79AFB02234FF473
:1092A0007A7226A127A0FEF7B3FB40B1052128A0C2
:1092B000FDF78EFB0220114981F8C3000FE0022365
:1092C0004FF47A7226A11FA0FEF7A2FB38B1052148
:1092D00025A0FDF77DFB0420084981F8C300052186
:1092E00025A0FDF775FB0020B3E700002139390008
:1092F00041542B4353510D0A00000000F800002098
:10930000BCECB2E9D0C5BAC500000000D5FDD4DA86
:10931000D7A2B2E1000000003000000041542B430E
:109320005245473F0D0A000035000000B1BEB5D8D8
:10933000BFA80000CDE2B5D8BFA800004D4F4249FC
:109340004C45000041542B434F50533F0D0A000041
:10935000D6D0B9FAD2C6B6AF53494DBFA800000067
:10936000554E49434F4D0000D6D0B9FAC1AACDA8F9
:1093700053494DBFA8000000D7A2B2E1B3C9B9A6B6
:109380000000000070B50546002410222146641C30
:109390006A54FF222146641C6A5400222146641C40
:1093A0006A5404222146641C6A54291916A0FCF749
:1093B0002DFD204484B204222046611C8CB22A5424
:1093C00002222046611C8CB22A5400222146601CD5
:1093D00084B26A543C222146601C84B26A54002242
:1093E0002046611C8CB22A5410222046611C8CB28B
:1093F0002A5429190648FCF709FD204484B2A01E0E
:109400006870E0B270BD00004D515454000000007F
:109410004901002008B5694605A000F06FF89DF8E5
:109420000010052205A0FDF7D3FA9DF8000008BD45
:1094300041542B4353510D0A00000000D0C5BAC55A
:10944000C7BFB6C83A2564002DE9F84F82460C46DE
:1094500017464FF0000800200090814651462548ED
:1094600003F053FF24494FF4967248680021FCF73B
:10947000DEFC4FF47A73322200211E4803F0C4FE52
:1094800000F0FF0BBBF1000F30D000202070002552
:109490002AE019484068465D302E01DB012000E0DB
:1094A0000020392E01DC012100E00021084209D012
:1094B0004F4504D14046411C01F0FF0826540120CD
:1094C00000900FE0009868B14F4505D1002240465A
:1094D000411C01F0FF0822540020009009F1010016
:1094E00000F0FF09681CC5B25D45D2DB4046BDE80F
:1094F000F88F000000440040BC0000202DE9F04738
:1095000080460C460025AA464146234803F0FDFE4E
:1095100022494FF4967248680021FCF788FC4FF40A
:109520007A73322200211C4803F06EFE00F0FF091E
:10953000B9F1000F2CD000202070002626E017483B
:109540004068875D302F01DB012000E00020392FCB
:1095500001DC012100E0002108420DD0605D00EB3C
:1095600080004006000E6055615DA7F130000844A0
:1095700060554FF0010A07E0BAF1000F04D0681CF3
:10958000C5B2002060558246701CC6B24E45D6DB7F
:109590002846BDE8F087000000440040BC000020E1
:1095A00010B508213948FEF766F940F24C4002F048
:1095B000DBFF052136A0FDF70BFA08213348FEF743
:1095C00058F940F24C4002F0CFFF04212F48FEF73B
:1095D00052F940F24C4002F0C7FF05212FA0FDF7E1
:1095E000F7F904212948FEF744F94FF47A7002F0A4
:1095F000BBFF4FF480712C48FEF732F9012804D1EB
:1096000005212AA0FDF7E4F901E0012010BD43F295
:10961000B06002F0A9FF4FF47A7227A127A0FEF7ED
:10962000EBF908B90220F1E7052126A0FDF7D0F9F2
:109630004FF47A7002F098FF4FF4FA621EA125A051
:10964000FEF7DAF908B90320E0E7052123A0FDF7CA
:10965000BFF94FF47A7218A123A0FEF7CDF908B92B
:109660000420D3E7052123A0FDF7B2F9FFF7E8FDB9
:1096700004462CB10522214622A0FDF7A9F903E0FA
:10968000052124A0FDF7A4F90020BFE70010014048
:1096900047505253C9CFB5E700000000475052531E
:1096A000BFAABBFA0000000000080140BFAABBFA35
:1096B000B3C9B9A6000000004F4B000041540D0A89
:1096C000000000004154D6B8C1EED6B4D0D0B3C922
:1096D000B9A60000415445300D0A0000C9E8D6C3C0
:1096E000B2BBBBD8CFD4000041542B4350494E3FAE
:1096F0000D0A0000B2E9BFB4CAC7B7F1D3D05049D0
:109700004E000000C1ACBDD3CDF8CAA7B0DC5B25CC
:10971000645D0000C1ACBDD3CDF8C2E7B3C9B9A642
:109720000000000010B504464FF47A7002F01CFFF0
:109730004FF47A7220A122A0FEF75EF908B9012049
:1097400010BD8CB94FF47A7224A125A0FEF754F90C
:1097500008B90220F4E74FF47A7220A123A0FEF7A3
:109760004BF908B90420EBE7012C11D14FF47A72C0
:109770001AA123A0FEF740F908B90320E0E74FF44F
:109780007A7216A119A0FEF737F908B90420D7E7B5
:109790004FF47A7211A11DA0FEF72EF908B9052029
:1097A000CEE74FF47A720DA11EA0FEF725F908B995
:1097B0000620C5E70020C3E743504D5300000000DA
:1097C00041542B43504D533D224D54222C224D5495
:1097D000222C224D54220D0A000000004F4B0000A5
:1097E00041542B434D47463D300D0A0041542B4315
:1097F0005343533D2255435332220D0A00000000CB
:1098000041542B434D47463D310D0A0041542B43F3
:10981000534D503D31372C3136372C302C380D0A12
:109820000000000041542B434E4D493D322C312C59
:10983000302C302C300D0A0070B504460D494FF421
:10984000967248680021FCF7F2FA21460A4803F0B4
:109850005CFD4FF47A734FF496720021064803F0D2
:10986000D3FCC5B22DB103480522416803A0FDF722
:10987000AFF870BDBC00002000440040B6C1B6CCBB
:10988000D0C5B7B5BBD83A257300000010B5B2B04B
:109890000024384890F8B00010F0200F3FD0052188
:1098A00035A0FDF795F840F6B83002F05DFE684649
:1098B000FFF768FD04460522214633A0FDF788F82E
:1098C000224635A1384803F020FD4FF4FA6137A055
:1098D000FDF7FEFF00B10EE04FF4FA6133A0FDF793
:1098E000F7FF00B107E04FF4FA6130A0FDF7F0FF99
:1098F00000B100E000BF224669462B4803F0F5FCAA
:109900004FF47A712AA0FDF7E3FF10B9022032B0BC
:1099100010BD4FF4FA60FEF741F90020F7E705218A
:1099200025A0FDF755F80DEB040110221148513028
:10993000FCF76CFA204484B2224617A11A4803F0BF
:10994000E4FC4FF47A7002F00FFE052269461EA077
:10995000FDF73EF822466946134803F0C6FC4FF473
:109960007A7113A0FDF7B4FF08B90220CFE70020F9
:10997000CDE70000F8000020C5E4D6C3CEAA4D51C3
:109980005454D0ADD2E90000B7A2CBCDC5E4D6C3C4
:109990005B25645D0000000041542B514953454E46
:1099A000443D25640D0A0000004400403E000000D4
:1099B00053454E44204F4B00C5E4D6C3CEAA544372
:1099C00050D0ADD2E9000000B7A2CBCDC5E4D6C3DC
:1099D0003A2573002DE9F04FFFB04FF00209002443
:1099E000944890F8B00010F0200F7CD0322220462E
:1099F000611C8CB202A90A5404EB090084B2002253
:109A00002046611C8CB202A90A5410222046611C17
:109A10008CB202A90A5402A8011986485130FCF7F9
:109A2000F5F9204484B200222146601C84B202A8C9
:109A3000425401222046611C8CB202A90A54081922
:109A40007DA1FEF7F5F9204484B27A490868FBF756
:109A50005AFE07460B4602A908193A467BA1FEF7B3
:109A6000E7F9204484B273494868FBF74CFE074687
:109A70000B4602A908193A4674A1FEF7D9F9204409
:109A800084B26C498868FBF73EFE07460B4602A984
:109A900008193A466DA1FEF7CBF9204484B2654916
:109AA00091F8C200FBF7D1FD8246FBF72CFE07467A
:109AB0000B4602A908193A4664A1FEF7B9F92044F9
:109AC00084B25C49D1F8C800FBF71DFE0746884602
:109AD0005849D1F8CC00FBF716FE82460B4602A986
:109AE0000819524600E035E05CA1CDE90078FEF7A8
:109AF0009FF9204484B202A908195EA1FEF798F9E3
:109B0000204484B2A4EB0901481E0DF10901FEF7BF
:109B100013FF224658A15C4803F0F7FB4FF4FA61AB
:109B20005AA0FDF7D5FE18B901207FB0BDE8F08F2F
:109B3000224602A9544803F0D8FB4FF47A7154A08E
:109B4000FDF7C6FE08B90220EFE74FF4FA60FEF712
:109B500025F86DE0374908680021FBF735FE01D88C
:109B60002B2500E02D25334948680021FBF72CFE0A
:109B700001D82B2600E02D262E490868FBF7C3FDEF
:109B80002A46CDE9000144A102A8FEF751F9044696
:109B9000284A11685068FBF70DFE0BD2254948682A
:109BA000FBF7B1FD3246CDE900013BA102A8FEF76B
:109BB0003FF904461F48008A10F4807F0CD01D49ED
:109BC0000868FBF7A0FD2A46CDE9000132A102A8F2
:109BD000FEF72EF9044610E01648008A10F4007FC4
:109BE0000BD014494868FBF78EFD3246CDE90001E1
:109BF00029A102A8FEF71CF9044622461EA122480C
:109C000003F083FB4FF47A7002F0AEFC052202A948
:109C100027A0FCF7DDFE224602A91B4803F065FBE6
:109C20004FF47A711AA0FDF753FE08B902207CE7C1
:109C300000207AE7F80000207B2273656E736F7254
:109C40004461746173223A5B000000007B227661FC
:109C50006C7565223A252E32667D2C007B226C6164
:109C600074223A252E37662C226C6E67223A252EF6
:109C700037667D005D7D000041542B514953454EB0
:109C8000443D25640D0A0000004400403E000000F1
:109C900053454E44204F4B002354503330302C2535
:109CA0006330252E31662C302E30300D0A00000036
:109CB000B7A2CBCDCAFDBEDD3A25730010B5B2B058
:109CC00000242B4890F8B00010F0200F32D0C022B2
:109CD0002046611C8CB20DF8002000222046611C39
:109CE0008CB20DF80020224622A1264803F00DFB7D
:109CF0004FF4FA6124A0FDF7EBFD10B9012032B05A
:109D000010BD2246694621A0FFF72AFA224669467D
:109D10001C4803F0EAFA4FF47A711EA0FDF7D8FD53
:109D200008B90220EBE74FF4FA60FDF737FFE0B91E
:109D30000020E4E7694619A001F09CFA0446224697
:109D40000CA1104803F0E1FA4FF47A7002F00CFC19
:109D5000224669460B4803F0C8FA4FF47A710DA009
:109D6000FDF7B6FD08B90220C9E70020C7E70000EB
:109D7000F800002041542B514953454E443D256481
:109D80000D0A0000004400403E000000B7A2CBCD09
:109D90003A00000053454E44204F4B0030303030E5
:109DA0000000000070B5EAB006460024002500BFA0
:109DB000022C02DD28466AB070BD2146621CD4B276
:109DC00001EB410202EBC1021F4950180B2265A9A9
:109DD000FCF71CF800208DF89F0165A8FCF7FEF841
:109DE00000B9E5E70120FFF79DFC01A965A8FDF793
:109DF00044FC00208DF8300001AA14A1174803F09C
:109E000084FA052265A916A0FCF7E2FD4FF47A70EA
:109E100002F0AAFB01A93046FDF72FFC3046FEF701
:109E20007DF801A9002201F820200C4803F06DFA0A
:109E30001A210A4803F050FA4FF47A710BA0FDF78B
:109E400047FD681CC5B2B3E72801002041542B43ED
:109E50004D47533D222573220D0A00000044004067
:109E6000B7A2CBCDB5BD5B25735D0000434D475315
:109E7000000000002DE9F043CFB061A0006803901E
:109E8000012260A104A8FDF7D3FF04A8FFF7D4FCCA
:109E90006049486860A101F020FA8146002204A9C7
:109EA0004846FDF7AFFA04A904A801F07DF904A81B
:109EB000FEF734F8022806DA052158A0FCF788FDE1
:109EC0004FB0BDE8F0834FF47A7157A0FDF7D6FC90
:109ED000052156A0FCF77CFD57A15B4803F015FA5D
:109EE0004FF47A7150A0FDF7C9FC052204A957A0D0
:109EF000FCF76EFD04A8FEF711F80B2804DA052123
:109F000054A0FCF765FDDBE703A9484601F0E5F93D
:109F10008146002204A94846FDF774FA04A904A862
:109F200001F042F9052204A94FA0FCF751FD50A110
:109F300004A801F0D2F9B0B14E494868FBF7E3FB41
:109F400005460E464B490868FBF7DDFB07463A46D7
:109F50000B4649A104A8CDE90056FDF769FF04A806
:109F6000FFF720FFACE749A104A801F0B6F960B102
:109F700047A237A104A8FDF75BFF0446002004A90F
:109F8000085504A8FFF70EFF9AE746A104A801F0C0
:109F9000A4F960B144A22EA104A8FDF749FF04462C
:109FA000002004A9085504A8FFF7FCFE88E743A198
:109FB00004A801F092F960B141A225A104A8FDF71F
:109FC00037FF0446002004A9085504A8FFF7EAFE5D
:109FD00076E740A104A801F080F960B13EA21CA17F
:109FE00004A8FDF725FF0446002004A9085504A88D
:109FF000FFF7D8FE64E73DA0FFF7D4FE00BF5FE7A0
:10A00000220D0A0041542B434D47523D25640D0A51
:10A0100000000000BC000020222C2200DFE3D3D08F
:10A02000D0C2CFFBCFA200004F4B0000C9BEB3FD92
:10A03000CFFBCFA20000000041542B434D47443DCD
:10A04000312C340D0A000000004400404E756D3A7A
:10A0500025730000B2BBCAC7C8CBB7A2B5C4D6B17E
:10A06000BDD3C9BE000000004D73673A25730000E0
:10A0700030310000F80000204348313D252E326683
:10A080002C4348323A252E32660000003032000060
:10A09000D4DDB2BBD6A7B3D65B30325DD6B8C1EE45
:10A0A0000000000030330000D4DDB2BBD6A7B3D629
:10A0B0005B30335DD6B8C1EE0000000030340000E4
:10A0C000D4DDB2BBD6A7B3D65B30345DD6B8C1EE13
:10A0D0000000000030350000D4DDB2BBD6A7B3D6F7
:10A0E0005B30355DD6B8C1EE0000000030313AD2A9
:10A0F000A3B2E22C30333AC9E8D6C349502C3034ED
:10A100003AC9E8D6C3B6CBBFDA2C30353AC9CFB19D
:10A11000A8D6DCC6DA2CC6E4CBFB3AB0EFD6FA0000
:10A1200001460020034A506820F440400843506034
:10A13000704700000010024029B1064A52690243EC
:10A14000044B5A6104E0034A52698243014B5A614D
:10A15000704700000010024029B1064AD26902434C
:10A16000044BDA6104E0034AD2698243014BDA61AD
:10A17000704700000010024029B1064A926902436C
:10A18000044B9A6104E0034A92698243014B9A614D
:10A19000704700000010024030B50021002200246A
:10A1A00000232D4D6D6805F00C0121B1042905D067
:10A1B000082923D105E0294D056022E0274D0560DF
:10A1C0001FE0254D6D6805F47012234D6D6805F490
:10A1D0008034022505EB92421CB9214D55430560A0
:10A1E0000BE01D4D6D6815F4003F03D01C4D554329
:10A1F000056002E0194D5543056002E0174D05600A
:10A2000000BF00BF144D6D6805F0F0010909154D40
:10A210006B5C0568DD4045600F4D6D6805F4E061DD
:10A22000090A104D6B5C4568DD4085600A4D6D681C
:10A2300005F46051C90A0B4D6B5C4568DD40C56093
:10A24000054D6D6805F44041890B074D6B5CC56891
:10A25000B5FBF3F5056130BD0010024000127A0035
:10A2600000093D00000000201000002010B503216F
:10A2700001A0FCF7ADFB10BD5243435F495251486A
:10A28000616E646C6572000010B5032101A0FCF7DB
:10A290009FFB10BD525443416C61726D5F49525136
:10A2A00048616E646C65720000B599B040F2DC5391
:10A2B00007A20BA16846FDF7B2F9052269460FA077
:10A2C000FCF786FB6846FDF7E7FB19B000BD000010
:10A2D0006C696E6B2E746C696E6B2E696F0000007A
:10A2E00041542B51494F50454E3D22544350222C4E
:10A2F000222573222C25640D0A000000C1ACBDD3B9
:10A30000B5BD3A257300000010B59AB0002401A92C
:10A31000081915A1FDF78CFD0444052201A917A019
:10A32000FCF756FB224618A11B4802F0EEFF4FF443
:10A33000FA611AA0FDF7CCFA10B901201AB010BDCD
:10A34000224601A9144802F0D0FF4FF47A7114A0FC
:10A35000FDF7BEFA08B90220F0E74FF4FA60FDF706
:10A360001DFC0020EAE7000031323334353637383F
:10A37000393132333435414200000000B7A2CBCD31
:10A38000CDB73A257300000041542B514953454E37
:10A39000443D25640D0A0000004400403E000000DA
:10A3A00053454E44204F4B0030B5D1B0002500BF7F
:10A3B000002406A908196EA1FDF73AFD044406A978
:10A3C00008196CA1FDF734FD044406A908196DA114
:10A3D000FDF72EFD044406A908196EA1FDF728FD1E
:10A3E0000444E9B201A8FDF771FC06A9081901AA05
:10A3F0006CA1FDF71DFD044410226F4901A8FBF775
:10A4000005FD06A908196DA1FDF712FD0444002001
:10A4100006A900900819042303226EA1FDF708FD88
:10A42000044406A9081972A1FDF702FD044401A81D
:10A43000FDF736FE06A9081901AA73A1FDF7F8FC7D
:10A44000204484B206A9081977A27BA1FDF7F0FC8D
:10A45000204484B2052206A97CA0FCF7B9FA224662
:10A460007DA1814802F051FF4FF4FA617FA0FDF712
:10A470002FFA10B9012051B030BD224606A97A4802
:10A4800002F033FF4FF47A7179A0FDF721FA08B991
:10A490000220F0E74FF4FA60FDF780FB7648406851
:10A4A000007830281AD1744840684078312815D196
:10A4B0000522294671A0FCF78BFA681C85B205229B
:10A4C000294673A0FCF784FA3C2D06DD05222946B7
:10A4D00074A0FCF77DFAE8B2CDE769E7664840680A
:10A4E0000078302843D164484068407830283ED115
:10A4F0000522294671A0FCF76BFAFF212E4851383E
:10A5000080F8B41040F25B71A0F8AA107049816124
:10A510007049C1616E4901626E4941623C2180F817
:10A52000B510052180F8B610D0F8B00040F0200139
:10A5300021485138C0F8B01000F1890166A000F040
:10A5400099FE1D49103167A000F094FE0B221A49B4
:10A55000213966A0FBF75AFC1749243166A000F0A8
:10A5600089FE01F069FC01F087F8002083E71FE70E
:10A570007B000000226D6574686F64223A223122EC
:10A580002C00000022656E745F6B6579223A2233DD
:10A5900035222C00226465766963655F6964223A1E
:10A5A00022222C00226465766963655F6E6F223A11
:10A5B000222573222C0000004901002022646576C8
:10A5C0006963655F6E616D65223A22CEC2CAAAB622
:10A5D000C8222C002268775F76657273696F6E22DD
:10A5E0003A2225642E25642E2564222C00000000CA
:10A5F000226465765F6D6F6465223A22545035306F
:10A60000322D54222C000000226372656174655F54
:10A6100064617465223A2225732030393A34363A1F
:10A620003032222C0000000053544D33324C31356F
:10A630003152425436000000226D63755F6D6F64C5
:10A6400065223A222573227D00000000B7A2CBCDFF
:10A65000C4DAC8DD2573000041542B514953454EDF
:10A66000443D25640D0A0000004400403E00000007
:10A6700053454E44204F4B00BC000020C9E8B1B800
:10A68000D7A2B2E1CAA7B0DC5B25645D0000000080
:10A69000D4D9B4CEB3A2CAD4D7A2B2E15B25645D4B
:10A6A00000000000B7FECEF1C6F7CAFDBEDDBFE276
:10A6B000B4EDCEF35B25645D00000000C9E8B1B8DD
:10A6C000D7A2B2E1B3C9B9A65B25645D0000000062
:10A6D00000008442000080BF746C696E6B2E696F4D
:10A6E00000000000CDD8C6D5C8F0000031333236A6
:10A6F0003732313632343700CBABCEC200000000E7
:10A7000010B5032101A0FCF763F910BD5350493186
:10A710005F49525148616E646C65720010B5032147
:10A7200001A0FCF755F910BD535049325F49525111
:10A7300048616E646C65720010B5032101A0FCF7DE
:10A7400047F910BD535049335F49525148616E6417
:10A750006C65720021B1028842F04002028004E080
:10A7600002884FF6BF731A400280704770B50546E5
:10A770000C46164610211048FDF77BF8032000F028
:10A780005DF9C4F3074000F059F9C4F3072000F065
:10A7900055F9E0B200F052F904E0FF2000F04EF964
:10A7A00028706D1C3000A6F101018EB2F5D1102188
:10A7B0000148FDF760F870BD000801402DE9F05F29
:10A7C00007460E4614464FF00008C146C246002513
:10A7D000AB4606F0FF0ACAF10000C5B22046E117F9
:10A7E00004EB1151C1F30738E11704EB11510913C0
:10A7F000A4EB013101F0FF09BAF1000F20D1B8F14B
:10A80000000F05D122463146384600F0C5F864E015
:10A8100009E04FF480523146384600F0BDF806F5A5
:10A82000805607F580575FEA0800A8F1010101F0A2
:10A83000FF08EED14A463146384600F0ADF84CE00C
:10A84000B8F1000F18D1A94510DDA9EB050000F003
:10A85000FF0B2A463146384600F09EF82E442F441E
:10A860005A463146384600F097F836E022463146DF
:10A87000384600F091F830E0601B84B22046E117C2
:10A8800004EB11514FEA2138E11704EB1151091380
:10A89000A4EB013101F0FF092A463146384600F0A9
:10A8A0007BF82E442F4409E04FF48052314638465D
:10A8B00000F072F806F5805607F580575FEA080049
:10A8C000A8F1010101F0FF08EED1B9F1000F04D0A9
:10A8D0004A463146384600F05FF8BDE8F09F000078
:10A8E00000B587B001212420FFF746FC01210803B1
:10A8F000FFF742FC2020ADF8040003208DF806008D
:10A9000018208DF8070001A92148FCF7DDFE402042
:10A91000ADF8040001A91E48FCF7D6FE8020ADF872
:10A92000040001A91A48FCF7CFFE1020ADF804007E
:10A930008DF8070001A91648FCF7C6FE102114483F
:10A94000FCF799FF0020ADF808004FF48270ADF8D5
:10A950000A000020ADF80C000220ADF80E00012026
:10A96000ADF810004002ADF812003820ADF8140028
:10A970000020ADF816000720ADF8180002A9054820
:10A9800000F0AEF801210348FFF7E4FE07B000BD78
:10A99000000801400030014070B505460C461646DF
:10A9A00000F080F810211348FCF763FF022000F04C
:10A9B00045F8C4F3074000F041F8C4F3072000F065
:10A9C0003DF8E0B200F03AF8B6F5805F01DD4FF4F3
:10A9D000805603E0287800F031F86D1C3000A6F1B5
:10A9E00001018EB2F6D110210248FCF744FF00F0BD
:10A9F00041F870BD0008014010B5044600F052F85F
:10AA000000F038F810210C48FCF733FF202000F04C
:10AA100015F8C4F3074000F011F8C4F3072000F064
:10AA20000DF8E0B200F00AF810210348FCF723FF0C
:10AA300000F020F810BD00000008014010B50446E9
:10AA400000BF02210A4800F03DF80028F9D0214655
:10AA5000074800F043F800BF0121054800F032F834
:10AA60000028F9D0024800F036F8C0B210BD00004E
:10AA70000030014010B5002410210948FCF7F9FE10
:10AA80000520FFF7DBFF00BFFF20FFF7D7FF0446DD
:10AA900014F0010FF8D110210148FCF7ECFE10BDB5
:10AAA0000008014010B510210548FCF7E2FE062021
:10AAB000FFF7C4FF10210248FCF7DDFE10BD0000C7
:10AAC000000801400246002013890B4201D00120FA
:10AAD00000E00020704701468889704781817047F7
